{"contracts/PredictionMarket.sol":{"PredictionMarket":{"abi":[{"inputs":[{"internalType":"address","name":"_resolver","type":"address"}],"stateMutability":"nonpayable","type":"constructor"},{"anonymous":false,"inputs":[{"indexed":true,"internalType":"uint256","name":"id","type":"uint256"},{"indexed":false,"internalType":"string","name":"question","type":"string"},{"indexed":false,"internalType":"string","name":"category","type":"string"},{"indexed":false,"internalType":"string[]","name":"options","type":"string[]"},{"indexed":false,"internalType":"uint256","name":"deadline","type":"uint256"},{"indexed":false,"internalType":"address","name":"creator","type":"address"}],"name":"MarketCreated","type":"event"},{"anonymous":false,"inputs":[{"indexed":true,"internalType":"uint256","name":"id","type":"uint256"},{"indexed":false,"internalType":"uint256","name":"outcomeIndex","type":"uint256"},{"indexed":false,"internalType":"string","name":"evidence","type":"string"}],"name":"MarketResolved","type":"event"},{"anonymous":false,"inputs":[{"indexed":true,"internalType":"uint256","name":"id","type":"uint256"},{"indexed":true,"internalType":"address","name":"user","type":"address"},{"indexed":false,"internalType":"uint256","name":"amount","type":"uint256"}],"name":"RewardClaimed","type":"event"},{"anonymous":false,"inputs":[{"indexed":true,"internalType":"uint256","name":"id","type":"uint256"},{"indexed":true,"internalType":"address","name":"user","type":"address"},{"indexed":false,"internalType":"uint256","name":"optionIndex","type":"uint256"},{"indexed":false,"internalType":"uint256","name":"amountPaid","type":"uint256"},{"indexed":false,"internalType":"uint256","name":"sharesReceived","type":"uint256"}],"name":"SharesBought","type":"event"},{"anonymous":false,"inputs":[{"indexed":true,"internalType":"uint256","name":"id","type":"uint256"},{"indexed":true,"internalType":"address","name":"user","type":"address"},{"indexed":false,"internalType":"uint256","name":"optionIndex","type":"uint256"},{"indexed":false,"internalType":"uint256","name":"sharesSold","type":"uint256"},{"indexed":false,"internalType":"uint256","name":"amountReceived","type":"uint256"}],"name":"SharesSold","type":"event"},{"inputs":[],"name":"PRECISION","outputs":[{"internalType":"uint256","name":"","type":"uint256"}],"stateMutability":"view","type":"function"},{"inputs":[],"name":"PROTOCOL_FEE","outputs":[{"internalType":"uint256","name":"","type":"uint256"}],"stateMutability":"view","type":"function"},{"inputs":[{"internalType":"uint256","name":"_id","type":"uint256"},{"internalType":"uint256","name":"_outcomeIndex","type":"uint256"},{"internalType":"string","name":"_evidence","type":"string"},{"internalType":"uint256","name":"_confidence","type":"uint256"}],"name":"aiResolve","outputs":[],"stateMutability":"nonpayable","type":"function"},{"inputs":[],"name":"aiResolver","outputs":[{"internalType":"address","name":"","type":"address"}],"stateMutability":"view","type":"function"},{"inputs":[{"internalType":"uint256","name":"_id","type":"uint256"},{"internalType":"uint256","name":"_optionIndex","type":"uint256"}],"name":"buyShares","outputs":[],"stateMutability":"payable","type":"function"},{"inputs":[{"internalType":"uint256","name":"_id","type":"uint256"}],"name":"claimReward","outputs":[],"stateMutability":"nonpayable","type":"function"},{"inputs":[{"internalType":"string","name":"_question","type":"string"},{"internalType":"string","name":"_category","type":"string"},{"internalType":"string[]","name":"_options","type":"string[]"},{"internalType":"uint256","name":"_durationHours","type":"uint256"},{"internalType":"uint256","name":"_minStake","type":"uint256"}],"name":"createMarket","outputs":[{"internalType":"uint256","name":"","type":"uint256"}],"stateMutability":"payable","type":"function"},{"inputs":[],"name":"getAllMarkets","outputs":[{"components":[{"internalType":"uint256","name":"id","type":"uint256"},{"internalType":"string","name":"question","type":"string"},{"internalType":"string","name":"category","type":"string"},{"internalType":"string[]","name":"options","type":"string[]"},{"internalType":"uint256","name":"deadline","type":"uint256"},{"internalType":"address","name":"creator","type":"address"},{"internalType":"enum PredictionMarket.Status","name":"status","type":"uint8"},{"internalType":"uint256","name":"outcomeIndex","type":"uint256"},{"internalType":"string","name":"aiEvidence","type":"string"},{"internalType":"uint256","name":"totalSets","type":"uint256"},{"internalType":"uint256[]","name":"shareReserves","type":"uint256[]"},{"internalType":"uint256","name":"createdAt","type":"uint256"},{"internalType":"uint256","name":"minStake","type":"uint256"}],"internalType":"struct PredictionMarket.Market[]","name":"","type":"tuple[]"}],"stateMutability":"view","type":"function"},{"inputs":[{"internalType":"uint256","name":"_id","type":"uint256"}],"name":"getMarket","outputs":[{"components":[{"internalType":"uint256","name":"id","type":"uint256"},{"internalType":"string","name":"question","type":"string"},{"internalType":"string","name":"category","type":"string"},{"internalType":"string[]","name":"options","type":"string[]"},{"internalType":"uint256","name":"deadline","type":"uint256"},{"internalType":"address","name":"creator","type":"address"},{"internalType":"enum PredictionMarket.Status","name":"status","type":"uint8"},{"internalType":"uint256","name":"outcomeIndex","type":"uint256"},{"internalType":"string","name":"aiEvidence","type":"string"},{"internalType":"uint256","name":"totalSets","type":"uint256"},{"internalType":"uint256[]","name":"shareReserves","type":"uint256[]"},{"internalType":"uint256","name":"createdAt","type":"uint256"},{"internalType":"uint256","name":"minStake","type":"uint256"}],"internalType":"struct PredictionMarket.Market","name":"","type":"tuple"}],"stateMutability":"view","type":"function"},{"inputs":[{"internalType":"uint256","name":"_id","type":"uint256"},{"internalType":"address","name":"_user","type":"address"}],"name":"getUserShares","outputs":[{"internalType":"uint256[]","name":"","type":"uint256[]"}],"stateMutability":"view","type":"function"},{"inputs":[],"name":"marketCount","outputs":[{"internalType":"uint256","name":"","type":"uint256"}],"stateMutability":"view","type":"function"},{"inputs":[{"internalType":"uint256","name":"","type":"uint256"}],"name":"markets","outputs":[{"internalType":"uint256","name":"id","type":"uint256"},{"internalType":"string","name":"question","type":"string"},{"internalType":"string","name":"category","type":"string"},{"internalType":"uint256","name":"deadline","type":"uint256"},{"internalType":"address","name":"creator","type":"address"},{"internalType":"enum PredictionMarket.Status","name":"status","type":"uint8"},{"internalType":"uint256","name":"outcomeIndex","type":"uint256"},{"internalType":"string","name":"aiEvidence","type":"string"},{"internalType":"uint256","name":"totalSets","type":"uint256"},{"internalType":"uint256","name":"createdAt","type":"uint256"},{"internalType":"uint256","name":"minStake","type":"uint256"}],"stateMutability":"view","type":"function"},{"inputs":[{"internalType":"uint256","name":"_id","type":"uint256"},{"internalType":"uint256","name":"_optionIndex","type":"uint256"},{"internalType":"uint256","name":"_amount","type":"uint256"}],"name":"sellShares","outputs":[],"stateMutability":"nonpayable","type":"function"},{"inputs":[{"internalType":"uint256","name":"","type":"uint256"},{"internalType":"uint256","name":"","type":"uint256"},{"internalType":"address","name":"","type":"address"}],"name":"shares","outputs":[{"internalType":"uint256","name":"","type":"uint256"}],"stateMutability":"view","type":"function"}],"evm":{"bytecode":{"linkReferences":{},"object":"60803461007457601f611c6a38819003918201601f19168301916001600160401b038311848410176100795780849260209460405283398101031261007457516001600160a01b0381169081900361007457600380546001600160a01b031916919091179055604051611bda90816100908239f35b600080fd5b634e487b7160e01b600052604160045260246000fdfe608080604052600436101561001357600080fd5b60003560e01c9081630b4501fd1461157f57508063569c9e7014610df3578063835dc40b14610cfe5780638532267214610ca3578063aaf5eb6814610c80578063ae169a5014610b16578063b0772d0b146109f4578063b1283e7714610905578063beebc5da146106a8578063cf697adb14610418578063d67c687214610152578063e354ea7814610129578063eb44fdd3146100dc5763ec979082146100b957600080fd5b346100d75760003660031901126100d7576020600054604051908152f35b600080fd5b346100d75760203660031901126100d7576100f5611964565b50600435600052600160205261012561011160406000206119c5565b604051918291602083526020830190611613565b0390f35b346100d75760003660031901126100d7576003546040516001600160a01b039091168152602090f35b346100d75760603660031901126100d7576004356024359060443581600052600160209060018252604060002060ff600582015460a01c16926003936003811015610402576101a19015611b31565b85600052600281526040600020876000528152604060002033600052815284604060002054106103c857600982016101d988826118bd565b90549060031b1c946101eb87876118b0565b92600885019361021185549861020b8b6102058c8261189d565b926118b0565b90611937565b918260011b838104600214841517156103b257610232606485920482611957565b9910610375579061029d918b6000526002815260406000208d60005281526040600020903360005252604060002061026b8b8254611957565b9055610278838754611957565b86556102848c866118bd565b90919082549060031b91821b91600019901b1916179055565b600094600301865b610321575b505050505050508060008115610318575b600080809381933390f11561030c576040805194855260208501929092529083015233917f3af86dc63bd5b48eb0bc47e00838d220409d0c19a0743956381d5296335226269080606081015b0390a3005b6040513d6000823e3d90fd5b506108fc6102bb565b80548610156103705786868c82981461036b5761036461035a61034483896118bd565b905490881b1c61020b876102058c54809461189d565b61028483896118bd565b01956102a5565b610364565b6102aa565b6064906040519062461bcd60e51b825260048201526016602482015275496e73756666696369656e74206c697175696469747960501b6044820152fd5b634e487b7160e01b600052601160045260246000fd5b6064906040519062461bcd60e51b825260048201526013602482015272496e73756666696369656e742073686172657360681b6044820152fd5b634e487b7160e01b600052602160045260246000fd5b346100d75760803660031901126100d7576024356004356001600160401b036044358181116100d75761044f903690600401611599565b6003549194916001600160a01b03163303610670578360005260019260209360018552604060002060058101805460ff8160a01c16600381101561040257610638579082916104a5600360079501548910611b68565b60ff60a01b1916600160a01b1790556006810186905501918311610622576104cd825461175b565b601f81116105e7575b50600090601f84116001146105595750917f230e0c4260efa5ac59d08aaabf3711693fe4f1df54fcb28cc4981a800e58630695969161053082806105499660009161054e575b508160011b916000199060031b1c19161790565b90555b60408051958695865285015260408401916118eb565b0390a2005b90508501358b61051c565b90601f1984168360005286600020926000905b8282106105d0575050917f230e0c4260efa5ac59d08aaabf3711693fe4f1df54fcb28cc4981a800e58630697989391856105499694106105b6575b5050600182811b019055610533565b840135600019600385901b60f8161c1916905588806105a7565b8a840135855593840193928801929088019061056c565b610612908360005286600020601f860160051c810191888710610618575b601f0160051c0190611886565b876104d6565b9091508190610605565b634e487b7160e01b600052604160045260246000fd5b60405162461bcd60e51b815260048101899052601060248201526f105b1c9958591e481c995cdbdb1d995960821b6044820152606490fd5b60405162461bcd60e51b815260206004820152601060248201526f27b7363c9020a4903932b9b7b63b32b960811b6044820152606490fd5b60403660031901126100d7576004356024359080600052600160206001815260406000209160ff600584015460a01c1660039081811015610402576106ed9015611b31565b60048401544210156108d65734156108a257808493929401805491610713838910611b68565b600985019161072289846118bd565b905490831b1c9384906000905b80821061084b5750509060086107538695949361074e8b983492611957565b6118b0565b97016107603482546118b0565b90556000975b6107df575b89897fa952feb34d87c74c5dbfabeeaff86860edc93e5b051cbee07f36ce329fe4532e6103078a8a84600052600281526040600020866000528152604060002090336000525260406000206107c18282546118b0565b90556040805195865234602087015285015233939081906060820190565b80548810156108465784888b8298999a1460001461080e576108058661028483886118bd565b01979695610766565b61084161081b82876118bd565b61082a348354838a1b1c6118b0565b825460001960039390931b92831b1916911b179055565b610805565b61076b565b909598809798998c881461089c5761087661088f9161086a8a8a6118bd565b905490891b1c9061189d565b61020b6108838a8a6118bd565b349154908a1b1c6118b0565b965b01909897969861072f565b96610891565b60405162461bcd60e51b815260048101849052600c60248201526b16995c9bc81c185e5b595b9d60a21b6044820152606490fd5b60405162461bcd60e51b8152600481018490526007602482015266115e1c1a5c995960ca1b6044820152606490fd5b346100d75760203660031901126100d757600435600052600160205260406000208054610934600183016117d2565b91610941600282016117d2565b6004820154916109dd6005820154936006830154610961600785016117d2565b906109cb6008860154976109a4600b600a890154980154986109966040519d8e9d8e61016091815281602082015201906115c6565b8c810360408e0152906115c6565b60608b01959095526001600160a01b03811660808b015260a0808b0191901c60ff16611606565b60c088015286820360e08801526115c6565b926101008501526101208401526101408301520390f35b346100d75760003660031901126100d757600054610a118161190c565b90610a1f60405192836117b1565b808252610a2b8161190c565b60209190601f190160005b818110610afa57505060019060015b81811115610aae57505060405191808301818452845180915260408401918060408360051b8701019601926000905b838210610a815786880387f35b90919293948380610a9d839a603f198b82030186528951611613565b999701959493919091019101610a74565b806000959395528484526040600020906000198101918183116103b257610af292610adb610aec926119c5565b610ae58288611923565b5285611923565b50611877565b939193610a45565b8390610b07959395611964565b82828601015201939193610a36565b346100d7576020806003193601126100d7576004358060005260018252604060002060ff600582015460a01c16600381101561040257600103610c4c5760060154816000526002835260406000208160005283526040600020336000528352604060002054908115610c1357826000526002845260406000209060005283526040600020336000528352600060408120558060011b908082046002036103b2576064610bc3920490611957565b918260008115610c0a575b600080809381933390f11561030c577f24b5efa61dd1cfc659205a97fb8ed868f3cb8c81922bab2b96423e5de1de2cb7906040519384523393a3005b506108fc610bce565b60405162461bcd60e51b81526004810185905260116024820152704e6f2077696e6e696e672073686172657360781b6044820152606490fd5b60405162461bcd60e51b815260048101849052600c60248201526b139bdd081c995cdbdb1d995960a21b6044820152606490fd5b346100d75760003660031901126100d7576020604051670de0b6b3a76400008152f35b346100d75760603660031901126100d7576044356001600160a01b038116908190036100d757600435600052600260205260406000206024356000526020526040600020906000526020526020604060002054604051908152f35b346100d75760403660031901126100d7576004356024356001600160a01b038116908190036100d757816000526001602060018152600360406000200154610d458161190c565b93610d5360405195866117b1565b818552610d5f8261190c565b8584019690601f190136883760005b838110610db1575050505060405192818401908285525180915260408401949160005b828110610d9e5785870386f35b8351875295810195928101928401610d91565b94809795826000989698526002885260406000208160005288526040600020846000528852604060002054610de68288611923565b5201969496959395610d6e565b60a03660031901126100d7576004356001600160401b0381116100d757610e1e903690600401611599565b906024356001600160401b0381116100d757610e3e903690600401611599565b91906001600160401b03604435116100d7573660236044350112156100d7576001600160401b0360443560040135116100d7573660246044356004013560051b6044350101116100d757608435341061153a576002604435600401351061150057610eaa600054611877565b928360005583600052600160205260406000208481556001600160401b03861161062257610edb600182015461175b565b601f81116114cb575b50600086601f811160011461145e5780610f139260009161145357508160011b916000199060031b1c19161790565b60018201555b6001600160401b03821161062257610f34600282015461175b565b601f811161141e575b50600082601f81116001146113b15780610f6c926000916113a657508160011b916000199060031b1c19161790565b60028201555b600160401b6044356004013511610622576003810180546004604435013591829055908111611328575b506024604435016003820160005260206000206000915b60443560040135831061118c57505050610e1060643581606435020481146064351517156103b257610fe99060643502426118b0565b60048201556005810180546001600160a81b0319163360ff60a01b191617905542600a820155608435600b82015534600882015560005b60443560040135811061114257509061104e600461105c94930154946040519760a0895260a08901916118eb565b9186830360208801526118eb565b908382036040850152604435600401358252602082019160206044356004013560051b820101926024604435019160005b6044356004013581106110d957602087807fe1e1c311bce995fbe4e072f3a1bad5aa4dcb6219c91f719c507a07229400a6378b808b8b60608301523360808301520390a2604051908152f35b90919294601f1983820301845285356042196044353603018112156100d757604435016001600160401b036024820135116100d7576024810135360360448201136100d757602061113660019383604460248596013591016118eb565b9701940192910161108d565b600982015490600160401b8210156106225761118661116e8360018095016009870155600986016118bd565b349082549060031b91821b91600019901b1916179055565b01611020565b604435360360421901813512156100d7576001600160401b0360248235604435010135116100d75760448035823501602481013536039101136100d7576111d3825461175b565b601f81116112ed575b506000601f602483356044350101351160011461124f57602060019261122e84936000906024843560443501013561123d575b5060248335604435010135908160011b916000199060031b1c19161790565b85555b01920192019190610fb3565b6044915083358235010101358e61120f565b8260005260206000209060005b60443584350160240135601f191681106112ce5750600192839260209260443583350160240135601f198116106112a5575b50508260248235604435010135811b018555611231565b604460001960f860248635843501013560031b161c199184358235010101351690558c8061128e565b909160206001819260448688358235010101358155019301910161125c565b60008381526020908190206113229260443585350160240135601f810160051c8301931161061857601f0160051c0190611886565b896111dc565b600382016000526020600020906044356004013582015b818301811061134f575050610f9c565b8061135c6001925461175b565b80611369575b500161133f565b601f8111831461137f5750600081555b8a611362565b60009082825261139d601f60208420920160051c8201858301611886565b81835555611379565b90508501358961051c565b506002820160005260206000209060005b601f1985168110611406575083601f198116106113ec575b5050600182811b016002820155610f72565b840135600019600385901b60f8161c1916905586806113da565b909160206001819285890135815501930191016113c2565b61144d90600283016000526020600020601f850160051c8101916020861061061857601f0160051c0190611886565b86610f3d565b90508601358961051c565b506001820160005260206000209060005b601f19891681106114b3575087601f19811610611499575b5050600186811b016001820155610f19565b850135600019600389901b60f8161c191690558680611487565b9091602060018192858a01358155019301910161146f565b6114fa90600183016000526020600020601f890160051c81019160208a1061061857601f0160051c0190611886565b86610ee4565b60405162461bcd60e51b81526020600482015260126024820152714174206c656173742032206f7074696f6e7360701b6044820152606490fd5b60405162461bcd60e51b815260206004820152601e60248201527f4d7573742070726f7669646520696e697469616c206c697175696469747900006044820152606490fd5b346100d75760003660031901126100d75780600260209252f35b9181601f840112156100d7578235916001600160401b0383116100d757602083818601950101116100d757565b919082519283825260005b8481106115f2575050826000602080949584010152601f8019910116010190565b6020818301810151848301820152016115d1565b9060038210156104025752565b906101a09180518252611649611637602094858401519080878701528501906115c6565b604083015184820360408601526115c6565b6060820151838203606085015280518083528583019286808360051b8301019301936000915b888484106117305750505050608084810151908601525060a0808401516001600160a01b03169085015260c0808401516116ce93506116b091860190611606565b60e083015160e08501526101008084015190858303908601526115c6565b9261012080830151908401526101409384830151948482039085015281808651928381520195019160005b82811061171c575050505061016080820151908301526101808091015191015290565b8351875295810195928101926001016116f9565b8061174b60019394959697601f1986820301875289516115c6565b970193019301919493929061166f565b90600182811c9216801561178b575b602083101461177557565b634e487b7160e01b600052602260045260246000fd5b91607f169161176a565b6101a081019081106001600160401b0382111761062257604052565b90601f801991011681019081106001600160401b0382111761062257604052565b906040519182600082546117e58161175b565b908184526020946001916001811690816000146118555750600114611816575b505050611814925003836117b1565b565b600090815285812095935091905b81831061183d5750506118149350820101388080611805565b85548884018501529485019487945091830191611824565b9250505061181494925060ff191682840152151560051b820101388080611805565b60001981146103b25760010190565b818110611891575050565b60008155600101611886565b818102929181159184041417156103b257565b919082018092116103b257565b80548210156118d55760005260206000200190600090565b634e487b7160e01b600052603260045260246000fd5b908060209392818452848401376000828201840152601f01601f1916010190565b6001600160401b0381116106225760051b60200190565b80518210156118d55760209160051b010190565b8115611941570490565b634e487b7160e01b600052601260045260246000fd5b919082039182116103b257565b6040519061197182611795565b81610180600091828152606080602083015280604083015280808301528360808301528360a08301528360c08301528360e08301528061010083015283610120830152610140820152826101608201520152565b906040516119d281611795565b80928054825260016119e6600183016117d2565b90602091828501526119fa600284016117d2565b604085015260038301908154611a0f8161190c565b90611a1d60405192836117b1565b80825284820160009485528585208486925b88858510611b165750505050505060608601526004840154608086015260ff600585015460018060a01b03811660a088015260a01c166003811015611b025760c0860152600684015460e086015290611a8a600785016117d2565b610100860152600884015461012086015260098401916040518094808554928381520194845280842093905b828210611aed5750505050509181611ad5600b936101809503826117b1565b610140850152600a8101546101608501520154910152565b84548652948501949383019390830190611ab6565b634e487b7160e01b83526021600452602483fd5b8291611b21856117d2565b8152019201920191908590611a2f565b15611b3857565b60405162461bcd60e51b81526020600482015260086024820152672737ba1037b832b760c11b6044820152606490fd5b15611b6f57565b60405162461bcd60e51b815260206004820152600d60248201526c092dcecc2d8d2c840d2dcc8caf609b1b6044820152606490fdfea2646970667358221220031d9eabe0c544da964b34714b44c448864263e0ff73562e40a333e76ef7738464736f6c63430008180033","opcodes":"PUSH1 0x80 CALLVALUE PUSH2 0x74 JUMPI PUSH1 0x1F PUSH2 0x1C6A CODESIZE DUP2 SWAP1 SUB SWAP2 DUP3 ADD PUSH1 0x1F NOT AND DUP4 ADD SWAP2 PUSH1 0x1 PUSH1 0x1 PUSH1 0x40 SHL SUB DUP4 GT DUP5 DUP5 LT OR PUSH2 0x79 JUMPI DUP1 DUP5 SWAP3 PUSH1 0x20 SWAP5 PUSH1 0x40 MSTORE DUP4 CODECOPY DUP2 ADD SUB SLT PUSH2 0x74 JUMPI MLOAD PUSH1 0x1 PUSH1 0x1 PUSH1 0xA0 SHL SUB DUP2 AND SWAP1 DUP2 SWAP1 SUB PUSH2 0x74 JUMPI PUSH1 0x3 DUP1 SLOAD PUSH1 0x1 PUSH1 0x1 PUSH1 0xA0 SHL SUB NOT AND SWAP2 SWAP1 SWAP2 OR SWAP1 SSTORE PUSH1 0x40 MLOAD PUSH2 0x1BDA SWAP1 DUP2 PUSH2 0x90 DUP3 CODECOPY RETURN JUMPDEST PUSH1 0x0 DUP1 REVERT JUMPDEST PUSH4 0x4E487B71 PUSH1 0xE0 SHL PUSH1 0x0 MSTORE PUSH1 0x41 PUSH1 0x4 MSTORE PUSH1 0x24 PUSH1 0x0 REVERT INVALID PUSH1 0x80 DUP1 PUSH1 0x40 MSTORE PUSH1 0x4 CALLDATASIZE LT ISZERO PUSH2 0x13 JUMPI PUSH1 0x0 DUP1 REVERT JUMPDEST PUSH1 0x0 CALLDATALOAD PUSH1 0xE0 SHR SWAP1 DUP2 PUSH4 0xB4501FD EQ PUSH2 0x157F JUMPI POP DUP1 PUSH4 0x569C9E70 EQ PUSH2 0xDF3 JUMPI DUP1 PUSH4 0x835DC40B EQ PUSH2 0xCFE JUMPI DUP1 PUSH4 0x85322672 EQ PUSH2 0xCA3 JUMPI DUP1 PUSH4 0xAAF5EB68 EQ PUSH2 0xC80 JUMPI DUP1 PUSH4 0xAE169A50 EQ PUSH2 0xB16 JUMPI DUP1 PUSH4 0xB0772D0B EQ PUSH2 0x9F4 JUMPI DUP1 PUSH4 0xB1283E77 EQ PUSH2 0x905 JUMPI DUP1 PUSH4 0xBEEBC5DA EQ PUSH2 0x6A8 JUMPI DUP1 PUSH4 0xCF697ADB EQ PUSH2 0x418 JUMPI DUP1 PUSH4 0xD67C6872 EQ PUSH2 0x152 JUMPI DUP1 PUSH4 0xE354EA78 EQ PUSH2 0x129 JUMPI DUP1 PUSH4 0xEB44FDD3 EQ PUSH2 0xDC JUMPI PUSH4 0xEC979082 EQ PUSH2 0xB9 JUMPI PUSH1 0x0 DUP1 REVERT JUMPDEST CALLVALUE PUSH2 0xD7 JUMPI PUSH1 0x0 CALLDATASIZE PUSH1 0x3 NOT ADD SLT PUSH2 0xD7 JUMPI PUSH1 0x20 PUSH1 0x0 SLOAD PUSH1 0x40 MLOAD SWAP1 DUP2 MSTORE RETURN JUMPDEST PUSH1 0x0 DUP1 REVERT JUMPDEST CALLVALUE PUSH2 0xD7 JUMPI PUSH1 0x20 CALLDATASIZE PUSH1 0x3 NOT ADD SLT PUSH2 0xD7 JUMPI PUSH2 0xF5 PUSH2 0x1964 JUMP JUMPDEST POP PUSH1 0x4 CALLDATALOAD PUSH1 0x0 MSTORE PUSH1 0x1 PUSH1 0x20 MSTORE PUSH2 0x125 PUSH2 0x111 PUSH1 0x40 PUSH1 0x0 KECCAK256 PUSH2 0x19C5 JUMP JUMPDEST PUSH1 0x40 MLOAD SWAP2 DUP3 SWAP2 PUSH1 0x20 DUP4 MSTORE PUSH1 0x20 DUP4 ADD SWAP1 PUSH2 0x1613 JUMP JUMPDEST SUB SWAP1 RETURN JUMPDEST CALLVALUE PUSH2 0xD7 JUMPI PUSH1 0x0 CALLDATASIZE PUSH1 0x3 NOT ADD SLT PUSH2 0xD7 JUMPI PUSH1 0x3 SLOAD PUSH1 0x40 MLOAD PUSH1 0x1 PUSH1 0x1 PUSH1 0xA0 SHL SUB SWAP1 SWAP2 AND DUP2 MSTORE PUSH1 0x20 SWAP1 RETURN JUMPDEST CALLVALUE PUSH2 0xD7 JUMPI PUSH1 0x60 CALLDATASIZE PUSH1 0x3 NOT ADD SLT PUSH2 0xD7 JUMPI PUSH1 0x4 CALLDATALOAD PUSH1 0x24 CALLDATALOAD SWAP1 PUSH1 0x44 CALLDATALOAD DUP2 PUSH1 0x0 MSTORE PUSH1 0x1 PUSH1 0x20 SWAP1 PUSH1 0x1 DUP3 MSTORE PUSH1 0x40 PUSH1 0x0 KECCAK256 PUSH1 0xFF PUSH1 0x5 DUP3 ADD SLOAD PUSH1 0xA0 SHR AND SWAP3 PUSH1 0x3 SWAP4 PUSH1 0x3 DUP2 LT ISZERO PUSH2 0x402 JUMPI PUSH2 0x1A1 SWAP1 ISZERO PUSH2 0x1B31 JUMP JUMPDEST DUP6 PUSH1 0x0 MSTORE PUSH1 0x2 DUP2 MSTORE PUSH1 0x40 PUSH1 0x0 KECCAK256 DUP8 PUSH1 0x0 MSTORE DUP2 MSTORE PUSH1 0x40 PUSH1 0x0 KECCAK256 CALLER PUSH1 0x0 MSTORE DUP2 MSTORE DUP5 PUSH1 0x40 PUSH1 0x0 KECCAK256 SLOAD LT PUSH2 0x3C8 JUMPI PUSH1 0x9 DUP3 ADD PUSH2 0x1D9 DUP9 DUP3 PUSH2 0x18BD JUMP JUMPDEST SWAP1 SLOAD SWAP1 PUSH1 0x3 SHL SHR SWAP5 PUSH2 0x1EB DUP8 DUP8 PUSH2 0x18B0 JUMP JUMPDEST SWAP3 PUSH1 0x8 DUP6 ADD SWAP4 PUSH2 0x211 DUP6 SLOAD SWAP9 PUSH2 0x20B DUP12 PUSH2 0x205 DUP13 DUP3 PUSH2 0x189D JUMP JUMPDEST SWAP3 PUSH2 0x18B0 JUMP JUMPDEST SWAP1 PUSH2 0x1937 JUMP JUMPDEST SWAP2 DUP3 PUSH1 0x1 SHL DUP4 DUP2 DIV PUSH1 0x2 EQ DUP5 ISZERO OR ISZERO PUSH2 0x3B2 JUMPI PUSH2 0x232 PUSH1 0x64 DUP6 SWAP3 DIV DUP3 PUSH2 0x1957 JUMP JUMPDEST SWAP10 LT PUSH2 0x375 JUMPI SWAP1 PUSH2 0x29D SWAP2 DUP12 PUSH1 0x0 MSTORE PUSH1 0x2 DUP2 MSTORE PUSH1 0x40 PUSH1 0x0 KECCAK256 DUP14 PUSH1 0x0 MSTORE DUP2 MSTORE PUSH1 0x40 PUSH1 0x0 KECCAK256 SWAP1 CALLER PUSH1 0x0 MSTORE MSTORE PUSH1 0x40 PUSH1 0x0 KECCAK256 PUSH2 0x26B DUP12 DUP3 SLOAD PUSH2 0x1957 JUMP JUMPDEST SWAP1 SSTORE PUSH2 0x278 DUP4 DUP8 SLOAD PUSH2 0x1957 JUMP JUMPDEST DUP7 SSTORE PUSH2 0x284 DUP13 DUP7 PUSH2 0x18BD JUMP JUMPDEST SWAP1 SWAP2 SWAP1 DUP3 SLOAD SWAP1 PUSH1 0x3 SHL SWAP2 DUP3 SHL SWAP2 PUSH1 0x0 NOT SWAP1 SHL NOT AND OR SWAP1 SSTORE JUMP JUMPDEST PUSH1 0x0 SWAP5 PUSH1 0x3 ADD DUP7 JUMPDEST PUSH2 0x321 JUMPI JUMPDEST POP POP POP POP POP POP POP DUP1 PUSH1 0x0 DUP2 ISZERO PUSH2 0x318 JUMPI JUMPDEST PUSH1 0x0 DUP1 DUP1 SWAP4 DUP2 SWAP4 CALLER SWAP1 CALL ISZERO PUSH2 0x30C JUMPI PUSH1 0x40 DUP1 MLOAD SWAP5 DUP6 MSTORE PUSH1 0x20 DUP6 ADD SWAP3 SWAP1 SWAP3 MSTORE SWAP1 DUP4 ADD MSTORE CALLER SWAP2 PUSH32 0x3AF86DC63BD5B48EB0BC47E00838D220409D0C19A0743956381D529633522626 SWAP1 DUP1 PUSH1 0x60 DUP2 ADD JUMPDEST SUB SWAP1 LOG3 STOP JUMPDEST PUSH1 0x40 MLOAD RETURNDATASIZE PUSH1 0x0 DUP3 RETURNDATACOPY RETURNDATASIZE SWAP1 REVERT JUMPDEST POP PUSH2 0x8FC PUSH2 0x2BB JUMP JUMPDEST DUP1 SLOAD DUP7 LT ISZERO PUSH2 0x370 JUMPI DUP7 DUP7 DUP13 DUP3 SWAP9 EQ PUSH2 0x36B JUMPI PUSH2 0x364 PUSH2 0x35A PUSH2 0x344 DUP4 DUP10 PUSH2 0x18BD JUMP JUMPDEST SWAP1 SLOAD SWAP1 DUP9 SHL SHR PUSH2 0x20B DUP8 PUSH2 0x205 DUP13 SLOAD DUP1 SWAP5 PUSH2 0x189D JUMP JUMPDEST PUSH2 0x284 DUP4 DUP10 PUSH2 0x18BD JUMP JUMPDEST ADD SWAP6 PUSH2 0x2A5 JUMP JUMPDEST PUSH2 0x364 JUMP JUMPDEST PUSH2 0x2AA JUMP JUMPDEST PUSH1 0x64 SWAP1 PUSH1 0x40 MLOAD SWAP1 PUSH3 0x461BCD PUSH1 0xE5 SHL DUP3 MSTORE PUSH1 0x4 DUP3 ADD MSTORE PUSH1 0x16 PUSH1 0x24 DUP3 ADD MSTORE PUSH22 0x496E73756666696369656E74206C6971756964697479 PUSH1 0x50 SHL PUSH1 0x44 DUP3 ADD MSTORE REVERT JUMPDEST PUSH4 0x4E487B71 PUSH1 0xE0 SHL PUSH1 0x0 MSTORE PUSH1 0x11 PUSH1 0x4 MSTORE PUSH1 0x24 PUSH1 0x0 REVERT JUMPDEST PUSH1 0x64 SWAP1 PUSH1 0x40 MLOAD SWAP1 PUSH3 0x461BCD PUSH1 0xE5 SHL DUP3 MSTORE PUSH1 0x4 DUP3 ADD MSTORE PUSH1 0x13 PUSH1 0x24 DUP3 ADD MSTORE PUSH19 0x496E73756666696369656E7420736861726573 PUSH1 0x68 SHL PUSH1 0x44 DUP3 ADD MSTORE REVERT JUMPDEST PUSH4 0x4E487B71 PUSH1 0xE0 SHL PUSH1 0x0 MSTORE PUSH1 0x21 PUSH1 0x4 MSTORE PUSH1 0x24 PUSH1 0x0 REVERT JUMPDEST CALLVALUE PUSH2 0xD7 JUMPI PUSH1 0x80 CALLDATASIZE PUSH1 0x3 NOT ADD SLT PUSH2 0xD7 JUMPI PUSH1 0x24 CALLDATALOAD PUSH1 0x4 CALLDATALOAD PUSH1 0x1 PUSH1 0x1 PUSH1 0x40 SHL SUB PUSH1 0x44 CALLDATALOAD DUP2 DUP2 GT PUSH2 0xD7 JUMPI PUSH2 0x44F SWAP1 CALLDATASIZE SWAP1 PUSH1 0x4 ADD PUSH2 0x1599 JUMP JUMPDEST PUSH1 0x3 SLOAD SWAP2 SWAP5 SWAP2 PUSH1 0x1 PUSH1 0x1 PUSH1 0xA0 SHL SUB AND CALLER SUB PUSH2 0x670 JUMPI DUP4 PUSH1 0x0 MSTORE PUSH1 0x1 SWAP3 PUSH1 0x20 SWAP4 PUSH1 0x1 DUP6 MSTORE PUSH1 0x40 PUSH1 0x0 KECCAK256 PUSH1 0x5 DUP2 ADD DUP1 SLOAD PUSH1 0xFF DUP2 PUSH1 0xA0 SHR AND PUSH1 0x3 DUP2 LT ISZERO PUSH2 0x402 JUMPI PUSH2 0x638 JUMPI SWAP1 DUP3 SWAP2 PUSH2 0x4A5 PUSH1 0x3 PUSH1 0x7 SWAP6 ADD SLOAD DUP10 LT PUSH2 0x1B68 JUMP JUMPDEST PUSH1 0xFF PUSH1 0xA0 SHL NOT AND PUSH1 0x1 PUSH1 0xA0 SHL OR SWAP1 SSTORE PUSH1 0x6 DUP2 ADD DUP7 SWAP1 SSTORE ADD SWAP2 DUP4 GT PUSH2 0x622 JUMPI PUSH2 0x4CD DUP3 SLOAD PUSH2 0x175B JUMP JUMPDEST PUSH1 0x1F DUP2 GT PUSH2 0x5E7 JUMPI JUMPDEST POP PUSH1 0x0 SWAP1 PUSH1 0x1F DUP5 GT PUSH1 0x1 EQ PUSH2 0x559 JUMPI POP SWAP2 PUSH32 0x230E0C4260EFA5AC59D08AAABF3711693FE4F1DF54FCB28CC4981A800E586306 SWAP6 SWAP7 SWAP2 PUSH2 0x530 DUP3 DUP1 PUSH2 0x549 SWAP7 PUSH1 0x0 SWAP2 PUSH2 0x54E JUMPI JUMPDEST POP DUP2 PUSH1 0x1 SHL SWAP2 PUSH1 0x0 NOT SWAP1 PUSH1 0x3 SHL SHR NOT AND OR SWAP1 JUMP JUMPDEST SWAP1 SSTORE JUMPDEST PUSH1 0x40 DUP1 MLOAD SWAP6 DUP7 SWAP6 DUP7 MSTORE DUP6 ADD MSTORE PUSH1 0x40 DUP5 ADD SWAP2 PUSH2 0x18EB JUMP JUMPDEST SUB SWAP1 LOG2 STOP JUMPDEST SWAP1 POP DUP6 ADD CALLDATALOAD DUP12 PUSH2 0x51C JUMP JUMPDEST SWAP1 PUSH1 0x1F NOT DUP5 AND DUP4 PUSH1 0x0 MSTORE DUP7 PUSH1 0x0 KECCAK256 SWAP3 PUSH1 0x0 SWAP1 JUMPDEST DUP3 DUP3 LT PUSH2 0x5D0 JUMPI POP POP SWAP2 PUSH32 0x230E0C4260EFA5AC59D08AAABF3711693FE4F1DF54FCB28CC4981A800E586306 SWAP8 SWAP9 SWAP4 SWAP2 DUP6 PUSH2 0x549 SWAP7 SWAP5 LT PUSH2 0x5B6 JUMPI JUMPDEST POP POP PUSH1 0x1 DUP3 DUP2 SHL ADD SWAP1 SSTORE PUSH2 0x533 JUMP JUMPDEST DUP5 ADD CALLDATALOAD PUSH1 0x0 NOT PUSH1 0x3 DUP6 SWAP1 SHL PUSH1 0xF8 AND SHR NOT AND SWAP1 SSTORE DUP9 DUP1 PUSH2 0x5A7 JUMP JUMPDEST DUP11 DUP5 ADD CALLDATALOAD DUP6 SSTORE SWAP4 DUP5 ADD SWAP4 SWAP3 DUP9 ADD SWAP3 SWAP1 DUP9 ADD SWAP1 PUSH2 0x56C JUMP JUMPDEST PUSH2 0x612 SWAP1 DUP4 PUSH1 0x0 MSTORE DUP7 PUSH1 0x0 KECCAK256 PUSH1 0x1F DUP7 ADD PUSH1 0x5 SHR DUP2 ADD SWAP2 DUP9 DUP8 LT PUSH2 0x618 JUMPI JUMPDEST PUSH1 0x1F ADD PUSH1 0x5 SHR ADD SWAP1 PUSH2 0x1886 JUMP JUMPDEST DUP8 PUSH2 0x4D6 JUMP JUMPDEST SWAP1 SWAP2 POP DUP2 SWAP1 PUSH2 0x605 JUMP JUMPDEST PUSH4 0x4E487B71 PUSH1 0xE0 SHL PUSH1 0x0 MSTORE PUSH1 0x41 PUSH1 0x4 MSTORE PUSH1 0x24 PUSH1 0x0 REVERT JUMPDEST PUSH1 0x40 MLOAD PUSH3 0x461BCD PUSH1 0xE5 SHL DUP2 MSTORE PUSH1 0x4 DUP2 ADD DUP10 SWAP1 MSTORE PUSH1 0x10 PUSH1 0x24 DUP3 ADD MSTORE PUSH16 0x105B1C9958591E481C995CDBDB1D9959 PUSH1 0x82 SHL PUSH1 0x44 DUP3 ADD MSTORE PUSH1 0x64 SWAP1 REVERT JUMPDEST PUSH1 0x40 MLOAD PUSH3 0x461BCD PUSH1 0xE5 SHL DUP2 MSTORE PUSH1 0x20 PUSH1 0x4 DUP3 ADD MSTORE PUSH1 0x10 PUSH1 0x24 DUP3 ADD MSTORE PUSH16 0x27B7363C9020A4903932B9B7B63B32B9 PUSH1 0x81 SHL PUSH1 0x44 DUP3 ADD MSTORE PUSH1 0x64 SWAP1 REVERT JUMPDEST PUSH1 0x40 CALLDATASIZE PUSH1 0x3 NOT ADD SLT PUSH2 0xD7 JUMPI PUSH1 0x4 CALLDATALOAD PUSH1 0x24 CALLDATALOAD SWAP1 DUP1 PUSH1 0x0 MSTORE PUSH1 0x1 PUSH1 0x20 PUSH1 0x1 DUP2 MSTORE PUSH1 0x40 PUSH1 0x0 KECCAK256 SWAP2 PUSH1 0xFF PUSH1 0x5 DUP5 ADD SLOAD PUSH1 0xA0 SHR AND PUSH1 0x3 SWAP1 DUP2 DUP2 LT ISZERO PUSH2 0x402 JUMPI PUSH2 0x6ED SWAP1 ISZERO PUSH2 0x1B31 JUMP JUMPDEST PUSH1 0x4 DUP5 ADD SLOAD TIMESTAMP LT ISZERO PUSH2 0x8D6 JUMPI CALLVALUE ISZERO PUSH2 0x8A2 JUMPI DUP1 DUP5 SWAP4 SWAP3 SWAP5 ADD DUP1 SLOAD SWAP2 PUSH2 0x713 DUP4 DUP10 LT PUSH2 0x1B68 JUMP JUMPDEST PUSH1 0x9 DUP6 ADD SWAP2 PUSH2 0x722 DUP10 DUP5 PUSH2 0x18BD JUMP JUMPDEST SWAP1 SLOAD SWAP1 DUP4 SHL SHR SWAP4 DUP5 SWAP1 PUSH1 0x0 SWAP1 JUMPDEST DUP1 DUP3 LT PUSH2 0x84B JUMPI POP POP SWAP1 PUSH1 0x8 PUSH2 0x753 DUP7 SWAP6 SWAP5 SWAP4 PUSH2 0x74E DUP12 SWAP9 CALLVALUE SWAP3 PUSH2 0x1957 JUMP JUMPDEST PUSH2 0x18B0 JUMP JUMPDEST SWAP8 ADD PUSH2 0x760 CALLVALUE DUP3 SLOAD PUSH2 0x18B0 JUMP JUMPDEST SWAP1 SSTORE PUSH1 0x0 SWAP8 JUMPDEST PUSH2 0x7DF JUMPI JUMPDEST DUP10 DUP10 PUSH32 0xA952FEB34D87C74C5DBFABEEAFF86860EDC93E5B051CBEE07F36CE329FE4532E PUSH2 0x307 DUP11 DUP11 DUP5 PUSH1 0x0 MSTORE PUSH1 0x2 DUP2 MSTORE PUSH1 0x40 PUSH1 0x0 KECCAK256 DUP7 PUSH1 0x0 MSTORE DUP2 MSTORE PUSH1 0x40 PUSH1 0x0 KECCAK256 SWAP1 CALLER PUSH1 0x0 MSTORE MSTORE PUSH1 0x40 PUSH1 0x0 KECCAK256 PUSH2 0x7C1 DUP3 DUP3 SLOAD PUSH2 0x18B0 JUMP JUMPDEST SWAP1 SSTORE PUSH1 0x40 DUP1 MLOAD SWAP6 DUP7 MSTORE CALLVALUE PUSH1 0x20 DUP8 ADD MSTORE DUP6 ADD MSTORE CALLER SWAP4 SWAP1 DUP2 SWAP1 PUSH1 0x60 DUP3 ADD SWAP1 JUMP JUMPDEST DUP1 SLOAD DUP9 LT ISZERO PUSH2 0x846 JUMPI DUP5 DUP9 DUP12 DUP3 SWAP9 SWAP10 SWAP11 EQ PUSH1 0x0 EQ PUSH2 0x80E JUMPI PUSH2 0x805 DUP7 PUSH2 0x284 DUP4 DUP9 PUSH2 0x18BD JUMP JUMPDEST ADD SWAP8 SWAP7 SWAP6 PUSH2 0x766 JUMP JUMPDEST PUSH2 0x841 PUSH2 0x81B DUP3 DUP8 PUSH2 0x18BD JUMP JUMPDEST PUSH2 0x82A CALLVALUE DUP4 SLOAD DUP4 DUP11 SHL SHR PUSH2 0x18B0 JUMP JUMPDEST DUP3 SLOAD PUSH1 0x0 NOT PUSH1 0x3 SWAP4 SWAP1 SWAP4 SHL SWAP3 DUP4 SHL NOT AND SWAP2 SHL OR SWAP1 SSTORE JUMP JUMPDEST PUSH2 0x805 JUMP JUMPDEST PUSH2 0x76B JUMP JUMPDEST SWAP1 SWAP6 SWAP9 DUP1 SWAP8 SWAP9 SWAP10 DUP13 DUP9 EQ PUSH2 0x89C JUMPI PUSH2 0x876 PUSH2 0x88F SWAP2 PUSH2 0x86A DUP11 DUP11 PUSH2 0x18BD JUMP JUMPDEST SWAP1 SLOAD SWAP1 DUP10 SHL SHR SWAP1 PUSH2 0x189D JUMP JUMPDEST PUSH2 0x20B PUSH2 0x883 DUP11 DUP11 PUSH2 0x18BD JUMP JUMPDEST CALLVALUE SWAP2 SLOAD SWAP1 DUP11 SHL SHR PUSH2 0x18B0 JUMP JUMPDEST SWAP7 JUMPDEST ADD SWAP1 SWAP9 SWAP8 SWAP7 SWAP9 PUSH2 0x72F JUMP JUMPDEST SWAP7 PUSH2 0x891 JUMP JUMPDEST PUSH1 0x40 MLOAD PUSH3 0x461BCD PUSH1 0xE5 SHL DUP2 MSTORE PUSH1 0x4 DUP2 ADD DUP5 SWAP1 MSTORE PUSH1 0xC PUSH1 0x24 DUP3 ADD MSTORE PUSH12 0x16995C9BC81C185E5B595B9D PUSH1 0xA2 SHL PUSH1 0x44 DUP3 ADD MSTORE PUSH1 0x64 SWAP1 REVERT JUMPDEST PUSH1 0x40 MLOAD PUSH3 0x461BCD PUSH1 0xE5 SHL DUP2 MSTORE PUSH1 0x4 DUP2 ADD DUP5 SWAP1 MSTORE PUSH1 0x7 PUSH1 0x24 DUP3 ADD MSTORE PUSH7 0x115E1C1A5C9959 PUSH1 0xCA SHL PUSH1 0x44 DUP3 ADD MSTORE PUSH1 0x64 SWAP1 REVERT JUMPDEST CALLVALUE PUSH2 0xD7 JUMPI PUSH1 0x20 CALLDATASIZE PUSH1 0x3 NOT ADD SLT PUSH2 0xD7 JUMPI PUSH1 0x4 CALLDATALOAD PUSH1 0x0 MSTORE PUSH1 0x1 PUSH1 0x20 MSTORE PUSH1 0x40 PUSH1 0x0 KECCAK256 DUP1 SLOAD PUSH2 0x934 PUSH1 0x1 DUP4 ADD PUSH2 0x17D2 JUMP JUMPDEST SWAP2 PUSH2 0x941 PUSH1 0x2 DUP3 ADD PUSH2 0x17D2 JUMP JUMPDEST PUSH1 0x4 DUP3 ADD SLOAD SWAP2 PUSH2 0x9DD PUSH1 0x5 DUP3 ADD SLOAD SWAP4 PUSH1 0x6 DUP4 ADD SLOAD PUSH2 0x961 PUSH1 0x7 DUP6 ADD PUSH2 0x17D2 JUMP JUMPDEST SWAP1 PUSH2 0x9CB PUSH1 0x8 DUP7 ADD SLOAD SWAP8 PUSH2 0x9A4 PUSH1 0xB PUSH1 0xA DUP10 ADD SLOAD SWAP9 ADD SLOAD SWAP9 PUSH2 0x996 PUSH1 0x40 MLOAD SWAP14 DUP15 SWAP14 DUP15 PUSH2 0x160 SWAP2 DUP2 MSTORE DUP2 PUSH1 0x20 DUP3 ADD MSTORE ADD SWAP1 PUSH2 0x15C6 JUMP JUMPDEST DUP13 DUP2 SUB PUSH1 0x40 DUP15 ADD MSTORE SWAP1 PUSH2 0x15C6 JUMP JUMPDEST PUSH1 0x60 DUP12 ADD SWAP6 SWAP1 SWAP6 MSTORE PUSH1 0x1 PUSH1 0x1 PUSH1 0xA0 SHL SUB DUP2 AND PUSH1 0x80 DUP12 ADD MSTORE PUSH1 0xA0 DUP1 DUP12 ADD SWAP2 SWAP1 SHR PUSH1 0xFF AND PUSH2 0x1606 JUMP JUMPDEST PUSH1 0xC0 DUP9 ADD MSTORE DUP7 DUP3 SUB PUSH1 0xE0 DUP9 ADD MSTORE PUSH2 0x15C6 JUMP JUMPDEST SWAP3 PUSH2 0x100 DUP6 ADD MSTORE PUSH2 0x120 DUP5 ADD MSTORE PUSH2 0x140 DUP4 ADD MSTORE SUB SWAP1 RETURN JUMPDEST CALLVALUE PUSH2 0xD7 JUMPI PUSH1 0x0 CALLDATASIZE PUSH1 0x3 NOT ADD SLT PUSH2 0xD7 JUMPI PUSH1 0x0 SLOAD PUSH2 0xA11 DUP2 PUSH2 0x190C JUMP JUMPDEST SWAP1 PUSH2 0xA1F PUSH1 0x40 MLOAD SWAP3 DUP4 PUSH2 0x17B1 JUMP JUMPDEST DUP1 DUP3 MSTORE PUSH2 0xA2B DUP2 PUSH2 0x190C JUMP JUMPDEST PUSH1 0x20 SWAP2 SWAP1 PUSH1 0x1F NOT ADD PUSH1 0x0 JUMPDEST DUP2 DUP2 LT PUSH2 0xAFA JUMPI POP POP PUSH1 0x1 SWAP1 PUSH1 0x1 JUMPDEST DUP2 DUP2 GT ISZERO PUSH2 0xAAE JUMPI POP POP PUSH1 0x40 MLOAD SWAP2 DUP1 DUP4 ADD DUP2 DUP5 MSTORE DUP5 MLOAD DUP1 SWAP2 MSTORE PUSH1 0x40 DUP5 ADD SWAP2 DUP1 PUSH1 0x40 DUP4 PUSH1 0x5 SHL DUP8 ADD ADD SWAP7 ADD SWAP3 PUSH1 0x0 SWAP1 JUMPDEST DUP4 DUP3 LT PUSH2 0xA81 JUMPI DUP7 DUP9 SUB DUP8 RETURN JUMPDEST SWAP1 SWAP2 SWAP3 SWAP4 SWAP5 DUP4 DUP1 PUSH2 0xA9D DUP4 SWAP11 PUSH1 0x3F NOT DUP12 DUP3 SUB ADD DUP7 MSTORE DUP10 MLOAD PUSH2 0x1613 JUMP JUMPDEST SWAP10 SWAP8 ADD SWAP6 SWAP5 SWAP4 SWAP2 SWAP1 SWAP2 ADD SWAP2 ADD PUSH2 0xA74 JUMP JUMPDEST DUP1 PUSH1 0x0 SWAP6 SWAP4 SWAP6 MSTORE DUP5 DUP5 MSTORE PUSH1 0x40 PUSH1 0x0 KECCAK256 SWAP1 PUSH1 0x0 NOT DUP2 ADD SWAP2 DUP2 DUP4 GT PUSH2 0x3B2 JUMPI PUSH2 0xAF2 SWAP3 PUSH2 0xADB PUSH2 0xAEC SWAP3 PUSH2 0x19C5 JUMP JUMPDEST PUSH2 0xAE5 DUP3 DUP9 PUSH2 0x1923 JUMP JUMPDEST MSTORE DUP6 PUSH2 0x1923 JUMP JUMPDEST POP PUSH2 0x1877 JUMP JUMPDEST SWAP4 SWAP2 SWAP4 PUSH2 0xA45 JUMP JUMPDEST DUP4 SWAP1 PUSH2 0xB07 SWAP6 SWAP4 SWAP6 PUSH2 0x1964 JUMP JUMPDEST DUP3 DUP3 DUP7 ADD ADD MSTORE ADD SWAP4 SWAP2 SWAP4 PUSH2 0xA36 JUMP JUMPDEST CALLVALUE PUSH2 0xD7 JUMPI PUSH1 0x20 DUP1 PUSH1 0x3 NOT CALLDATASIZE ADD SLT PUSH2 0xD7 JUMPI PUSH1 0x4 CALLDATALOAD DUP1 PUSH1 0x0 MSTORE PUSH1 0x1 DUP3 MSTORE PUSH1 0x40 PUSH1 0x0 KECCAK256 PUSH1 0xFF PUSH1 0x5 DUP3 ADD SLOAD PUSH1 0xA0 SHR AND PUSH1 0x3 DUP2 LT ISZERO PUSH2 0x402 JUMPI PUSH1 0x1 SUB PUSH2 0xC4C JUMPI PUSH1 0x6 ADD SLOAD DUP2 PUSH1 0x0 MSTORE PUSH1 0x2 DUP4 MSTORE PUSH1 0x40 PUSH1 0x0 KECCAK256 DUP2 PUSH1 0x0 MSTORE DUP4 MSTORE PUSH1 0x40 PUSH1 0x0 KECCAK256 CALLER PUSH1 0x0 MSTORE DUP4 MSTORE PUSH1 0x40 PUSH1 0x0 KECCAK256 SLOAD SWAP1 DUP2 ISZERO PUSH2 0xC13 JUMPI DUP3 PUSH1 0x0 MSTORE PUSH1 0x2 DUP5 MSTORE PUSH1 0x40 PUSH1 0x0 KECCAK256 SWAP1 PUSH1 0x0 MSTORE DUP4 MSTORE PUSH1 0x40 PUSH1 0x0 KECCAK256 CALLER PUSH1 0x0 MSTORE DUP4 MSTORE PUSH1 0x0 PUSH1 0x40 DUP2 KECCAK256 SSTORE DUP1 PUSH1 0x1 SHL SWAP1 DUP1 DUP3 DIV PUSH1 0x2 SUB PUSH2 0x3B2 JUMPI PUSH1 0x64 PUSH2 0xBC3 SWAP3 DIV SWAP1 PUSH2 0x1957 JUMP JUMPDEST SWAP2 DUP3 PUSH1 0x0 DUP2 ISZERO PUSH2 0xC0A JUMPI JUMPDEST PUSH1 0x0 DUP1 DUP1 SWAP4 DUP2 SWAP4 CALLER SWAP1 CALL ISZERO PUSH2 0x30C JUMPI PUSH32 0x24B5EFA61DD1CFC659205A97FB8ED868F3CB8C81922BAB2B96423E5DE1DE2CB7 SWAP1 PUSH1 0x40 MLOAD SWAP4 DUP5 MSTORE CALLER SWAP4 LOG3 STOP JUMPDEST POP PUSH2 0x8FC PUSH2 0xBCE JUMP JUMPDEST PUSH1 0x40 MLOAD PUSH3 0x461BCD PUSH1 0xE5 SHL DUP2 MSTORE PUSH1 0x4 DUP2 ADD DUP6 SWAP1 MSTORE PUSH1 0x11 PUSH1 0x24 DUP3 ADD MSTORE PUSH17 0x4E6F2077696E6E696E6720736861726573 PUSH1 0x78 SHL PUSH1 0x44 DUP3 ADD MSTORE PUSH1 0x64 SWAP1 REVERT JUMPDEST PUSH1 0x40 MLOAD PUSH3 0x461BCD PUSH1 0xE5 SHL DUP2 MSTORE PUSH1 0x4 DUP2 ADD DUP5 SWAP1 MSTORE PUSH1 0xC PUSH1 0x24 DUP3 ADD MSTORE PUSH12 0x139BDD081C995CDBDB1D9959 PUSH1 0xA2 SHL PUSH1 0x44 DUP3 ADD MSTORE PUSH1 0x64 SWAP1 REVERT JUMPDEST CALLVALUE PUSH2 0xD7 JUMPI PUSH1 0x0 CALLDATASIZE PUSH1 0x3 NOT ADD SLT PUSH2 0xD7 JUMPI PUSH1 0x20 PUSH1 0x40 MLOAD PUSH8 0xDE0B6B3A7640000 DUP2 MSTORE RETURN JUMPDEST CALLVALUE PUSH2 0xD7 JUMPI PUSH1 0x60 CALLDATASIZE PUSH1 0x3 NOT ADD SLT PUSH2 0xD7 JUMPI PUSH1 0x44 CALLDATALOAD PUSH1 0x1 PUSH1 0x1 PUSH1 0xA0 SHL SUB DUP2 AND SWAP1 DUP2 SWAP1 SUB PUSH2 0xD7 JUMPI PUSH1 0x4 CALLDATALOAD PUSH1 0x0 MSTORE PUSH1 0x2 PUSH1 0x20 MSTORE PUSH1 0x40 PUSH1 0x0 KECCAK256 PUSH1 0x24 CALLDATALOAD PUSH1 0x0 MSTORE PUSH1 0x20 MSTORE PUSH1 0x40 PUSH1 0x0 KECCAK256 SWAP1 PUSH1 0x0 MSTORE PUSH1 0x20 MSTORE PUSH1 0x20 PUSH1 0x40 PUSH1 0x0 KECCAK256 SLOAD PUSH1 0x40 MLOAD SWAP1 DUP2 MSTORE RETURN JUMPDEST CALLVALUE PUSH2 0xD7 JUMPI PUSH1 0x40 CALLDATASIZE PUSH1 0x3 NOT ADD SLT PUSH2 0xD7 JUMPI PUSH1 0x4 CALLDATALOAD PUSH1 0x24 CALLDATALOAD PUSH1 0x1 PUSH1 0x1 PUSH1 0xA0 SHL SUB DUP2 AND SWAP1 DUP2 SWAP1 SUB PUSH2 0xD7 JUMPI DUP2 PUSH1 0x0 MSTORE PUSH1 0x1 PUSH1 0x20 PUSH1 0x1 DUP2 MSTORE PUSH1 0x3 PUSH1 0x40 PUSH1 0x0 KECCAK256 ADD SLOAD PUSH2 0xD45 DUP2 PUSH2 0x190C JUMP JUMPDEST SWAP4 PUSH2 0xD53 PUSH1 0x40 MLOAD SWAP6 DUP7 PUSH2 0x17B1 JUMP JUMPDEST DUP2 DUP6 MSTORE PUSH2 0xD5F DUP3 PUSH2 0x190C JUMP JUMPDEST DUP6 DUP5 ADD SWAP7 SWAP1 PUSH1 0x1F NOT ADD CALLDATASIZE DUP9 CALLDATACOPY PUSH1 0x0 JUMPDEST DUP4 DUP2 LT PUSH2 0xDB1 JUMPI POP POP POP POP PUSH1 0x40 MLOAD SWAP3 DUP2 DUP5 ADD SWAP1 DUP3 DUP6 MSTORE MLOAD DUP1 SWAP2 MSTORE PUSH1 0x40 DUP5 ADD SWAP5 SWAP2 PUSH1 0x0 JUMPDEST DUP3 DUP2 LT PUSH2 0xD9E JUMPI DUP6 DUP8 SUB DUP7 RETURN JUMPDEST DUP4 MLOAD DUP8 MSTORE SWAP6 DUP2 ADD SWAP6 SWAP3 DUP2 ADD SWAP3 DUP5 ADD PUSH2 0xD91 JUMP JUMPDEST SWAP5 DUP1 SWAP8 SWAP6 DUP3 PUSH1 0x0 SWAP9 SWAP7 SWAP9 MSTORE PUSH1 0x2 DUP9 MSTORE PUSH1 0x40 PUSH1 0x0 KECCAK256 DUP2 PUSH1 0x0 MSTORE DUP9 MSTORE PUSH1 0x40 PUSH1 0x0 KECCAK256 DUP5 PUSH1 0x0 MSTORE DUP9 MSTORE PUSH1 0x40 PUSH1 0x0 KECCAK256 SLOAD PUSH2 0xDE6 DUP3 DUP9 PUSH2 0x1923 JUMP JUMPDEST MSTORE ADD SWAP7 SWAP5 SWAP7 SWAP6 SWAP4 SWAP6 PUSH2 0xD6E JUMP JUMPDEST PUSH1 0xA0 CALLDATASIZE PUSH1 0x3 NOT ADD SLT PUSH2 0xD7 JUMPI PUSH1 0x4 CALLDATALOAD PUSH1 0x1 PUSH1 0x1 PUSH1 0x40 SHL SUB DUP2 GT PUSH2 0xD7 JUMPI PUSH2 0xE1E SWAP1 CALLDATASIZE SWAP1 PUSH1 0x4 ADD PUSH2 0x1599 JUMP JUMPDEST SWAP1 PUSH1 0x24 CALLDATALOAD PUSH1 0x1 PUSH1 0x1 PUSH1 0x40 SHL SUB DUP2 GT PUSH2 0xD7 JUMPI PUSH2 0xE3E SWAP1 CALLDATASIZE SWAP1 PUSH1 0x4 ADD PUSH2 0x1599 JUMP JUMPDEST SWAP2 SWAP1 PUSH1 0x1 PUSH1 0x1 PUSH1 0x40 SHL SUB PUSH1 0x44 CALLDATALOAD GT PUSH2 0xD7 JUMPI CALLDATASIZE PUSH1 0x23 PUSH1 0x44 CALLDATALOAD ADD SLT ISZERO PUSH2 0xD7 JUMPI PUSH1 0x1 PUSH1 0x1 PUSH1 0x40 SHL SUB PUSH1 0x44 CALLDATALOAD PUSH1 0x4 ADD CALLDATALOAD GT PUSH2 0xD7 JUMPI CALLDATASIZE PUSH1 0x24 PUSH1 0x44 CALLDATALOAD PUSH1 0x4 ADD CALLDATALOAD PUSH1 0x5 SHL PUSH1 0x44 CALLDATALOAD ADD ADD GT PUSH2 0xD7 JUMPI PUSH1 0x84 CALLDATALOAD CALLVALUE LT PUSH2 0x153A JUMPI PUSH1 0x2 PUSH1 0x44 CALLDATALOAD PUSH1 0x4 ADD CALLDATALOAD LT PUSH2 0x1500 JUMPI PUSH2 0xEAA PUSH1 0x0 SLOAD PUSH2 0x1877 JUMP JUMPDEST SWAP3 DUP4 PUSH1 0x0 SSTORE DUP4 PUSH1 0x0 MSTORE PUSH1 0x1 PUSH1 0x20 MSTORE PUSH1 0x40 PUSH1 0x0 KECCAK256 DUP5 DUP2 SSTORE PUSH1 0x1 PUSH1 0x1 PUSH1 0x40 SHL SUB DUP7 GT PUSH2 0x622 JUMPI PUSH2 0xEDB PUSH1 0x1 DUP3 ADD SLOAD PUSH2 0x175B JUMP JUMPDEST PUSH1 0x1F DUP2 GT PUSH2 0x14CB JUMPI JUMPDEST POP PUSH1 0x0 DUP7 PUSH1 0x1F DUP2 GT PUSH1 0x1 EQ PUSH2 0x145E JUMPI DUP1 PUSH2 0xF13 SWAP3 PUSH1 0x0 SWAP2 PUSH2 0x1453 JUMPI POP DUP2 PUSH1 0x1 SHL SWAP2 PUSH1 0x0 NOT SWAP1 PUSH1 0x3 SHL SHR NOT AND OR SWAP1 JUMP JUMPDEST PUSH1 0x1 DUP3 ADD SSTORE JUMPDEST PUSH1 0x1 PUSH1 0x1 PUSH1 0x40 SHL SUB DUP3 GT PUSH2 0x622 JUMPI PUSH2 0xF34 PUSH1 0x2 DUP3 ADD SLOAD PUSH2 0x175B JUMP JUMPDEST PUSH1 0x1F DUP2 GT PUSH2 0x141E JUMPI JUMPDEST POP PUSH1 0x0 DUP3 PUSH1 0x1F DUP2 GT PUSH1 0x1 EQ PUSH2 0x13B1 JUMPI DUP1 PUSH2 0xF6C SWAP3 PUSH1 0x0 SWAP2 PUSH2 0x13A6 JUMPI POP DUP2 PUSH1 0x1 SHL SWAP2 PUSH1 0x0 NOT SWAP1 PUSH1 0x3 SHL SHR NOT AND OR SWAP1 JUMP JUMPDEST PUSH1 0x2 DUP3 ADD SSTORE JUMPDEST PUSH1 0x1 PUSH1 0x40 SHL PUSH1 0x44 CALLDATALOAD PUSH1 0x4 ADD CALLDATALOAD GT PUSH2 0x622 JUMPI PUSH1 0x3 DUP2 ADD DUP1 SLOAD PUSH1 0x4 PUSH1 0x44 CALLDATALOAD ADD CALLDATALOAD SWAP2 DUP3 SWAP1 SSTORE SWAP1 DUP2 GT PUSH2 0x1328 JUMPI JUMPDEST POP PUSH1 0x24 PUSH1 0x44 CALLDATALOAD ADD PUSH1 0x3 DUP3 ADD PUSH1 0x0 MSTORE PUSH1 0x20 PUSH1 0x0 KECCAK256 PUSH1 0x0 SWAP2 JUMPDEST PUSH1 0x44 CALLDATALOAD PUSH1 0x4 ADD CALLDATALOAD DUP4 LT PUSH2 0x118C JUMPI POP POP POP PUSH2 0xE10 PUSH1 0x64 CALLDATALOAD DUP2 PUSH1 0x64 CALLDATALOAD MUL DIV DUP2 EQ PUSH1 0x64 CALLDATALOAD ISZERO OR ISZERO PUSH2 0x3B2 JUMPI PUSH2 0xFE9 SWAP1 PUSH1 0x64 CALLDATALOAD MUL TIMESTAMP PUSH2 0x18B0 JUMP JUMPDEST PUSH1 0x4 DUP3 ADD SSTORE PUSH1 0x5 DUP2 ADD DUP1 SLOAD PUSH1 0x1 PUSH1 0x1 PUSH1 0xA8 SHL SUB NOT AND CALLER PUSH1 0xFF PUSH1 0xA0 SHL NOT AND OR SWAP1 SSTORE TIMESTAMP PUSH1 0xA DUP3 ADD SSTORE PUSH1 0x84 CALLDATALOAD PUSH1 0xB DUP3 ADD SSTORE CALLVALUE PUSH1 0x8 DUP3 ADD SSTORE PUSH1 0x0 JUMPDEST PUSH1 0x44 CALLDATALOAD PUSH1 0x4 ADD CALLDATALOAD DUP2 LT PUSH2 0x1142 JUMPI POP SWAP1 PUSH2 0x104E PUSH1 0x4 PUSH2 0x105C SWAP5 SWAP4 ADD SLOAD SWAP5 PUSH1 0x40 MLOAD SWAP8 PUSH1 0xA0 DUP10 MSTORE PUSH1 0xA0 DUP10 ADD SWAP2 PUSH2 0x18EB JUMP JUMPDEST SWAP2 DUP7 DUP4 SUB PUSH1 0x20 DUP9 ADD MSTORE PUSH2 0x18EB JUMP JUMPDEST SWAP1 DUP4 DUP3 SUB PUSH1 0x40 DUP6 ADD MSTORE PUSH1 0x44 CALLDATALOAD PUSH1 0x4 ADD CALLDATALOAD DUP3 MSTORE PUSH1 0x20 DUP3 ADD SWAP2 PUSH1 0x20 PUSH1 0x44 CALLDATALOAD PUSH1 0x4 ADD CALLDATALOAD PUSH1 0x5 SHL DUP3 ADD ADD SWAP3 PUSH1 0x24 PUSH1 0x44 CALLDATALOAD ADD SWAP2 PUSH1 0x0 JUMPDEST PUSH1 0x44 CALLDATALOAD PUSH1 0x4 ADD CALLDATALOAD DUP2 LT PUSH2 0x10D9 JUMPI PUSH1 0x20 DUP8 DUP1 PUSH32 0xE1E1C311BCE995FBE4E072F3A1BAD5AA4DCB6219C91F719C507A07229400A637 DUP12 DUP1 DUP12 DUP12 PUSH1 0x60 DUP4 ADD MSTORE CALLER PUSH1 0x80 DUP4 ADD MSTORE SUB SWAP1 LOG2 PUSH1 0x40 MLOAD SWAP1 DUP2 MSTORE RETURN JUMPDEST SWAP1 SWAP2 SWAP3 SWAP5 PUSH1 0x1F NOT DUP4 DUP3 SUB ADD DUP5 MSTORE DUP6 CALLDATALOAD PUSH1 0x42 NOT PUSH1 0x44 CALLDATALOAD CALLDATASIZE SUB ADD DUP2 SLT ISZERO PUSH2 0xD7 JUMPI PUSH1 0x44 CALLDATALOAD ADD PUSH1 0x1 PUSH1 0x1 PUSH1 0x40 SHL SUB PUSH1 0x24 DUP3 ADD CALLDATALOAD GT PUSH2 0xD7 JUMPI PUSH1 0x24 DUP2 ADD CALLDATALOAD CALLDATASIZE SUB PUSH1 0x44 DUP3 ADD SGT PUSH2 0xD7 JUMPI PUSH1 0x20 PUSH2 0x1136 PUSH1 0x1 SWAP4 DUP4 PUSH1 0x44 PUSH1 0x24 DUP6 SWAP7 ADD CALLDATALOAD SWAP2 ADD PUSH2 0x18EB JUMP JUMPDEST SWAP8 ADD SWAP5 ADD SWAP3 SWAP2 ADD PUSH2 0x108D JUMP JUMPDEST PUSH1 0x9 DUP3 ADD SLOAD SWAP1 PUSH1 0x1 PUSH1 0x40 SHL DUP3 LT ISZERO PUSH2 0x622 JUMPI PUSH2 0x1186 PUSH2 0x116E DUP4 PUSH1 0x1 DUP1 SWAP6 ADD PUSH1 0x9 DUP8 ADD SSTORE PUSH1 0x9 DUP7 ADD PUSH2 0x18BD JUMP JUMPDEST CALLVALUE SWAP1 DUP3 SLOAD SWAP1 PUSH1 0x3 SHL SWAP2 DUP3 SHL SWAP2 PUSH1 0x0 NOT SWAP1 SHL NOT AND OR SWAP1 SSTORE JUMP JUMPDEST ADD PUSH2 0x1020 JUMP JUMPDEST PUSH1 0x44 CALLDATALOAD CALLDATASIZE SUB PUSH1 0x42 NOT ADD DUP2 CALLDATALOAD SLT ISZERO PUSH2 0xD7 JUMPI PUSH1 0x1 PUSH1 0x1 PUSH1 0x40 SHL SUB PUSH1 0x24 DUP3 CALLDATALOAD PUSH1 0x44 CALLDATALOAD ADD ADD CALLDATALOAD GT PUSH2 0xD7 JUMPI PUSH1 0x44 DUP1 CALLDATALOAD DUP3 CALLDATALOAD ADD PUSH1 0x24 DUP2 ADD CALLDATALOAD CALLDATASIZE SUB SWAP2 ADD SGT PUSH2 0xD7 JUMPI PUSH2 0x11D3 DUP3 SLOAD PUSH2 0x175B JUMP JUMPDEST PUSH1 0x1F DUP2 GT PUSH2 0x12ED JUMPI JUMPDEST POP PUSH1 0x0 PUSH1 0x1F PUSH1 0x24 DUP4 CALLDATALOAD PUSH1 0x44 CALLDATALOAD ADD ADD CALLDATALOAD GT PUSH1 0x1 EQ PUSH2 0x124F JUMPI PUSH1 0x20 PUSH1 0x1 SWAP3 PUSH2 0x122E DUP5 SWAP4 PUSH1 0x0 SWAP1 PUSH1 0x24 DUP5 CALLDATALOAD PUSH1 0x44 CALLDATALOAD ADD ADD CALLDATALOAD PUSH2 0x123D JUMPI JUMPDEST POP PUSH1 0x24 DUP4 CALLDATALOAD PUSH1 0x44 CALLDATALOAD ADD ADD CALLDATALOAD SWAP1 DUP2 PUSH1 0x1 SHL SWAP2 PUSH1 0x0 NOT SWAP1 PUSH1 0x3 SHL SHR NOT AND OR SWAP1 JUMP JUMPDEST DUP6 SSTORE JUMPDEST ADD SWAP3 ADD SWAP3 ADD SWAP2 SWAP1 PUSH2 0xFB3 JUMP JUMPDEST PUSH1 0x44 SWAP2 POP DUP4 CALLDATALOAD DUP3 CALLDATALOAD ADD ADD ADD CALLDATALOAD DUP15 PUSH2 0x120F JUMP JUMPDEST DUP3 PUSH1 0x0 MSTORE PUSH1 0x20 PUSH1 0x0 KECCAK256 SWAP1 PUSH1 0x0 JUMPDEST PUSH1 0x44 CALLDATALOAD DUP5 CALLDATALOAD ADD PUSH1 0x24 ADD CALLDATALOAD PUSH1 0x1F NOT AND DUP2 LT PUSH2 0x12CE JUMPI POP PUSH1 0x1 SWAP3 DUP4 SWAP3 PUSH1 0x20 SWAP3 PUSH1 0x44 CALLDATALOAD DUP4 CALLDATALOAD ADD PUSH1 0x24 ADD CALLDATALOAD PUSH1 0x1F NOT DUP2 AND LT PUSH2 0x12A5 JUMPI JUMPDEST POP POP DUP3 PUSH1 0x24 DUP3 CALLDATALOAD PUSH1 0x44 CALLDATALOAD ADD ADD CALLDATALOAD DUP2 SHL ADD DUP6 SSTORE PUSH2 0x1231 JUMP JUMPDEST PUSH1 0x44 PUSH1 0x0 NOT PUSH1 0xF8 PUSH1 0x24 DUP7 CALLDATALOAD DUP5 CALLDATALOAD ADD ADD CALLDATALOAD PUSH1 0x3 SHL AND SHR NOT SWAP2 DUP5 CALLDATALOAD DUP3 CALLDATALOAD ADD ADD ADD CALLDATALOAD AND SWAP1 SSTORE DUP13 DUP1 PUSH2 0x128E JUMP JUMPDEST SWAP1 SWAP2 PUSH1 0x20 PUSH1 0x1 DUP2 SWAP3 PUSH1 0x44 DUP7 DUP9 CALLDATALOAD DUP3 CALLDATALOAD ADD ADD ADD CALLDATALOAD DUP2 SSTORE ADD SWAP4 ADD SWAP2 ADD PUSH2 0x125C JUMP JUMPDEST PUSH1 0x0 DUP4 DUP2 MSTORE PUSH1 0x20 SWAP1 DUP2 SWAP1 KECCAK256 PUSH2 0x1322 SWAP3 PUSH1 0x44 CALLDATALOAD DUP6 CALLDATALOAD ADD PUSH1 0x24 ADD CALLDATALOAD PUSH1 0x1F DUP2 ADD PUSH1 0x5 SHR DUP4 ADD SWAP4 GT PUSH2 0x618 JUMPI PUSH1 0x1F ADD PUSH1 0x5 SHR ADD SWAP1 PUSH2 0x1886 JUMP JUMPDEST DUP10 PUSH2 0x11DC JUMP JUMPDEST PUSH1 0x3 DUP3 ADD PUSH1 0x0 MSTORE PUSH1 0x20 PUSH1 0x0 KECCAK256 SWAP1 PUSH1 0x44 CALLDATALOAD PUSH1 0x4 ADD CALLDATALOAD DUP3 ADD JUMPDEST DUP2 DUP4 ADD DUP2 LT PUSH2 0x134F JUMPI POP POP PUSH2 0xF9C JUMP JUMPDEST DUP1 PUSH2 0x135C PUSH1 0x1 SWAP3 SLOAD PUSH2 0x175B JUMP JUMPDEST DUP1 PUSH2 0x1369 JUMPI JUMPDEST POP ADD PUSH2 0x133F JUMP JUMPDEST PUSH1 0x1F DUP2 GT DUP4 EQ PUSH2 0x137F JUMPI POP PUSH1 0x0 DUP2 SSTORE JUMPDEST DUP11 PUSH2 0x1362 JUMP JUMPDEST PUSH1 0x0 SWAP1 DUP3 DUP3 MSTORE PUSH2 0x139D PUSH1 0x1F PUSH1 0x20 DUP5 KECCAK256 SWAP3 ADD PUSH1 0x5 SHR DUP3 ADD DUP6 DUP4 ADD PUSH2 0x1886 JUMP JUMPDEST DUP2 DUP4 SSTORE SSTORE PUSH2 0x1379 JUMP JUMPDEST SWAP1 POP DUP6 ADD CALLDATALOAD DUP10 PUSH2 0x51C JUMP JUMPDEST POP PUSH1 0x2 DUP3 ADD PUSH1 0x0 MSTORE PUSH1 0x20 PUSH1 0x0 KECCAK256 SWAP1 PUSH1 0x0 JUMPDEST PUSH1 0x1F NOT DUP6 AND DUP2 LT PUSH2 0x1406 JUMPI POP DUP4 PUSH1 0x1F NOT DUP2 AND LT PUSH2 0x13EC JUMPI JUMPDEST POP POP PUSH1 0x1 DUP3 DUP2 SHL ADD PUSH1 0x2 DUP3 ADD SSTORE PUSH2 0xF72 JUMP JUMPDEST DUP5 ADD CALLDATALOAD PUSH1 0x0 NOT PUSH1 0x3 DUP6 SWAP1 SHL PUSH1 0xF8 AND SHR NOT AND SWAP1 SSTORE DUP7 DUP1 PUSH2 0x13DA JUMP JUMPDEST SWAP1 SWAP2 PUSH1 0x20 PUSH1 0x1 DUP2 SWAP3 DUP6 DUP10 ADD CALLDATALOAD DUP2 SSTORE ADD SWAP4 ADD SWAP2 ADD PUSH2 0x13C2 JUMP JUMPDEST PUSH2 0x144D SWAP1 PUSH1 0x2 DUP4 ADD PUSH1 0x0 MSTORE PUSH1 0x20 PUSH1 0x0 KECCAK256 PUSH1 0x1F DUP6 ADD PUSH1 0x5 SHR DUP2 ADD SWAP2 PUSH1 0x20 DUP7 LT PUSH2 0x618 JUMPI PUSH1 0x1F ADD PUSH1 0x5 SHR ADD SWAP1 PUSH2 0x1886 JUMP JUMPDEST DUP7 PUSH2 0xF3D JUMP JUMPDEST SWAP1 POP DUP7 ADD CALLDATALOAD DUP10 PUSH2 0x51C JUMP JUMPDEST POP PUSH1 0x1 DUP3 ADD PUSH1 0x0 MSTORE PUSH1 0x20 PUSH1 0x0 KECCAK256 SWAP1 PUSH1 0x0 JUMPDEST PUSH1 0x1F NOT DUP10 AND DUP2 LT PUSH2 0x14B3 JUMPI POP DUP8 PUSH1 0x1F NOT DUP2 AND LT PUSH2 0x1499 JUMPI JUMPDEST POP POP PUSH1 0x1 DUP7 DUP2 SHL ADD PUSH1 0x1 DUP3 ADD SSTORE PUSH2 0xF19 JUMP JUMPDEST DUP6 ADD CALLDATALOAD PUSH1 0x0 NOT PUSH1 0x3 DUP10 SWAP1 SHL PUSH1 0xF8 AND SHR NOT AND SWAP1 SSTORE DUP7 DUP1 PUSH2 0x1487 JUMP JUMPDEST SWAP1 SWAP2 PUSH1 0x20 PUSH1 0x1 DUP2 SWAP3 DUP6 DUP11 ADD CALLDATALOAD DUP2 SSTORE ADD SWAP4 ADD SWAP2 ADD PUSH2 0x146F JUMP JUMPDEST PUSH2 0x14FA SWAP1 PUSH1 0x1 DUP4 ADD PUSH1 0x0 MSTORE PUSH1 0x20 PUSH1 0x0 KECCAK256 PUSH1 0x1F DUP10 ADD PUSH1 0x5 SHR DUP2 ADD SWAP2 PUSH1 0x20 DUP11 LT PUSH2 0x618 JUMPI PUSH1 0x1F ADD PUSH1 0x5 SHR ADD SWAP1 PUSH2 0x1886 JUMP JUMPDEST DUP7 PUSH2 0xEE4 JUMP JUMPDEST PUSH1 0x40 MLOAD PUSH3 0x461BCD PUSH1 0xE5 SHL DUP2 MSTORE PUSH1 0x20 PUSH1 0x4 DUP3 ADD MSTORE PUSH1 0x12 PUSH1 0x24 DUP3 ADD MSTORE PUSH18 0x4174206C656173742032206F7074696F6E73 PUSH1 0x70 SHL PUSH1 0x44 DUP3 ADD MSTORE PUSH1 0x64 SWAP1 REVERT JUMPDEST PUSH1 0x40 MLOAD PUSH3 0x461BCD PUSH1 0xE5 SHL DUP2 MSTORE PUSH1 0x20 PUSH1 0x4 DUP3 ADD MSTORE PUSH1 0x1E PUSH1 0x24 DUP3 ADD MSTORE PUSH32 0x4D7573742070726F7669646520696E697469616C206C69717569646974790000 PUSH1 0x44 DUP3 ADD MSTORE PUSH1 0x64 SWAP1 REVERT JUMPDEST CALLVALUE PUSH2 0xD7 JUMPI PUSH1 0x0 CALLDATASIZE PUSH1 0x3 NOT ADD SLT PUSH2 0xD7 JUMPI DUP1 PUSH1 0x2 PUSH1 0x20 SWAP3 MSTORE RETURN JUMPDEST SWAP2 DUP2 PUSH1 0x1F DUP5 ADD SLT ISZERO PUSH2 0xD7 JUMPI DUP3 CALLDATALOAD SWAP2 PUSH1 0x1 PUSH1 0x1 PUSH1 0x40 SHL SUB DUP4 GT PUSH2 0xD7 JUMPI PUSH1 0x20 DUP4 DUP2 DUP7 ADD SWAP6 ADD ADD GT PUSH2 0xD7 JUMPI JUMP JUMPDEST SWAP2 SWAP1 DUP3 MLOAD SWAP3 DUP4 DUP3 MSTORE PUSH1 0x0 JUMPDEST DUP5 DUP2 LT PUSH2 0x15F2 JUMPI POP POP DUP3 PUSH1 0x0 PUSH1 0x20 DUP1 SWAP5 SWAP6 DUP5 ADD ADD MSTORE PUSH1 0x1F DUP1 NOT SWAP2 ADD AND ADD ADD SWAP1 JUMP JUMPDEST PUSH1 0x20 DUP2 DUP4 ADD DUP2 ADD MLOAD DUP5 DUP4 ADD DUP3 ADD MSTORE ADD PUSH2 0x15D1 JUMP JUMPDEST SWAP1 PUSH1 0x3 DUP3 LT ISZERO PUSH2 0x402 JUMPI MSTORE JUMP JUMPDEST SWAP1 PUSH2 0x1A0 SWAP2 DUP1 MLOAD DUP3 MSTORE PUSH2 0x1649 PUSH2 0x1637 PUSH1 0x20 SWAP5 DUP6 DUP5 ADD MLOAD SWAP1 DUP1 DUP8 DUP8 ADD MSTORE DUP6 ADD SWAP1 PUSH2 0x15C6 JUMP JUMPDEST PUSH1 0x40 DUP4 ADD MLOAD DUP5 DUP3 SUB PUSH1 0x40 DUP7 ADD MSTORE PUSH2 0x15C6 JUMP JUMPDEST PUSH1 0x60 DUP3 ADD MLOAD DUP4 DUP3 SUB PUSH1 0x60 DUP6 ADD MSTORE DUP1 MLOAD DUP1 DUP4 MSTORE DUP6 DUP4 ADD SWAP3 DUP7 DUP1 DUP4 PUSH1 0x5 SHL DUP4 ADD ADD SWAP4 ADD SWAP4 PUSH1 0x0 SWAP2 JUMPDEST DUP9 DUP5 DUP5 LT PUSH2 0x1730 JUMPI POP POP POP POP PUSH1 0x80 DUP5 DUP2 ADD MLOAD SWAP1 DUP7 ADD MSTORE POP PUSH1 0xA0 DUP1 DUP5 ADD MLOAD PUSH1 0x1 PUSH1 0x1 PUSH1 0xA0 SHL SUB AND SWAP1 DUP6 ADD MSTORE PUSH1 0xC0 DUP1 DUP5 ADD MLOAD PUSH2 0x16CE SWAP4 POP PUSH2 0x16B0 SWAP2 DUP7 ADD SWAP1 PUSH2 0x1606 JUMP JUMPDEST PUSH1 0xE0 DUP4 ADD MLOAD PUSH1 0xE0 DUP6 ADD MSTORE PUSH2 0x100 DUP1 DUP5 ADD MLOAD SWAP1 DUP6 DUP4 SUB SWAP1 DUP7 ADD MSTORE PUSH2 0x15C6 JUMP JUMPDEST SWAP3 PUSH2 0x120 DUP1 DUP4 ADD MLOAD SWAP1 DUP5 ADD MSTORE PUSH2 0x140 SWAP4 DUP5 DUP4 ADD MLOAD SWAP5 DUP5 DUP3 SUB SWAP1 DUP6 ADD MSTORE DUP2 DUP1 DUP7 MLOAD SWAP3 DUP4 DUP2 MSTORE ADD SWAP6 ADD SWAP2 PUSH1 0x0 JUMPDEST DUP3 DUP2 LT PUSH2 0x171C JUMPI POP POP POP POP PUSH2 0x160 DUP1 DUP3 ADD MLOAD SWAP1 DUP4 ADD MSTORE PUSH2 0x180 DUP1 SWAP2 ADD MLOAD SWAP2 ADD MSTORE SWAP1 JUMP JUMPDEST DUP4 MLOAD DUP8 MSTORE SWAP6 DUP2 ADD SWAP6 SWAP3 DUP2 ADD SWAP3 PUSH1 0x1 ADD PUSH2 0x16F9 JUMP JUMPDEST DUP1 PUSH2 0x174B PUSH1 0x1 SWAP4 SWAP5 SWAP6 SWAP7 SWAP8 PUSH1 0x1F NOT DUP7 DUP3 SUB ADD DUP8 MSTORE DUP10 MLOAD PUSH2 0x15C6 JUMP JUMPDEST SWAP8 ADD SWAP4 ADD SWAP4 ADD SWAP2 SWAP5 SWAP4 SWAP3 SWAP1 PUSH2 0x166F JUMP JUMPDEST SWAP1 PUSH1 0x1 DUP3 DUP2 SHR SWAP3 AND DUP1 ISZERO PUSH2 0x178B JUMPI JUMPDEST PUSH1 0x20 DUP4 LT EQ PUSH2 0x1775 JUMPI JUMP JUMPDEST PUSH4 0x4E487B71 PUSH1 0xE0 SHL PUSH1 0x0 MSTORE PUSH1 0x22 PUSH1 0x4 MSTORE PUSH1 0x24 PUSH1 0x0 REVERT JUMPDEST SWAP2 PUSH1 0x7F AND SWAP2 PUSH2 0x176A JUMP JUMPDEST PUSH2 0x1A0 DUP2 ADD SWAP1 DUP2 LT PUSH1 0x1 PUSH1 0x1 PUSH1 0x40 SHL SUB DUP3 GT OR PUSH2 0x622 JUMPI PUSH1 0x40 MSTORE JUMP JUMPDEST SWAP1 PUSH1 0x1F DUP1 NOT SWAP2 ADD AND DUP2 ADD SWAP1 DUP2 LT PUSH1 0x1 PUSH1 0x1 PUSH1 0x40 SHL SUB DUP3 GT OR PUSH2 0x622 JUMPI PUSH1 0x40 MSTORE JUMP JUMPDEST SWAP1 PUSH1 0x40 MLOAD SWAP2 DUP3 PUSH1 0x0 DUP3 SLOAD PUSH2 0x17E5 DUP2 PUSH2 0x175B JUMP JUMPDEST SWAP1 DUP2 DUP5 MSTORE PUSH1 0x20 SWAP5 PUSH1 0x1 SWAP2 PUSH1 0x1 DUP2 AND SWAP1 DUP2 PUSH1 0x0 EQ PUSH2 0x1855 JUMPI POP PUSH1 0x1 EQ PUSH2 0x1816 JUMPI JUMPDEST POP POP POP PUSH2 0x1814 SWAP3 POP SUB DUP4 PUSH2 0x17B1 JUMP JUMPDEST JUMP JUMPDEST PUSH1 0x0 SWAP1 DUP2 MSTORE DUP6 DUP2 KECCAK256 SWAP6 SWAP4 POP SWAP2 SWAP1 JUMPDEST DUP2 DUP4 LT PUSH2 0x183D JUMPI POP POP PUSH2 0x1814 SWAP4 POP DUP3 ADD ADD CODESIZE DUP1 DUP1 PUSH2 0x1805 JUMP JUMPDEST DUP6 SLOAD DUP9 DUP5 ADD DUP6 ADD MSTORE SWAP5 DUP6 ADD SWAP5 DUP8 SWAP5 POP SWAP2 DUP4 ADD SWAP2 PUSH2 0x1824 JUMP JUMPDEST SWAP3 POP POP POP PUSH2 0x1814 SWAP5 SWAP3 POP PUSH1 0xFF NOT AND DUP3 DUP5 ADD MSTORE ISZERO ISZERO PUSH1 0x5 SHL DUP3 ADD ADD CODESIZE DUP1 DUP1 PUSH2 0x1805 JUMP JUMPDEST PUSH1 0x0 NOT DUP2 EQ PUSH2 0x3B2 JUMPI PUSH1 0x1 ADD SWAP1 JUMP JUMPDEST DUP2 DUP2 LT PUSH2 0x1891 JUMPI POP POP JUMP JUMPDEST PUSH1 0x0 DUP2 SSTORE PUSH1 0x1 ADD PUSH2 0x1886 JUMP JUMPDEST DUP2 DUP2 MUL SWAP3 SWAP2 DUP2 ISZERO SWAP2 DUP5 DIV EQ OR ISZERO PUSH2 0x3B2 JUMPI JUMP JUMPDEST SWAP2 SWAP1 DUP3 ADD DUP1 SWAP3 GT PUSH2 0x3B2 JUMPI JUMP JUMPDEST DUP1 SLOAD DUP3 LT ISZERO PUSH2 0x18D5 JUMPI PUSH1 0x0 MSTORE PUSH1 0x20 PUSH1 0x0 KECCAK256 ADD SWAP1 PUSH1 0x0 SWAP1 JUMP JUMPDEST PUSH4 0x4E487B71 PUSH1 0xE0 SHL PUSH1 0x0 MSTORE PUSH1 0x32 PUSH1 0x4 MSTORE PUSH1 0x24 PUSH1 0x0 REVERT JUMPDEST SWAP1 DUP1 PUSH1 0x20 SWAP4 SWAP3 DUP2 DUP5 MSTORE DUP5 DUP5 ADD CALLDATACOPY PUSH1 0x0 DUP3 DUP3 ADD DUP5 ADD MSTORE PUSH1 0x1F ADD PUSH1 0x1F NOT AND ADD ADD SWAP1 JUMP JUMPDEST PUSH1 0x1 PUSH1 0x1 PUSH1 0x40 SHL SUB DUP2 GT PUSH2 0x622 JUMPI PUSH1 0x5 SHL PUSH1 0x20 ADD SWAP1 JUMP JUMPDEST DUP1 MLOAD DUP3 LT ISZERO PUSH2 0x18D5 JUMPI PUSH1 0x20 SWAP2 PUSH1 0x5 SHL ADD ADD SWAP1 JUMP JUMPDEST DUP2 ISZERO PUSH2 0x1941 JUMPI DIV SWAP1 JUMP JUMPDEST PUSH4 0x4E487B71 PUSH1 0xE0 SHL PUSH1 0x0 MSTORE PUSH1 0x12 PUSH1 0x4 MSTORE PUSH1 0x24 PUSH1 0x0 REVERT JUMPDEST SWAP2 SWAP1 DUP3 SUB SWAP2 DUP3 GT PUSH2 0x3B2 JUMPI JUMP JUMPDEST PUSH1 0x40 MLOAD SWAP1 PUSH2 0x1971 DUP3 PUSH2 0x1795 JUMP JUMPDEST DUP2 PUSH2 0x180 PUSH1 0x0 SWAP2 DUP3 DUP2 MSTORE PUSH1 0x60 DUP1 PUSH1 0x20 DUP4 ADD MSTORE DUP1 PUSH1 0x40 DUP4 ADD MSTORE DUP1 DUP1 DUP4 ADD MSTORE DUP4 PUSH1 0x80 DUP4 ADD MSTORE DUP4 PUSH1 0xA0 DUP4 ADD MSTORE DUP4 PUSH1 0xC0 DUP4 ADD MSTORE DUP4 PUSH1 0xE0 DUP4 ADD MSTORE DUP1 PUSH2 0x100 DUP4 ADD MSTORE DUP4 PUSH2 0x120 DUP4 ADD MSTORE PUSH2 0x140 DUP3 ADD MSTORE DUP3 PUSH2 0x160 DUP3 ADD MSTORE ADD MSTORE JUMP JUMPDEST SWAP1 PUSH1 0x40 MLOAD PUSH2 0x19D2 DUP2 PUSH2 0x1795 JUMP JUMPDEST DUP1 SWAP3 DUP1 SLOAD DUP3 MSTORE PUSH1 0x1 PUSH2 0x19E6 PUSH1 0x1 DUP4 ADD PUSH2 0x17D2 JUMP JUMPDEST SWAP1 PUSH1 0x20 SWAP2 DUP3 DUP6 ADD MSTORE PUSH2 0x19FA PUSH1 0x2 DUP5 ADD PUSH2 0x17D2 JUMP JUMPDEST PUSH1 0x40 DUP6 ADD MSTORE PUSH1 0x3 DUP4 ADD SWAP1 DUP2 SLOAD PUSH2 0x1A0F DUP2 PUSH2 0x190C JUMP JUMPDEST SWAP1 PUSH2 0x1A1D PUSH1 0x40 MLOAD SWAP3 DUP4 PUSH2 0x17B1 JUMP JUMPDEST DUP1 DUP3 MSTORE DUP5 DUP3 ADD PUSH1 0x0 SWAP5 DUP6 MSTORE DUP6 DUP6 KECCAK256 DUP5 DUP7 SWAP3 JUMPDEST DUP9 DUP6 DUP6 LT PUSH2 0x1B16 JUMPI POP POP POP POP POP POP PUSH1 0x60 DUP7 ADD MSTORE PUSH1 0x4 DUP5 ADD SLOAD PUSH1 0x80 DUP7 ADD MSTORE PUSH1 0xFF PUSH1 0x5 DUP6 ADD SLOAD PUSH1 0x1 DUP1 PUSH1 0xA0 SHL SUB DUP2 AND PUSH1 0xA0 DUP9 ADD MSTORE PUSH1 0xA0 SHR AND PUSH1 0x3 DUP2 LT ISZERO PUSH2 0x1B02 JUMPI PUSH1 0xC0 DUP7 ADD MSTORE PUSH1 0x6 DUP5 ADD SLOAD PUSH1 0xE0 DUP7 ADD MSTORE SWAP1 PUSH2 0x1A8A PUSH1 0x7 DUP6 ADD PUSH2 0x17D2 JUMP JUMPDEST PUSH2 0x100 DUP7 ADD MSTORE PUSH1 0x8 DUP5 ADD SLOAD PUSH2 0x120 DUP7 ADD MSTORE PUSH1 0x9 DUP5 ADD SWAP2 PUSH1 0x40 MLOAD DUP1 SWAP5 DUP1 DUP6 SLOAD SWAP3 DUP4 DUP2 MSTORE ADD SWAP5 DUP5 MSTORE DUP1 DUP5 KECCAK256 SWAP4 SWAP1 JUMPDEST DUP3 DUP3 LT PUSH2 0x1AED JUMPI POP POP POP POP POP SWAP2 DUP2 PUSH2 0x1AD5 PUSH1 0xB SWAP4 PUSH2 0x180 SWAP6 SUB DUP3 PUSH2 0x17B1 JUMP JUMPDEST PUSH2 0x140 DUP6 ADD MSTORE PUSH1 0xA DUP2 ADD SLOAD PUSH2 0x160 DUP6 ADD MSTORE ADD SLOAD SWAP2 ADD MSTORE JUMP JUMPDEST DUP5 SLOAD DUP7 MSTORE SWAP5 DUP6 ADD SWAP5 SWAP4 DUP4 ADD SWAP4 SWAP1 DUP4 ADD SWAP1 PUSH2 0x1AB6 JUMP JUMPDEST PUSH4 0x4E487B71 PUSH1 0xE0 SHL DUP4 MSTORE PUSH1 0x21 PUSH1 0x4 MSTORE PUSH1 0x24 DUP4 REVERT JUMPDEST DUP3 SWAP2 PUSH2 0x1B21 DUP6 PUSH2 0x17D2 JUMP JUMPDEST DUP2 MSTORE ADD SWAP3 ADD SWAP3 ADD SWAP2 SWAP1 DUP6 SWAP1 PUSH2 0x1A2F JUMP JUMPDEST ISZERO PUSH2 0x1B38 JUMPI JUMP JUMPDEST PUSH1 0x40 MLOAD PUSH3 0x461BCD PUSH1 0xE5 SHL DUP2 MSTORE PUSH1 0x20 PUSH1 0x4 DUP3 ADD MSTORE PUSH1 0x8 PUSH1 0x24 DUP3 ADD MSTORE PUSH8 0x2737BA1037B832B7 PUSH1 0xC1 SHL PUSH1 0x44 DUP3 ADD MSTORE PUSH1 0x64 SWAP1 REVERT JUMPDEST ISZERO PUSH2 0x1B6F JUMPI JUMP JUMPDEST PUSH1 0x40 MLOAD PUSH3 0x461BCD PUSH1 0xE5 SHL DUP2 MSTORE PUSH1 0x20 PUSH1 0x4 DUP3 ADD MSTORE PUSH1 0xD PUSH1 0x24 DUP3 ADD MSTORE PUSH13 0x92DCECC2D8D2C840D2DCC8CAF PUSH1 0x9B SHL PUSH1 0x44 DUP3 ADD MSTORE PUSH1 0x64 SWAP1 REVERT INVALID LOG2 PUSH5 0x6970667358 0x22 SLT KECCAK256 SUB SAR SWAP15 0xAB 0xE0 0xC5 PREVRANDAO 0xDA SWAP7 0x4B CALLVALUE PUSH18 0x4B44C448864263E0FF73562E40A333E76EF7 PUSH20 0x8464736F6C634300081800330000000000000000 "},"methodIdentifiers":{"PRECISION()":"aaf5eb68","PROTOCOL_FEE()":"0b4501fd","aiResolve(uint256,uint256,string,uint256)":"cf697adb","aiResolver()":"e354ea78","buyShares(uint256,uint256)":"beebc5da","claimReward(uint256)":"ae169a50","createMarket(string,string,string[],uint256,uint256)":"569c9e70","getAllMarkets()":"b0772d0b","getMarket(uint256)":"eb44fdd3","getUserShares(uint256,address)":"835dc40b","marketCount()":"ec979082","markets(uint256)":"b1283e77","sellShares(uint256,uint256,uint256)":"d67c6872","shares(uint256,uint256,address)":"85322672"}}}}}