{"contracts/ReputationNFT.sol":{"ReputationNFT":{"abi":[{"inputs":[],"stateMutability":"nonpayable","type":"constructor"},{"inputs":[{"internalType":"address","name":"sender","type":"address"},{"internalType":"uint256","name":"tokenId","type":"uint256"},{"internalType":"address","name":"owner","type":"address"}],"name":"ERC721IncorrectOwner","type":"error"},{"inputs":[{"internalType":"address","name":"operator","type":"address"},{"internalType":"uint256","name":"tokenId","type":"uint256"}],"name":"ERC721InsufficientApproval","type":"error"},{"inputs":[{"internalType":"address","name":"approver","type":"address"}],"name":"ERC721InvalidApprover","type":"error"},{"inputs":[{"internalType":"address","name":"operator","type":"address"}],"name":"ERC721InvalidOperator","type":"error"},{"inputs":[{"internalType":"address","name":"owner","type":"address"}],"name":"ERC721InvalidOwner","type":"error"},{"inputs":[{"internalType":"address","name":"receiver","type":"address"}],"name":"ERC721InvalidReceiver","type":"error"},{"inputs":[{"internalType":"address","name":"sender","type":"address"}],"name":"ERC721InvalidSender","type":"error"},{"inputs":[{"internalType":"uint256","name":"tokenId","type":"uint256"}],"name":"ERC721NonexistentToken","type":"error"},{"inputs":[{"internalType":"address","name":"owner","type":"address"}],"name":"OwnableInvalidOwner","type":"error"},{"inputs":[{"internalType":"address","name":"account","type":"address"}],"name":"OwnableUnauthorizedAccount","type":"error"},{"anonymous":false,"inputs":[{"indexed":true,"internalType":"address","name":"owner","type":"address"},{"indexed":true,"internalType":"address","name":"approved","type":"address"},{"indexed":true,"internalType":"uint256","name":"tokenId","type":"uint256"}],"name":"Approval","type":"event"},{"anonymous":false,"inputs":[{"indexed":true,"internalType":"address","name":"owner","type":"address"},{"indexed":true,"internalType":"address","name":"operator","type":"address"},{"indexed":false,"internalType":"bool","name":"approved","type":"bool"}],"name":"ApprovalForAll","type":"event"},{"anonymous":false,"inputs":[{"indexed":true,"internalType":"address","name":"previousOwner","type":"address"},{"indexed":true,"internalType":"address","name":"newOwner","type":"address"}],"name":"OwnershipTransferred","type":"event"},{"anonymous":false,"inputs":[{"indexed":true,"internalType":"address","name":"user","type":"address"},{"indexed":false,"internalType":"uint256","name":"tokenId","type":"uint256"},{"indexed":false,"internalType":"string","name":"category","type":"string"},{"indexed":false,"internalType":"uint256","name":"points","type":"uint256"}],"name":"ReputationAdded","type":"event"},{"anonymous":false,"inputs":[{"indexed":true,"internalType":"address","name":"from","type":"address"},{"indexed":true,"internalType":"address","name":"to","type":"address"},{"indexed":true,"internalType":"uint256","name":"tokenId","type":"uint256"}],"name":"Transfer","type":"event"},{"inputs":[{"internalType":"address","name":"user","type":"address"},{"internalType":"string","name":"category","type":"string"},{"internalType":"uint256","name":"points","type":"uint256"}],"name":"addReputation","outputs":[],"stateMutability":"nonpayable","type":"function"},{"inputs":[{"internalType":"address","name":"to","type":"address"},{"internalType":"uint256","name":"tokenId","type":"uint256"}],"name":"approve","outputs":[],"stateMutability":"nonpayable","type":"function"},{"inputs":[{"internalType":"address","name":"owner","type":"address"}],"name":"balanceOf","outputs":[{"internalType":"uint256","name":"","type":"uint256"}],"stateMutability":"view","type":"function"},{"inputs":[{"internalType":"uint256","name":"","type":"uint256"},{"internalType":"string","name":"","type":"string"}],"name":"categoryReputation","outputs":[{"internalType":"uint256","name":"","type":"uint256"}],"stateMutability":"view","type":"function"},{"inputs":[{"internalType":"uint256","name":"tokenId","type":"uint256"}],"name":"getApproved","outputs":[{"internalType":"address","name":"","type":"address"}],"stateMutability":"view","type":"function"},{"inputs":[{"internalType":"address","name":"user","type":"address"},{"internalType":"string","name":"category","type":"string"}],"name":"getCategoryReputation","outputs":[{"internalType":"uint256","name":"","type":"uint256"}],"stateMutability":"view","type":"function"},{"inputs":[{"internalType":"address","name":"owner","type":"address"},{"internalType":"address","name":"operator","type":"address"}],"name":"isApprovedForAll","outputs":[{"internalType":"bool","name":"","type":"bool"}],"stateMutability":"view","type":"function"},{"inputs":[],"name":"name","outputs":[{"internalType":"string","name":"","type":"string"}],"stateMutability":"view","type":"function"},{"inputs":[],"name":"nextTokenId","outputs":[{"internalType":"uint256","name":"","type":"uint256"}],"stateMutability":"view","type":"function"},{"inputs":[],"name":"owner","outputs":[{"internalType":"address","name":"","type":"address"}],"stateMutability":"view","type":"function"},{"inputs":[{"internalType":"uint256","name":"tokenId","type":"uint256"}],"name":"ownerOf","outputs":[{"internalType":"address","name":"","type":"address"}],"stateMutability":"view","type":"function"},{"inputs":[],"name":"predictionMarket","outputs":[{"internalType":"address","name":"","type":"address"}],"stateMutability":"view","type":"function"},{"inputs":[],"name":"renounceOwnership","outputs":[],"stateMutability":"nonpayable","type":"function"},{"inputs":[{"internalType":"address","name":"from","type":"address"},{"internalType":"address","name":"to","type":"address"},{"internalType":"uint256","name":"tokenId","type":"uint256"}],"name":"safeTransferFrom","outputs":[],"stateMutability":"nonpayable","type":"function"},{"inputs":[{"internalType":"address","name":"from","type":"address"},{"internalType":"address","name":"to","type":"address"},{"internalType":"uint256","name":"tokenId","type":"uint256"},{"internalType":"bytes","name":"data","type":"bytes"}],"name":"safeTransferFrom","outputs":[],"stateMutability":"nonpayable","type":"function"},{"inputs":[{"internalType":"address","name":"operator","type":"address"},{"internalType":"bool","name":"approved","type":"bool"}],"name":"setApprovalForAll","outputs":[],"stateMutability":"nonpayable","type":"function"},{"inputs":[{"internalType":"address","name":"_market","type":"address"}],"name":"setPredictionMarket","outputs":[],"stateMutability":"nonpayable","type":"function"},{"inputs":[{"internalType":"bytes4","name":"interfaceId","type":"bytes4"}],"name":"supportsInterface","outputs":[{"internalType":"bool","name":"","type":"bool"}],"stateMutability":"view","type":"function"},{"inputs":[],"name":"symbol","outputs":[{"internalType":"string","name":"","type":"string"}],"stateMutability":"view","type":"function"},{"inputs":[{"internalType":"uint256","name":"tokenId","type":"uint256"}],"name":"tokenURI","outputs":[{"internalType":"string","name":"","type":"string"}],"stateMutability":"view","type":"function"},{"inputs":[{"internalType":"address","name":"from","type":"address"},{"internalType":"address","name":"to","type":"address"},{"internalType":"uint256","name":"tokenId","type":"uint256"}],"name":"transferFrom","outputs":[],"stateMutability":"nonpayable","type":"function"},{"inputs":[{"internalType":"address","name":"newOwner","type":"address"}],"name":"transferOwnership","outputs":[],"stateMutability":"nonpayable","type":"function"},{"inputs":[{"internalType":"address","name":"","type":"address"}],"name":"userToToken","outputs":[{"internalType":"uint256","name":"","type":"uint256"}],"stateMutability":"view","type":"function"}],"evm":{"bytecode":{"linkReferences":{},"object":"60803462000383576001600160401b0390604090808201838111828210176200036d578252601281526020917127b930b1b632ac102932b83aba30ba34b7b760711b83830152805193818501858110828211176200036d578252600385526227ac2960e91b8486015282518181116200036d576000948554916001958684811c9416801562000362575b838510146200034e578190601f94858111620002fb575b508390858311600114620002975789926200028b575b5050600019600383901b1c191690861b1786555b8651928311620002775784548581811c911680156200026c575b82821014620002585782811162000210575b5080918311600114620001a75750849582939495926200019b575b5050600019600383901b1c191690831b1782555b3315620001845760068054336001600160a01b03198216811790925591519390916001600160a01b0316907f8be0079c531659141344cd1fd0a4f28419497f9722a3daafe3b4186f6b6457e09080a360075561129e9081620003898239f35b51631e4fbdf760e01b815260048101839052602490fd5b01519050388062000111565b90601f198316968587528287209287905b898210620001f85750508386979896959610620001de575b505050811b01825562000125565b015160001960f88460031b161c19169055388080620001d0565b808885968294968601518155019501930190620001b8565b8587528187208380860160051c8201928487106200024e575b0160051c019086905b82811062000242575050620000f6565b88815501869062000232565b9250819262000229565b634e487b7160e01b87526022600452602487fd5b90607f1690620000e4565b634e487b7160e01b86526041600452602486fd5b015190503880620000b6565b898052848a208994509190601f1984168b5b87828210620002e45750508411620002ca575b505050811b018655620000ca565b015160001960f88460031b161c19169055388080620002bc565b8385015186558c97909501949384019301620002a9565b9091508880528389208580850160051c82019286861062000344575b918a91869594930160051c01915b82811062000335575050620000a0565b8b81558594508a910162000325565b9250819262000317565b634e487b7160e01b88526022600452602488fd5b93607f169362000089565b634e487b7160e01b600052604160045260246000fd5b600080fdfe6080604081815260048036101561001557600080fd5b600092833560e01c90816301ffc9a714610c375750806303b88ba214610bf257806306fdde0314610b25578063081812fc14610aea578063095ea7b314610a0e5780630c0e2d9b146109c057806323b872dd146109a857806328d249fe1461097057806342842e0e1461094757806361ef5136146106475780636352211e1461061657806370a08231146105c1578063715018a61461056457806375794a3c146105455780638da5cb5b1461051c57806395d89b41146103ff578063a22cb46514610362578063b88d4fde146102fa578063c87b56dd146102a7578063def114b61461027e578063e985e9c51461022c578063e998b0c6146101b25763f2fde38b1461012057600080fd5b346101ae5760203660031901126101ae57610139610ca3565b90610142611201565b6001600160a01b03918216928315610198575050600654826bffffffffffffffffffffffff60a01b821617600655167f8be0079c531659141344cd1fd0a4f28419497f9722a3daafe3b4186f6b6457e08380a380f35b51631e4fbdf760e01b8152908101849052602490fd5b8280fd5b50346101ae57816003193601126101ae5760243567ffffffffffffffff811161022857366023820112156102285761021791836020956101fc879436906024818701359101610def565b92358152600884522082855194838680955193849201610cd4565b820190815203019020549051908152f35b8380fd5b50503461027a578060031936011261027a5760ff8160209361024c610ca3565b610254610cbe565b6001600160a01b0391821683526005875283832091168252855220549151911615158152f35b5080fd5b50503461027a578160031936011261027a57600a5490516001600160a01b039091168152602090f35b5091903461027a57602036600319011261027a576102c86102f6933561122d565b508181516102d581610d7f565b528051916102e283610d7f565b825251918291602083526020830190610cf7565b0390f35b83823461027a57608036600319011261027a57610315610ca3565b61031d610cbe565b9060643567ffffffffffffffff811161035e573660238201121561035e5761035b9381602461035193369301359101610def565b91604435916110b2565b80f35b8480fd5b5090346101ae57806003193601126101ae5761037c610ca3565b906024359182151580930361035e576001600160a01b03169283156103ea5750338452600560205280842083855260205280842060ff1981541660ff8416179055519081527f17307eab39ab6107e8899845ad3d59bd9653f200f220920489ca2b5937696c3160203392a380f35b836024925191630b61174360e31b8352820152fd5b50913461051957806003193601126105195781519181600192600154938460011c916001861695861561050f575b60209687851081146104fc578899509688969785829a5291826000146104d5575050600114610479575b5050506102f6929161046a910385610db1565b51928284938452830190610cf7565b9190869350600183527fb10e2d527612073b26eecdfd717e6a320cf44b4afac2b0732d9fcbe2b7fa0cf65b8284106104bd575050508201018161046a6102f6610457565b8054848a0186015288955087949093019281016104a4565b60ff19168782015293151560051b8601909301935084925061046a91506102f69050610457565b634e487b7160e01b835260228a52602483fd5b92607f169261042d565b80fd5b50503461027a578160031936011261027a5760065490516001600160a01b039091168152602090f35b50503461027a578160031936011261027a576020906007549051908152f35b833461051957806003193601126105195761057d611201565b600680546001600160a01b0319811690915581906001600160a01b03167f8be0079c531659141344cd1fd0a4f28419497f9722a3daafe3b4186f6b6457e08280a380f35b509134610519576020366003190112610519576001600160a01b036105e4610ca3565b169283156106015750806020938392526003845220549051908152f35b91516322718ad960e21b815291820152602490fd5b50913461051957602036600319011261051957506106366020923561122d565b90516001600160a01b039091168152f35b5090346101ae5760603660031901126101ae57610662610ca3565b602491823567ffffffffffffffff8111610943576106839036908601610d1c565b916044359160018060a01b039485600a541633148015610936575b156109035785169687895260209660098852838a2054968715610759575b50868a5260088852838a208885518092898783378982019081520301902090815492868401809411610748575050947f55fd4f70ef4ad4ca1435a73bfdc994a40a1f83159435fcc44ac932eb7b11e8a69796949281949260809755606083519889978852870152816060870152868601378383018501899052830152601f01601f19168101030190a280f35b634e487b7160e01b8c52601190528afd5b96506007546000198082146108f1576001820160075581988b156108db5780878e60028e878352522054161580156108d4575b15610857578b8b7fddf252ad1be2c89b69c2b068fc378daa952ba7f163c4a11628f55a4df523b3ef8f600287958683528185528c83205416938415159788610825575b50858352600381528c832080546001019055868352528a812080546001600160a01b0319168517905580a461080f57898b5260098952848b2055386106bc565b5083516339e3563760e11b81529182018a905290fd5b600088815260046020526040902080546001600160a01b0319169055858452600382528d8420908154019055386107cf565b865162461bcd60e51b81528086018c9052604c818601527f536f756c626f756e643a204e46547320617265206e6f6e2d7472616e7366657260448201527f61626c6520616e64206561726e6564206f6e6c7920766961207072656469637460648201526b696f6e20616363757261637960a01b608482015260a490fd5b508c61078c565b8651633250574960e11b81528086018e90528490fd5b634e487b7160e01b8c5260118452828cfd5b825162461bcd60e51b81526020818a0152600e818901526d139bdd08185d5d1a1bdc9a5e995960921b6044820152606490fd5b508560065416331461069e565b8580fd5b50503461027a5761035b9061095b36610d4a565b9192519261096884610d7f565b8584526110b2565b50503461027a57602036600319011261027a5760209181906001600160a01b03610998610ca3565b1681526009845220549051908152f35b83346105195761035b6109ba36610d4a565b91610e72565b50346101ae57816003193601126101ae576109d9610ca3565b926024359067ffffffffffffffff8211610519575092610a01610a0792602095369101610d1c565b91610e26565b9051908152f35b5090346101ae57806003193601126101ae57610a28610ca3565b91602435610a358161122d565b33151580610ad7575b80610aae575b610a98576001600160a01b039485169482918691167f8c5be1e5ebec7d5bd14f71427d1e84f3dd0314c0f7b2291e5b200ac8c7c3b9258880a48452602052822080546001600160a01b031916909117905580f35b835163a9fbf51f60e01b81523381850152602490fd5b506001600160a01b03811686526005602090815284872033885290528386205460ff1615610a44565b506001600160a01b038116331415610a3e565b50346101ae5760203660031901126101ae57918260209335610b0b8161122d565b50825283528190205490516001600160a01b039091168152f35b5091346105195780600319360112610519578151918182549260018460011c9160018616958615610be8575b60209687851081146104fc578899509688969785829a5291826000146104d5575050600114610b8d575050506102f6929161046a910385610db1565b91908693508280527f290decd9548b62a8d60345a988386fc84ba6bc95484008f6362f93160ef3e5635b828410610bd0575050508201018161046a6102f6610457565b8054848a018601528895508794909301928101610bb7565b92607f1692610b51565b833461051957602036600319011261051957610c0c610ca3565b610c14611201565b60018060a01b03166bffffffffffffffffffffffff60a01b600a541617600a5580f35b925050346101ae5760203660031901126101ae573563ffffffff60e01b81168091036101ae57602092506380ac58cd60e01b8114908115610c92575b8115610c81575b5015158152f35b6301ffc9a760e01b14905038610c7a565b635b5e139f60e01b81149150610c73565b600435906001600160a01b0382168203610cb957565b600080fd5b602435906001600160a01b0382168203610cb957565b60005b838110610ce75750506000910152565b8181015183820152602001610cd7565b90602091610d1081518092818552858086019101610cd4565b601f01601f1916010190565b9181601f84011215610cb95782359167ffffffffffffffff8311610cb95760208381860195010111610cb957565b6060906003190112610cb9576001600160a01b03906004358281168103610cb957916024359081168103610cb9579060443590565b6020810190811067ffffffffffffffff821117610d9b57604052565b634e487b7160e01b600052604160045260246000fd5b90601f8019910116810190811067ffffffffffffffff821117610d9b57604052565b67ffffffffffffffff8111610d9b57601f01601f191660200190565b929192610dfb82610dd3565b91610e096040519384610db1565b829481845281830111610cb9578281602093846000960137010152565b6001600160a01b0316600090815260096020526040902054908115610e6a576020916000526008825260406000208360405194859384378201908152030190205490565b505050600090565b6001600160a01b0391821692909183156110995760009282845260209460028652604095838787205416158015611092575b15611014579084918287526002815284888820541696879133151580610f7e575b509060027fddf252ad1be2c89b69c2b068fc378daa952ba7f163c4a11628f55a4df523b3ef9284610f4b575b858352600381528b8320805460010190558683525289812080546001600160a01b0319168517905580a41692838303610f2a5750505050565b6064945051926364283d7b60e01b8452600484015260248301526044820152fd5b600087815260046020526040902080546001600160a01b0319169055848352600381528b83208054600019019055610ef1565b91939450915080610fd3575b15610f9a57859291879138610ec5565b878688610fb7576024915190637e27328960e01b82526004820152fd5b604491519063177e802f60e01b82523360048301526024820152fd5b503387148015610ff8575b80610f8a5750858252600481523385898420541614610f8a565b5086825260058152878220338352815260ff8883205416610fde565b60a49087519062461bcd60e51b82526004820152604c60248201527f536f756c626f756e643a204e46547320617265206e6f6e2d7472616e7366657260448201527f61626c6520616e64206561726e6564206f6e6c7920766961207072656469637460648201526b696f6e20616363757261637960a01b6084820152fd5b5085610ea4565b604051633250574960e11b815260006004820152602490fd5b6110bd838383610e72565b813b6110ca575b50505050565b604051630a85bd0160e11b8082523360048301526001600160a01b03928316602483015260448201949094526080606482015260209592909116939092908390611118906084830190610cf7565b039285816000958187895af18491816111c1575b5061118c575050503d600014611184573d61114681610dd3565b906111546040519283610db1565b81528091843d92013e5b8051928361117f57604051633250574960e11b815260048101849052602490fd5b019050fd5b50606061115e565b919450915063ffffffff60e01b16036111a95750388080806110c4565b60249060405190633250574960e11b82526004820152fd5b9091508681813d83116111fa575b6111d98183610db1565b8101031261035e57516001600160e01b03198116810361035e57903861112c565b503d6111cf565b6006546001600160a01b0316330361121557565b60405163118cdaa760e01b8152336004820152602490fd5b6000818152600260205260409020546001600160a01b0316908115611250575090565b60249060405190637e27328960e01b82526004820152fdfea2646970667358221220f9352195f9bdf7812090122942d57594264f1deba209893c56ba5d0f31293b2d64736f6c63430008180033","opcodes":"PUSH1 0x80 CALLVALUE PUSH3 0x383 JUMPI PUSH1 0x1 PUSH1 0x1 PUSH1 0x40 SHL SUB SWAP1 PUSH1 0x40 SWAP1 DUP1 DUP3 ADD DUP4 DUP2 GT DUP3 DUP3 LT OR PUSH3 0x36D JUMPI DUP3 MSTORE PUSH1 0x12 DUP2 MSTORE PUSH1 0x20 SWAP2 PUSH18 0x27B930B1B632AC102932B83ABA30BA34B7B7 PUSH1 0x71 SHL DUP4 DUP4 ADD MSTORE DUP1 MLOAD SWAP4 DUP2 DUP6 ADD DUP6 DUP2 LT DUP3 DUP3 GT OR PUSH3 0x36D JUMPI DUP3 MSTORE PUSH1 0x3 DUP6 MSTORE PUSH3 0x27AC29 PUSH1 0xE9 SHL DUP5 DUP7 ADD MSTORE DUP3 MLOAD DUP2 DUP2 GT PUSH3 0x36D JUMPI PUSH1 0x0 SWAP5 DUP6 SLOAD SWAP2 PUSH1 0x1 SWAP6 DUP7 DUP5 DUP2 SHR SWAP5 AND DUP1 ISZERO PUSH3 0x362 JUMPI JUMPDEST DUP4 DUP6 LT EQ PUSH3 0x34E JUMPI DUP2 SWAP1 PUSH1 0x1F SWAP5 DUP6 DUP2 GT PUSH3 0x2FB JUMPI JUMPDEST POP DUP4 SWAP1 DUP6 DUP4 GT PUSH1 0x1 EQ PUSH3 0x297 JUMPI DUP10 SWAP3 PUSH3 0x28B JUMPI JUMPDEST POP POP PUSH1 0x0 NOT PUSH1 0x3 DUP4 SWAP1 SHL SHR NOT AND SWAP1 DUP7 SHL OR DUP7 SSTORE JUMPDEST DUP7 MLOAD SWAP3 DUP4 GT PUSH3 0x277 JUMPI DUP5 SLOAD DUP6 DUP2 DUP2 SHR SWAP2 AND DUP1 ISZERO PUSH3 0x26C JUMPI JUMPDEST DUP3 DUP3 LT EQ PUSH3 0x258 JUMPI DUP3 DUP2 GT PUSH3 0x210 JUMPI JUMPDEST POP DUP1 SWAP2 DUP4 GT PUSH1 0x1 EQ PUSH3 0x1A7 JUMPI POP DUP5 SWAP6 DUP3 SWAP4 SWAP5 SWAP6 SWAP3 PUSH3 0x19B JUMPI JUMPDEST POP POP PUSH1 0x0 NOT PUSH1 0x3 DUP4 SWAP1 SHL SHR NOT AND SWAP1 DUP4 SHL OR DUP3 SSTORE JUMPDEST CALLER ISZERO PUSH3 0x184 JUMPI PUSH1 0x6 DUP1 SLOAD CALLER PUSH1 0x1 PUSH1 0x1 PUSH1 0xA0 SHL SUB NOT DUP3 AND DUP2 OR SWAP1 SWAP3 SSTORE SWAP2 MLOAD SWAP4 SWAP1 SWAP2 PUSH1 0x1 PUSH1 0x1 PUSH1 0xA0 SHL SUB AND SWAP1 PUSH32 0x8BE0079C531659141344CD1FD0A4F28419497F9722A3DAAFE3B4186F6B6457E0 SWAP1 DUP1 LOG3 PUSH1 0x7 SSTORE PUSH2 0x129E SWAP1 DUP2 PUSH3 0x389 DUP3 CODECOPY RETURN JUMPDEST MLOAD PUSH4 0x1E4FBDF7 PUSH1 0xE0 SHL DUP2 MSTORE PUSH1 0x4 DUP2 ADD DUP4 SWAP1 MSTORE PUSH1 0x24 SWAP1 REVERT JUMPDEST ADD MLOAD SWAP1 POP CODESIZE DUP1 PUSH3 0x111 JUMP JUMPDEST SWAP1 PUSH1 0x1F NOT DUP4 AND SWAP7 DUP6 DUP8 MSTORE DUP3 DUP8 KECCAK256 SWAP3 DUP8 SWAP1 JUMPDEST DUP10 DUP3 LT PUSH3 0x1F8 JUMPI POP POP DUP4 DUP7 SWAP8 SWAP9 SWAP7 SWAP6 SWAP7 LT PUSH3 0x1DE JUMPI JUMPDEST POP POP POP DUP2 SHL ADD DUP3 SSTORE PUSH3 0x125 JUMP JUMPDEST ADD MLOAD PUSH1 0x0 NOT PUSH1 0xF8 DUP5 PUSH1 0x3 SHL AND SHR NOT AND SWAP1 SSTORE CODESIZE DUP1 DUP1 PUSH3 0x1D0 JUMP JUMPDEST DUP1 DUP9 DUP6 SWAP7 DUP3 SWAP5 SWAP7 DUP7 ADD MLOAD DUP2 SSTORE ADD SWAP6 ADD SWAP4 ADD SWAP1 PUSH3 0x1B8 JUMP JUMPDEST DUP6 DUP8 MSTORE DUP2 DUP8 KECCAK256 DUP4 DUP1 DUP7 ADD PUSH1 0x5 SHR DUP3 ADD SWAP3 DUP5 DUP8 LT PUSH3 0x24E JUMPI JUMPDEST ADD PUSH1 0x5 SHR ADD SWAP1 DUP7 SWAP1 JUMPDEST DUP3 DUP2 LT PUSH3 0x242 JUMPI POP POP PUSH3 0xF6 JUMP JUMPDEST DUP9 DUP2 SSTORE ADD DUP7 SWAP1 PUSH3 0x232 JUMP JUMPDEST SWAP3 POP DUP2 SWAP3 PUSH3 0x229 JUMP JUMPDEST PUSH4 0x4E487B71 PUSH1 0xE0 SHL DUP8 MSTORE PUSH1 0x22 PUSH1 0x4 MSTORE PUSH1 0x24 DUP8 REVERT JUMPDEST SWAP1 PUSH1 0x7F AND SWAP1 PUSH3 0xE4 JUMP JUMPDEST PUSH4 0x4E487B71 PUSH1 0xE0 SHL DUP7 MSTORE PUSH1 0x41 PUSH1 0x4 MSTORE PUSH1 0x24 DUP7 REVERT JUMPDEST ADD MLOAD SWAP1 POP CODESIZE DUP1 PUSH3 0xB6 JUMP JUMPDEST DUP10 DUP1 MSTORE DUP5 DUP11 KECCAK256 DUP10 SWAP5 POP SWAP2 SWAP1 PUSH1 0x1F NOT DUP5 AND DUP12 JUMPDEST DUP8 DUP3 DUP3 LT PUSH3 0x2E4 JUMPI POP POP DUP5 GT PUSH3 0x2CA JUMPI JUMPDEST POP POP POP DUP2 SHL ADD DUP7 SSTORE PUSH3 0xCA JUMP JUMPDEST ADD MLOAD PUSH1 0x0 NOT PUSH1 0xF8 DUP5 PUSH1 0x3 SHL AND SHR NOT AND SWAP1 SSTORE CODESIZE DUP1 DUP1 PUSH3 0x2BC JUMP JUMPDEST DUP4 DUP6 ADD MLOAD DUP7 SSTORE DUP13 SWAP8 SWAP1 SWAP6 ADD SWAP5 SWAP4 DUP5 ADD SWAP4 ADD PUSH3 0x2A9 JUMP JUMPDEST SWAP1 SWAP2 POP DUP9 DUP1 MSTORE DUP4 DUP10 KECCAK256 DUP6 DUP1 DUP6 ADD PUSH1 0x5 SHR DUP3 ADD SWAP3 DUP7 DUP7 LT PUSH3 0x344 JUMPI JUMPDEST SWAP2 DUP11 SWAP2 DUP7 SWAP6 SWAP5 SWAP4 ADD PUSH1 0x5 SHR ADD SWAP2 JUMPDEST DUP3 DUP2 LT PUSH3 0x335 JUMPI POP POP PUSH3 0xA0 JUMP JUMPDEST DUP12 DUP2 SSTORE DUP6 SWAP5 POP DUP11 SWAP2 ADD PUSH3 0x325 JUMP JUMPDEST SWAP3 POP DUP2 SWAP3 PUSH3 0x317 JUMP JUMPDEST PUSH4 0x4E487B71 PUSH1 0xE0 SHL DUP9 MSTORE PUSH1 0x22 PUSH1 0x4 MSTORE PUSH1 0x24 DUP9 REVERT JUMPDEST SWAP4 PUSH1 0x7F AND SWAP4 PUSH3 0x89 JUMP JUMPDEST PUSH4 0x4E487B71 PUSH1 0xE0 SHL PUSH1 0x0 MSTORE PUSH1 0x41 PUSH1 0x4 MSTORE PUSH1 0x24 PUSH1 0x0 REVERT JUMPDEST PUSH1 0x0 DUP1 REVERT INVALID PUSH1 0x80 PUSH1 0x40 DUP2 DUP2 MSTORE PUSH1 0x4 DUP1 CALLDATASIZE LT ISZERO PUSH2 0x15 JUMPI PUSH1 0x0 DUP1 REVERT JUMPDEST PUSH1 0x0 SWAP3 DUP4 CALLDATALOAD PUSH1 0xE0 SHR SWAP1 DUP2 PUSH4 0x1FFC9A7 EQ PUSH2 0xC37 JUMPI POP DUP1 PUSH4 0x3B88BA2 EQ PUSH2 0xBF2 JUMPI DUP1 PUSH4 0x6FDDE03 EQ PUSH2 0xB25 JUMPI DUP1 PUSH4 0x81812FC EQ PUSH2 0xAEA JUMPI DUP1 PUSH4 0x95EA7B3 EQ PUSH2 0xA0E JUMPI DUP1 PUSH4 0xC0E2D9B EQ PUSH2 0x9C0 JUMPI DUP1 PUSH4 0x23B872DD EQ PUSH2 0x9A8 JUMPI DUP1 PUSH4 0x28D249FE EQ PUSH2 0x970 JUMPI DUP1 PUSH4 0x42842E0E EQ PUSH2 0x947 JUMPI DUP1 PUSH4 0x61EF5136 EQ PUSH2 0x647 JUMPI DUP1 PUSH4 0x6352211E EQ PUSH2 0x616 JUMPI DUP1 PUSH4 0x70A08231 EQ PUSH2 0x5C1 JUMPI DUP1 PUSH4 0x715018A6 EQ PUSH2 0x564 JUMPI DUP1 PUSH4 0x75794A3C EQ PUSH2 0x545 JUMPI DUP1 PUSH4 0x8DA5CB5B EQ PUSH2 0x51C JUMPI DUP1 PUSH4 0x95D89B41 EQ PUSH2 0x3FF JUMPI DUP1 PUSH4 0xA22CB465 EQ PUSH2 0x362 JUMPI DUP1 PUSH4 0xB88D4FDE EQ PUSH2 0x2FA JUMPI DUP1 PUSH4 0xC87B56DD EQ PUSH2 0x2A7 JUMPI DUP1 PUSH4 0xDEF114B6 EQ PUSH2 0x27E JUMPI DUP1 PUSH4 0xE985E9C5 EQ PUSH2 0x22C JUMPI DUP1 PUSH4 0xE998B0C6 EQ PUSH2 0x1B2 JUMPI PUSH4 0xF2FDE38B EQ PUSH2 0x120 JUMPI PUSH1 0x0 DUP1 REVERT JUMPDEST CALLVALUE PUSH2 0x1AE JUMPI PUSH1 0x20 CALLDATASIZE PUSH1 0x3 NOT ADD SLT PUSH2 0x1AE JUMPI PUSH2 0x139 PUSH2 0xCA3 JUMP JUMPDEST SWAP1 PUSH2 0x142 PUSH2 0x1201 JUMP JUMPDEST PUSH1 0x1 PUSH1 0x1 PUSH1 0xA0 SHL SUB SWAP2 DUP3 AND SWAP3 DUP4 ISZERO PUSH2 0x198 JUMPI POP POP PUSH1 0x6 SLOAD DUP3 PUSH12 0xFFFFFFFFFFFFFFFFFFFFFFFF PUSH1 0xA0 SHL DUP3 AND OR PUSH1 0x6 SSTORE AND PUSH32 0x8BE0079C531659141344CD1FD0A4F28419497F9722A3DAAFE3B4186F6B6457E0 DUP4 DUP1 LOG3 DUP1 RETURN JUMPDEST MLOAD PUSH4 0x1E4FBDF7 PUSH1 0xE0 SHL DUP2 MSTORE SWAP1 DUP2 ADD DUP5 SWAP1 MSTORE PUSH1 0x24 SWAP1 REVERT JUMPDEST DUP3 DUP1 REVERT JUMPDEST POP CALLVALUE PUSH2 0x1AE JUMPI DUP2 PUSH1 0x3 NOT CALLDATASIZE ADD SLT PUSH2 0x1AE JUMPI PUSH1 0x24 CALLDATALOAD PUSH8 0xFFFFFFFFFFFFFFFF DUP2 GT PUSH2 0x228 JUMPI CALLDATASIZE PUSH1 0x23 DUP3 ADD SLT ISZERO PUSH2 0x228 JUMPI PUSH2 0x217 SWAP2 DUP4 PUSH1 0x20 SWAP6 PUSH2 0x1FC DUP8 SWAP5 CALLDATASIZE SWAP1 PUSH1 0x24 DUP2 DUP8 ADD CALLDATALOAD SWAP2 ADD PUSH2 0xDEF JUMP JUMPDEST SWAP3 CALLDATALOAD DUP2 MSTORE PUSH1 0x8 DUP5 MSTORE KECCAK256 DUP3 DUP6 MLOAD SWAP5 DUP4 DUP7 DUP1 SWAP6 MLOAD SWAP4 DUP5 SWAP3 ADD PUSH2 0xCD4 JUMP JUMPDEST DUP3 ADD SWAP1 DUP2 MSTORE SUB ADD SWAP1 KECCAK256 SLOAD SWAP1 MLOAD SWAP1 DUP2 MSTORE RETURN JUMPDEST DUP4 DUP1 REVERT JUMPDEST POP POP CALLVALUE PUSH2 0x27A JUMPI DUP1 PUSH1 0x3 NOT CALLDATASIZE ADD SLT PUSH2 0x27A JUMPI PUSH1 0xFF DUP2 PUSH1 0x20 SWAP4 PUSH2 0x24C PUSH2 0xCA3 JUMP JUMPDEST PUSH2 0x254 PUSH2 0xCBE JUMP JUMPDEST PUSH1 0x1 PUSH1 0x1 PUSH1 0xA0 SHL SUB SWAP2 DUP3 AND DUP4 MSTORE PUSH1 0x5 DUP8 MSTORE DUP4 DUP4 KECCAK256 SWAP2 AND DUP3 MSTORE DUP6 MSTORE KECCAK256 SLOAD SWAP2 MLOAD SWAP2 AND ISZERO ISZERO DUP2 MSTORE RETURN JUMPDEST POP DUP1 REVERT JUMPDEST POP POP CALLVALUE PUSH2 0x27A JUMPI DUP2 PUSH1 0x3 NOT CALLDATASIZE ADD SLT PUSH2 0x27A JUMPI PUSH1 0xA SLOAD SWAP1 MLOAD PUSH1 0x1 PUSH1 0x1 PUSH1 0xA0 SHL SUB SWAP1 SWAP2 AND DUP2 MSTORE PUSH1 0x20 SWAP1 RETURN JUMPDEST POP SWAP2 SWAP1 CALLVALUE PUSH2 0x27A JUMPI PUSH1 0x20 CALLDATASIZE PUSH1 0x3 NOT ADD SLT PUSH2 0x27A JUMPI PUSH2 0x2C8 PUSH2 0x2F6 SWAP4 CALLDATALOAD PUSH2 0x122D JUMP JUMPDEST POP DUP2 DUP2 MLOAD PUSH2 0x2D5 DUP2 PUSH2 0xD7F JUMP JUMPDEST MSTORE DUP1 MLOAD SWAP2 PUSH2 0x2E2 DUP4 PUSH2 0xD7F JUMP JUMPDEST DUP3 MSTORE MLOAD SWAP2 DUP3 SWAP2 PUSH1 0x20 DUP4 MSTORE PUSH1 0x20 DUP4 ADD SWAP1 PUSH2 0xCF7 JUMP JUMPDEST SUB SWAP1 RETURN JUMPDEST DUP4 DUP3 CALLVALUE PUSH2 0x27A JUMPI PUSH1 0x80 CALLDATASIZE PUSH1 0x3 NOT ADD SLT PUSH2 0x27A JUMPI PUSH2 0x315 PUSH2 0xCA3 JUMP JUMPDEST PUSH2 0x31D PUSH2 0xCBE JUMP JUMPDEST SWAP1 PUSH1 0x64 CALLDATALOAD PUSH8 0xFFFFFFFFFFFFFFFF DUP2 GT PUSH2 0x35E JUMPI CALLDATASIZE PUSH1 0x23 DUP3 ADD SLT ISZERO PUSH2 0x35E JUMPI PUSH2 0x35B SWAP4 DUP2 PUSH1 0x24 PUSH2 0x351 SWAP4 CALLDATASIZE SWAP4 ADD CALLDATALOAD SWAP2 ADD PUSH2 0xDEF JUMP JUMPDEST SWAP2 PUSH1 0x44 CALLDATALOAD SWAP2 PUSH2 0x10B2 JUMP JUMPDEST DUP1 RETURN JUMPDEST DUP5 DUP1 REVERT JUMPDEST POP SWAP1 CALLVALUE PUSH2 0x1AE JUMPI DUP1 PUSH1 0x3 NOT CALLDATASIZE ADD SLT PUSH2 0x1AE JUMPI PUSH2 0x37C PUSH2 0xCA3 JUMP JUMPDEST SWAP1 PUSH1 0x24 CALLDATALOAD SWAP2 DUP3 ISZERO ISZERO DUP1 SWAP4 SUB PUSH2 0x35E JUMPI PUSH1 0x1 PUSH1 0x1 PUSH1 0xA0 SHL SUB AND SWAP3 DUP4 ISZERO PUSH2 0x3EA JUMPI POP CALLER DUP5 MSTORE PUSH1 0x5 PUSH1 0x20 MSTORE DUP1 DUP5 KECCAK256 DUP4 DUP6 MSTORE PUSH1 0x20 MSTORE DUP1 DUP5 KECCAK256 PUSH1 0xFF NOT DUP2 SLOAD AND PUSH1 0xFF DUP5 AND OR SWAP1 SSTORE MLOAD SWAP1 DUP2 MSTORE PUSH32 0x17307EAB39AB6107E8899845AD3D59BD9653F200F220920489CA2B5937696C31 PUSH1 0x20 CALLER SWAP3 LOG3 DUP1 RETURN JUMPDEST DUP4 PUSH1 0x24 SWAP3 MLOAD SWAP2 PUSH4 0xB611743 PUSH1 0xE3 SHL DUP4 MSTORE DUP3 ADD MSTORE REVERT JUMPDEST POP SWAP2 CALLVALUE PUSH2 0x519 JUMPI DUP1 PUSH1 0x3 NOT CALLDATASIZE ADD SLT PUSH2 0x519 JUMPI DUP2 MLOAD SWAP2 DUP2 PUSH1 0x1 SWAP3 PUSH1 0x1 SLOAD SWAP4 DUP5 PUSH1 0x1 SHR SWAP2 PUSH1 0x1 DUP7 AND SWAP6 DUP7 ISZERO PUSH2 0x50F JUMPI JUMPDEST PUSH1 0x20 SWAP7 DUP8 DUP6 LT DUP2 EQ PUSH2 0x4FC JUMPI DUP9 SWAP10 POP SWAP7 DUP9 SWAP7 SWAP8 DUP6 DUP3 SWAP11 MSTORE SWAP2 DUP3 PUSH1 0x0 EQ PUSH2 0x4D5 JUMPI POP POP PUSH1 0x1 EQ PUSH2 0x479 JUMPI JUMPDEST POP POP POP PUSH2 0x2F6 SWAP3 SWAP2 PUSH2 0x46A SWAP2 SUB DUP6 PUSH2 0xDB1 JUMP JUMPDEST MLOAD SWAP3 DUP3 DUP5 SWAP4 DUP5 MSTORE DUP4 ADD SWAP1 PUSH2 0xCF7 JUMP JUMPDEST SWAP2 SWAP1 DUP7 SWAP4 POP PUSH1 0x1 DUP4 MSTORE PUSH32 0xB10E2D527612073B26EECDFD717E6A320CF44B4AFAC2B0732D9FCBE2B7FA0CF6 JUMPDEST DUP3 DUP5 LT PUSH2 0x4BD JUMPI POP POP POP DUP3 ADD ADD DUP2 PUSH2 0x46A PUSH2 0x2F6 PUSH2 0x457 JUMP JUMPDEST DUP1 SLOAD DUP5 DUP11 ADD DUP7 ADD MSTORE DUP9 SWAP6 POP DUP8 SWAP5 SWAP1 SWAP4 ADD SWAP3 DUP2 ADD PUSH2 0x4A4 JUMP JUMPDEST PUSH1 0xFF NOT AND DUP8 DUP3 ADD MSTORE SWAP4 ISZERO ISZERO PUSH1 0x5 SHL DUP7 ADD SWAP1 SWAP4 ADD SWAP4 POP DUP5 SWAP3 POP PUSH2 0x46A SWAP2 POP PUSH2 0x2F6 SWAP1 POP PUSH2 0x457 JUMP JUMPDEST PUSH4 0x4E487B71 PUSH1 0xE0 SHL DUP4 MSTORE PUSH1 0x22 DUP11 MSTORE PUSH1 0x24 DUP4 REVERT JUMPDEST SWAP3 PUSH1 0x7F AND SWAP3 PUSH2 0x42D JUMP JUMPDEST DUP1 REVERT JUMPDEST POP POP CALLVALUE PUSH2 0x27A JUMPI DUP2 PUSH1 0x3 NOT CALLDATASIZE ADD SLT PUSH2 0x27A JUMPI PUSH1 0x6 SLOAD SWAP1 MLOAD PUSH1 0x1 PUSH1 0x1 PUSH1 0xA0 SHL SUB SWAP1 SWAP2 AND DUP2 MSTORE PUSH1 0x20 SWAP1 RETURN JUMPDEST POP POP CALLVALUE PUSH2 0x27A JUMPI DUP2 PUSH1 0x3 NOT CALLDATASIZE ADD SLT PUSH2 0x27A JUMPI PUSH1 0x20 SWAP1 PUSH1 0x7 SLOAD SWAP1 MLOAD SWAP1 DUP2 MSTORE RETURN JUMPDEST DUP4 CALLVALUE PUSH2 0x519 JUMPI DUP1 PUSH1 0x3 NOT CALLDATASIZE ADD SLT PUSH2 0x519 JUMPI PUSH2 0x57D PUSH2 0x1201 JUMP JUMPDEST PUSH1 0x6 DUP1 SLOAD PUSH1 0x1 PUSH1 0x1 PUSH1 0xA0 SHL SUB NOT DUP2 AND SWAP1 SWAP2 SSTORE DUP2 SWAP1 PUSH1 0x1 PUSH1 0x1 PUSH1 0xA0 SHL SUB AND PUSH32 0x8BE0079C531659141344CD1FD0A4F28419497F9722A3DAAFE3B4186F6B6457E0 DUP3 DUP1 LOG3 DUP1 RETURN JUMPDEST POP SWAP2 CALLVALUE PUSH2 0x519 JUMPI PUSH1 0x20 CALLDATASIZE PUSH1 0x3 NOT ADD SLT PUSH2 0x519 JUMPI PUSH1 0x1 PUSH1 0x1 PUSH1 0xA0 SHL SUB PUSH2 0x5E4 PUSH2 0xCA3 JUMP JUMPDEST AND SWAP3 DUP4 ISZERO PUSH2 0x601 JUMPI POP DUP1 PUSH1 0x20 SWAP4 DUP4 SWAP3 MSTORE PUSH1 0x3 DUP5 MSTORE KECCAK256 SLOAD SWAP1 MLOAD SWAP1 DUP2 MSTORE RETURN JUMPDEST SWAP2 MLOAD PUSH4 0x22718AD9 PUSH1 0xE2 SHL DUP2 MSTORE SWAP2 DUP3 ADD MSTORE PUSH1 0x24 SWAP1 REVERT JUMPDEST POP SWAP2 CALLVALUE PUSH2 0x519 JUMPI PUSH1 0x20 CALLDATASIZE PUSH1 0x3 NOT ADD SLT PUSH2 0x519 JUMPI POP PUSH2 0x636 PUSH1 0x20 SWAP3 CALLDATALOAD PUSH2 0x122D JUMP JUMPDEST SWAP1 MLOAD PUSH1 0x1 PUSH1 0x1 PUSH1 0xA0 SHL SUB SWAP1 SWAP2 AND DUP2 MSTORE RETURN JUMPDEST POP SWAP1 CALLVALUE PUSH2 0x1AE JUMPI PUSH1 0x60 CALLDATASIZE PUSH1 0x3 NOT ADD SLT PUSH2 0x1AE JUMPI PUSH2 0x662 PUSH2 0xCA3 JUMP JUMPDEST PUSH1 0x24 SWAP2 DUP3 CALLDATALOAD PUSH8 0xFFFFFFFFFFFFFFFF DUP2 GT PUSH2 0x943 JUMPI PUSH2 0x683 SWAP1 CALLDATASIZE SWAP1 DUP7 ADD PUSH2 0xD1C JUMP JUMPDEST SWAP2 PUSH1 0x44 CALLDATALOAD SWAP2 PUSH1 0x1 DUP1 PUSH1 0xA0 SHL SUB SWAP5 DUP6 PUSH1 0xA SLOAD AND CALLER EQ DUP1 ISZERO PUSH2 0x936 JUMPI JUMPDEST ISZERO PUSH2 0x903 JUMPI DUP6 AND SWAP7 DUP8 DUP10 MSTORE PUSH1 0x20 SWAP7 PUSH1 0x9 DUP9 MSTORE DUP4 DUP11 KECCAK256 SLOAD SWAP7 DUP8 ISZERO PUSH2 0x759 JUMPI JUMPDEST POP DUP7 DUP11 MSTORE PUSH1 0x8 DUP9 MSTORE DUP4 DUP11 KECCAK256 DUP9 DUP6 MLOAD DUP1 SWAP3 DUP10 DUP8 DUP4 CALLDATACOPY DUP10 DUP3 ADD SWAP1 DUP2 MSTORE SUB ADD SWAP1 KECCAK256 SWAP1 DUP2 SLOAD SWAP3 DUP7 DUP5 ADD DUP1 SWAP5 GT PUSH2 0x748 JUMPI POP POP SWAP5 PUSH32 0x55FD4F70EF4AD4CA1435A73BFDC994A40A1F83159435FCC44AC932EB7B11E8A6 SWAP8 SWAP7 SWAP5 SWAP3 DUP2 SWAP5 SWAP3 PUSH1 0x80 SWAP8 SSTORE PUSH1 0x60 DUP4 MLOAD SWAP9 DUP10 SWAP8 DUP9 MSTORE DUP8 ADD MSTORE DUP2 PUSH1 0x60 DUP8 ADD MSTORE DUP7 DUP7 ADD CALLDATACOPY DUP4 DUP4 ADD DUP6 ADD DUP10 SWAP1 MSTORE DUP4 ADD MSTORE PUSH1 0x1F ADD PUSH1 0x1F NOT AND DUP2 ADD SUB ADD SWAP1 LOG2 DUP1 RETURN JUMPDEST PUSH4 0x4E487B71 PUSH1 0xE0 SHL DUP13 MSTORE PUSH1 0x11 SWAP1 MSTORE DUP11 REVERT JUMPDEST SWAP7 POP PUSH1 0x7 SLOAD PUSH1 0x0 NOT DUP1 DUP3 EQ PUSH2 0x8F1 JUMPI PUSH1 0x1 DUP3 ADD PUSH1 0x7 SSTORE DUP2 SWAP9 DUP12 ISZERO PUSH2 0x8DB JUMPI DUP1 DUP8 DUP15 PUSH1 0x2 DUP15 DUP8 DUP4 MSTORE MSTORE KECCAK256 SLOAD AND ISZERO DUP1 ISZERO PUSH2 0x8D4 JUMPI JUMPDEST ISZERO PUSH2 0x857 JUMPI DUP12 DUP12 PUSH32 0xDDF252AD1BE2C89B69C2B068FC378DAA952BA7F163C4A11628F55A4DF523B3EF DUP16 PUSH1 0x2 DUP8 SWAP6 DUP7 DUP4 MSTORE DUP2 DUP6 MSTORE DUP13 DUP4 KECCAK256 SLOAD AND SWAP4 DUP5 ISZERO ISZERO SWAP8 DUP9 PUSH2 0x825 JUMPI JUMPDEST POP DUP6 DUP4 MSTORE PUSH1 0x3 DUP2 MSTORE DUP13 DUP4 KECCAK256 DUP1 SLOAD PUSH1 0x1 ADD SWAP1 SSTORE DUP7 DUP4 MSTORE MSTORE DUP11 DUP2 KECCAK256 DUP1 SLOAD PUSH1 0x1 PUSH1 0x1 PUSH1 0xA0 SHL SUB NOT AND DUP6 OR SWAP1 SSTORE DUP1 LOG4 PUSH2 0x80F JUMPI DUP10 DUP12 MSTORE PUSH1 0x9 DUP10 MSTORE DUP5 DUP12 KECCAK256 SSTORE CODESIZE PUSH2 0x6BC JUMP JUMPDEST POP DUP4 MLOAD PUSH4 0x39E35637 PUSH1 0xE1 SHL DUP2 MSTORE SWAP2 DUP3 ADD DUP11 SWAP1 MSTORE SWAP1 REVERT JUMPDEST PUSH1 0x0 DUP9 DUP2 MSTORE PUSH1 0x4 PUSH1 0x20 MSTORE PUSH1 0x40 SWAP1 KECCAK256 DUP1 SLOAD PUSH1 0x1 PUSH1 0x1 PUSH1 0xA0 SHL SUB NOT AND SWAP1 SSTORE DUP6 DUP5 MSTORE PUSH1 0x3 DUP3 MSTORE DUP14 DUP5 KECCAK256 SWAP1 DUP2 SLOAD ADD SWAP1 SSTORE CODESIZE PUSH2 0x7CF JUMP JUMPDEST DUP7 MLOAD PUSH3 0x461BCD PUSH1 0xE5 SHL DUP2 MSTORE DUP1 DUP7 ADD DUP13 SWAP1 MSTORE PUSH1 0x4C DUP2 DUP7 ADD MSTORE PUSH32 0x536F756C626F756E643A204E46547320617265206E6F6E2D7472616E73666572 PUSH1 0x44 DUP3 ADD MSTORE PUSH32 0x61626C6520616E64206561726E6564206F6E6C79207669612070726564696374 PUSH1 0x64 DUP3 ADD MSTORE PUSH12 0x696F6E206163637572616379 PUSH1 0xA0 SHL PUSH1 0x84 DUP3 ADD MSTORE PUSH1 0xA4 SWAP1 REVERT JUMPDEST POP DUP13 PUSH2 0x78C JUMP JUMPDEST DUP7 MLOAD PUSH4 0x32505749 PUSH1 0xE1 SHL DUP2 MSTORE DUP1 DUP7 ADD DUP15 SWAP1 MSTORE DUP5 SWAP1 REVERT JUMPDEST PUSH4 0x4E487B71 PUSH1 0xE0 SHL DUP13 MSTORE PUSH1 0x11 DUP5 MSTORE DUP3 DUP13 REVERT JUMPDEST DUP3 MLOAD PUSH3 0x461BCD PUSH1 0xE5 SHL DUP2 MSTORE PUSH1 0x20 DUP2 DUP11 ADD MSTORE PUSH1 0xE DUP2 DUP10 ADD MSTORE PUSH14 0x139BDD08185D5D1A1BDC9A5E9959 PUSH1 0x92 SHL PUSH1 0x44 DUP3 ADD MSTORE PUSH1 0x64 SWAP1 REVERT JUMPDEST POP DUP6 PUSH1 0x6 SLOAD AND CALLER EQ PUSH2 0x69E JUMP JUMPDEST DUP6 DUP1 REVERT JUMPDEST POP POP CALLVALUE PUSH2 0x27A JUMPI PUSH2 0x35B SWAP1 PUSH2 0x95B CALLDATASIZE PUSH2 0xD4A JUMP JUMPDEST SWAP2 SWAP3 MLOAD SWAP3 PUSH2 0x968 DUP5 PUSH2 0xD7F JUMP JUMPDEST DUP6 DUP5 MSTORE PUSH2 0x10B2 JUMP JUMPDEST POP POP CALLVALUE PUSH2 0x27A JUMPI PUSH1 0x20 CALLDATASIZE PUSH1 0x3 NOT ADD SLT PUSH2 0x27A JUMPI PUSH1 0x20 SWAP2 DUP2 SWAP1 PUSH1 0x1 PUSH1 0x1 PUSH1 0xA0 SHL SUB PUSH2 0x998 PUSH2 0xCA3 JUMP JUMPDEST AND DUP2 MSTORE PUSH1 0x9 DUP5 MSTORE KECCAK256 SLOAD SWAP1 MLOAD SWAP1 DUP2 MSTORE RETURN JUMPDEST DUP4 CALLVALUE PUSH2 0x519 JUMPI PUSH2 0x35B PUSH2 0x9BA CALLDATASIZE PUSH2 0xD4A JUMP JUMPDEST SWAP2 PUSH2 0xE72 JUMP JUMPDEST POP CALLVALUE PUSH2 0x1AE JUMPI DUP2 PUSH1 0x3 NOT CALLDATASIZE ADD SLT PUSH2 0x1AE JUMPI PUSH2 0x9D9 PUSH2 0xCA3 JUMP JUMPDEST SWAP3 PUSH1 0x24 CALLDATALOAD SWAP1 PUSH8 0xFFFFFFFFFFFFFFFF DUP3 GT PUSH2 0x519 JUMPI POP SWAP3 PUSH2 0xA01 PUSH2 0xA07 SWAP3 PUSH1 0x20 SWAP6 CALLDATASIZE SWAP2 ADD PUSH2 0xD1C JUMP JUMPDEST SWAP2 PUSH2 0xE26 JUMP JUMPDEST SWAP1 MLOAD SWAP1 DUP2 MSTORE RETURN JUMPDEST POP SWAP1 CALLVALUE PUSH2 0x1AE JUMPI DUP1 PUSH1 0x3 NOT CALLDATASIZE ADD SLT PUSH2 0x1AE JUMPI PUSH2 0xA28 PUSH2 0xCA3 JUMP JUMPDEST SWAP2 PUSH1 0x24 CALLDATALOAD PUSH2 0xA35 DUP2 PUSH2 0x122D JUMP JUMPDEST CALLER ISZERO ISZERO DUP1 PUSH2 0xAD7 JUMPI JUMPDEST DUP1 PUSH2 0xAAE JUMPI JUMPDEST PUSH2 0xA98 JUMPI PUSH1 0x1 PUSH1 0x1 PUSH1 0xA0 SHL SUB SWAP5 DUP6 AND SWAP5 DUP3 SWAP2 DUP7 SWAP2 AND PUSH32 0x8C5BE1E5EBEC7D5BD14F71427D1E84F3DD0314C0F7B2291E5B200AC8C7C3B925 DUP9 DUP1 LOG4 DUP5 MSTORE PUSH1 0x20 MSTORE DUP3 KECCAK256 DUP1 SLOAD PUSH1 0x1 PUSH1 0x1 PUSH1 0xA0 SHL SUB NOT AND SWAP1 SWAP2 OR SWAP1 SSTORE DUP1 RETURN JUMPDEST DUP4 MLOAD PUSH4 0xA9FBF51F PUSH1 0xE0 SHL DUP2 MSTORE CALLER DUP2 DUP6 ADD MSTORE PUSH1 0x24 SWAP1 REVERT JUMPDEST POP PUSH1 0x1 PUSH1 0x1 PUSH1 0xA0 SHL SUB DUP2 AND DUP7 MSTORE PUSH1 0x5 PUSH1 0x20 SWAP1 DUP2 MSTORE DUP5 DUP8 KECCAK256 CALLER DUP9 MSTORE SWAP1 MSTORE DUP4 DUP7 KECCAK256 SLOAD PUSH1 0xFF AND ISZERO PUSH2 0xA44 JUMP JUMPDEST POP PUSH1 0x1 PUSH1 0x1 PUSH1 0xA0 SHL SUB DUP2 AND CALLER EQ ISZERO PUSH2 0xA3E JUMP JUMPDEST POP CALLVALUE PUSH2 0x1AE JUMPI PUSH1 0x20 CALLDATASIZE PUSH1 0x3 NOT ADD SLT PUSH2 0x1AE JUMPI SWAP2 DUP3 PUSH1 0x20 SWAP4 CALLDATALOAD PUSH2 0xB0B DUP2 PUSH2 0x122D JUMP JUMPDEST POP DUP3 MSTORE DUP4 MSTORE DUP2 SWAP1 KECCAK256 SLOAD SWAP1 MLOAD PUSH1 0x1 PUSH1 0x1 PUSH1 0xA0 SHL SUB SWAP1 SWAP2 AND DUP2 MSTORE RETURN JUMPDEST POP SWAP2 CALLVALUE PUSH2 0x519 JUMPI DUP1 PUSH1 0x3 NOT CALLDATASIZE ADD SLT PUSH2 0x519 JUMPI DUP2 MLOAD SWAP2 DUP2 DUP3 SLOAD SWAP3 PUSH1 0x1 DUP5 PUSH1 0x1 SHR SWAP2 PUSH1 0x1 DUP7 AND SWAP6 DUP7 ISZERO PUSH2 0xBE8 JUMPI JUMPDEST PUSH1 0x20 SWAP7 DUP8 DUP6 LT DUP2 EQ PUSH2 0x4FC JUMPI DUP9 SWAP10 POP SWAP7 DUP9 SWAP7 SWAP8 DUP6 DUP3 SWAP11 MSTORE SWAP2 DUP3 PUSH1 0x0 EQ PUSH2 0x4D5 JUMPI POP POP PUSH1 0x1 EQ PUSH2 0xB8D JUMPI POP POP POP PUSH2 0x2F6 SWAP3 SWAP2 PUSH2 0x46A SWAP2 SUB DUP6 PUSH2 0xDB1 JUMP JUMPDEST SWAP2 SWAP1 DUP7 SWAP4 POP DUP3 DUP1 MSTORE PUSH32 0x290DECD9548B62A8D60345A988386FC84BA6BC95484008F6362F93160EF3E563 JUMPDEST DUP3 DUP5 LT PUSH2 0xBD0 JUMPI POP POP POP DUP3 ADD ADD DUP2 PUSH2 0x46A PUSH2 0x2F6 PUSH2 0x457 JUMP JUMPDEST DUP1 SLOAD DUP5 DUP11 ADD DUP7 ADD MSTORE DUP9 SWAP6 POP DUP8 SWAP5 SWAP1 SWAP4 ADD SWAP3 DUP2 ADD PUSH2 0xBB7 JUMP JUMPDEST SWAP3 PUSH1 0x7F AND SWAP3 PUSH2 0xB51 JUMP JUMPDEST DUP4 CALLVALUE PUSH2 0x519 JUMPI PUSH1 0x20 CALLDATASIZE PUSH1 0x3 NOT ADD SLT PUSH2 0x519 JUMPI PUSH2 0xC0C PUSH2 0xCA3 JUMP JUMPDEST PUSH2 0xC14 PUSH2 0x1201 JUMP JUMPDEST PUSH1 0x1 DUP1 PUSH1 0xA0 SHL SUB AND PUSH12 0xFFFFFFFFFFFFFFFFFFFFFFFF PUSH1 0xA0 SHL PUSH1 0xA SLOAD AND OR PUSH1 0xA SSTORE DUP1 RETURN JUMPDEST SWAP3 POP POP CALLVALUE PUSH2 0x1AE JUMPI PUSH1 0x20 CALLDATASIZE PUSH1 0x3 NOT ADD SLT PUSH2 0x1AE JUMPI CALLDATALOAD PUSH4 0xFFFFFFFF PUSH1 0xE0 SHL DUP2 AND DUP1 SWAP2 SUB PUSH2 0x1AE JUMPI PUSH1 0x20 SWAP3 POP PUSH4 0x80AC58CD PUSH1 0xE0 SHL DUP2 EQ SWAP1 DUP2 ISZERO PUSH2 0xC92 JUMPI JUMPDEST DUP2 ISZERO PUSH2 0xC81 JUMPI JUMPDEST POP ISZERO ISZERO DUP2 MSTORE RETURN JUMPDEST PUSH4 0x1FFC9A7 PUSH1 0xE0 SHL EQ SWAP1 POP CODESIZE PUSH2 0xC7A JUMP JUMPDEST PUSH4 0x5B5E139F PUSH1 0xE0 SHL DUP2 EQ SWAP2 POP PUSH2 0xC73 JUMP JUMPDEST PUSH1 0x4 CALLDATALOAD SWAP1 PUSH1 0x1 PUSH1 0x1 PUSH1 0xA0 SHL SUB DUP3 AND DUP3 SUB PUSH2 0xCB9 JUMPI JUMP JUMPDEST PUSH1 0x0 DUP1 REVERT JUMPDEST PUSH1 0x24 CALLDATALOAD SWAP1 PUSH1 0x1 PUSH1 0x1 PUSH1 0xA0 SHL SUB DUP3 AND DUP3 SUB PUSH2 0xCB9 JUMPI JUMP JUMPDEST PUSH1 0x0 JUMPDEST DUP4 DUP2 LT PUSH2 0xCE7 JUMPI POP POP PUSH1 0x0 SWAP2 ADD MSTORE JUMP JUMPDEST DUP2 DUP2 ADD MLOAD DUP4 DUP3 ADD MSTORE PUSH1 0x20 ADD PUSH2 0xCD7 JUMP JUMPDEST SWAP1 PUSH1 0x20 SWAP2 PUSH2 0xD10 DUP2 MLOAD DUP1 SWAP3 DUP2 DUP6 MSTORE DUP6 DUP1 DUP7 ADD SWAP2 ADD PUSH2 0xCD4 JUMP JUMPDEST PUSH1 0x1F ADD PUSH1 0x1F NOT AND ADD ADD SWAP1 JUMP JUMPDEST SWAP2 DUP2 PUSH1 0x1F DUP5 ADD SLT ISZERO PUSH2 0xCB9 JUMPI DUP3 CALLDATALOAD SWAP2 PUSH8 0xFFFFFFFFFFFFFFFF DUP4 GT PUSH2 0xCB9 JUMPI PUSH1 0x20 DUP4 DUP2 DUP7 ADD SWAP6 ADD ADD GT PUSH2 0xCB9 JUMPI JUMP JUMPDEST PUSH1 0x60 SWAP1 PUSH1 0x3 NOT ADD SLT PUSH2 0xCB9 JUMPI PUSH1 0x1 PUSH1 0x1 PUSH1 0xA0 SHL SUB SWAP1 PUSH1 0x4 CALLDATALOAD DUP3 DUP2 AND DUP2 SUB PUSH2 0xCB9 JUMPI SWAP2 PUSH1 0x24 CALLDATALOAD SWAP1 DUP2 AND DUP2 SUB PUSH2 0xCB9 JUMPI SWAP1 PUSH1 0x44 CALLDATALOAD SWAP1 JUMP JUMPDEST PUSH1 0x20 DUP2 ADD SWAP1 DUP2 LT PUSH8 0xFFFFFFFFFFFFFFFF DUP3 GT OR PUSH2 0xD9B JUMPI PUSH1 0x40 MSTORE JUMP JUMPDEST PUSH4 0x4E487B71 PUSH1 0xE0 SHL PUSH1 0x0 MSTORE PUSH1 0x41 PUSH1 0x4 MSTORE PUSH1 0x24 PUSH1 0x0 REVERT JUMPDEST SWAP1 PUSH1 0x1F DUP1 NOT SWAP2 ADD AND DUP2 ADD SWAP1 DUP2 LT PUSH8 0xFFFFFFFFFFFFFFFF DUP3 GT OR PUSH2 0xD9B JUMPI PUSH1 0x40 MSTORE JUMP JUMPDEST PUSH8 0xFFFFFFFFFFFFFFFF DUP2 GT PUSH2 0xD9B JUMPI PUSH1 0x1F ADD PUSH1 0x1F NOT AND PUSH1 0x20 ADD SWAP1 JUMP JUMPDEST SWAP3 SWAP2 SWAP3 PUSH2 0xDFB DUP3 PUSH2 0xDD3 JUMP JUMPDEST SWAP2 PUSH2 0xE09 PUSH1 0x40 MLOAD SWAP4 DUP5 PUSH2 0xDB1 JUMP JUMPDEST DUP3 SWAP5 DUP2 DUP5 MSTORE DUP2 DUP4 ADD GT PUSH2 0xCB9 JUMPI DUP3 DUP2 PUSH1 0x20 SWAP4 DUP5 PUSH1 0x0 SWAP7 ADD CALLDATACOPY ADD ADD MSTORE JUMP JUMPDEST PUSH1 0x1 PUSH1 0x1 PUSH1 0xA0 SHL SUB AND PUSH1 0x0 SWAP1 DUP2 MSTORE PUSH1 0x9 PUSH1 0x20 MSTORE PUSH1 0x40 SWAP1 KECCAK256 SLOAD SWAP1 DUP2 ISZERO PUSH2 0xE6A JUMPI PUSH1 0x20 SWAP2 PUSH1 0x0 MSTORE PUSH1 0x8 DUP3 MSTORE PUSH1 0x40 PUSH1 0x0 KECCAK256 DUP4 PUSH1 0x40 MLOAD SWAP5 DUP6 SWAP4 DUP5 CALLDATACOPY DUP3 ADD SWAP1 DUP2 MSTORE SUB ADD SWAP1 KECCAK256 SLOAD SWAP1 JUMP JUMPDEST POP POP POP PUSH1 0x0 SWAP1 JUMP JUMPDEST PUSH1 0x1 PUSH1 0x1 PUSH1 0xA0 SHL SUB SWAP2 DUP3 AND SWAP3 SWAP1 SWAP2 DUP4 ISZERO PUSH2 0x1099 JUMPI PUSH1 0x0 SWAP3 DUP3 DUP5 MSTORE PUSH1 0x20 SWAP5 PUSH1 0x2 DUP7 MSTORE PUSH1 0x40 SWAP6 DUP4 DUP8 DUP8 KECCAK256 SLOAD AND ISZERO DUP1 ISZERO PUSH2 0x1092 JUMPI JUMPDEST ISZERO PUSH2 0x1014 JUMPI SWAP1 DUP5 SWAP2 DUP3 DUP8 MSTORE PUSH1 0x2 DUP2 MSTORE DUP5 DUP9 DUP9 KECCAK256 SLOAD AND SWAP7 DUP8 SWAP2 CALLER ISZERO ISZERO DUP1 PUSH2 0xF7E JUMPI JUMPDEST POP SWAP1 PUSH1 0x2 PUSH32 0xDDF252AD1BE2C89B69C2B068FC378DAA952BA7F163C4A11628F55A4DF523B3EF SWAP3 DUP5 PUSH2 0xF4B JUMPI JUMPDEST DUP6 DUP4 MSTORE PUSH1 0x3 DUP2 MSTORE DUP12 DUP4 KECCAK256 DUP1 SLOAD PUSH1 0x1 ADD SWAP1 SSTORE DUP7 DUP4 MSTORE MSTORE DUP10 DUP2 KECCAK256 DUP1 SLOAD PUSH1 0x1 PUSH1 0x1 PUSH1 0xA0 SHL SUB NOT AND DUP6 OR SWAP1 SSTORE DUP1 LOG4 AND SWAP3 DUP4 DUP4 SUB PUSH2 0xF2A JUMPI POP POP POP POP JUMP JUMPDEST PUSH1 0x64 SWAP5 POP MLOAD SWAP3 PUSH4 0x64283D7B PUSH1 0xE0 SHL DUP5 MSTORE PUSH1 0x4 DUP5 ADD MSTORE PUSH1 0x24 DUP4 ADD MSTORE PUSH1 0x44 DUP3 ADD MSTORE REVERT JUMPDEST PUSH1 0x0 DUP8 DUP2 MSTORE PUSH1 0x4 PUSH1 0x20 MSTORE PUSH1 0x40 SWAP1 KECCAK256 DUP1 SLOAD PUSH1 0x1 PUSH1 0x1 PUSH1 0xA0 SHL SUB NOT AND SWAP1 SSTORE DUP5 DUP4 MSTORE PUSH1 0x3 DUP2 MSTORE DUP12 DUP4 KECCAK256 DUP1 SLOAD PUSH1 0x0 NOT ADD SWAP1 SSTORE PUSH2 0xEF1 JUMP JUMPDEST SWAP2 SWAP4 SWAP5 POP SWAP2 POP DUP1 PUSH2 0xFD3 JUMPI JUMPDEST ISZERO PUSH2 0xF9A JUMPI DUP6 SWAP3 SWAP2 DUP8 SWAP2 CODESIZE PUSH2 0xEC5 JUMP JUMPDEST DUP8 DUP7 DUP9 PUSH2 0xFB7 JUMPI PUSH1 0x24 SWAP2 MLOAD SWAP1 PUSH4 0x7E273289 PUSH1 0xE0 SHL DUP3 MSTORE PUSH1 0x4 DUP3 ADD MSTORE REVERT JUMPDEST PUSH1 0x44 SWAP2 MLOAD SWAP1 PUSH4 0x177E802F PUSH1 0xE0 SHL DUP3 MSTORE CALLER PUSH1 0x4 DUP4 ADD MSTORE PUSH1 0x24 DUP3 ADD MSTORE REVERT JUMPDEST POP CALLER DUP8 EQ DUP1 ISZERO PUSH2 0xFF8 JUMPI JUMPDEST DUP1 PUSH2 0xF8A JUMPI POP DUP6 DUP3 MSTORE PUSH1 0x4 DUP2 MSTORE CALLER DUP6 DUP10 DUP5 KECCAK256 SLOAD AND EQ PUSH2 0xF8A JUMP JUMPDEST POP DUP7 DUP3 MSTORE PUSH1 0x5 DUP2 MSTORE DUP8 DUP3 KECCAK256 CALLER DUP4 MSTORE DUP2 MSTORE PUSH1 0xFF DUP9 DUP4 KECCAK256 SLOAD AND PUSH2 0xFDE JUMP JUMPDEST PUSH1 0xA4 SWAP1 DUP8 MLOAD SWAP1 PUSH3 0x461BCD PUSH1 0xE5 SHL DUP3 MSTORE PUSH1 0x4 DUP3 ADD MSTORE PUSH1 0x4C PUSH1 0x24 DUP3 ADD MSTORE PUSH32 0x536F756C626F756E643A204E46547320617265206E6F6E2D7472616E73666572 PUSH1 0x44 DUP3 ADD MSTORE PUSH32 0x61626C6520616E64206561726E6564206F6E6C79207669612070726564696374 PUSH1 0x64 DUP3 ADD MSTORE PUSH12 0x696F6E206163637572616379 PUSH1 0xA0 SHL PUSH1 0x84 DUP3 ADD MSTORE REVERT JUMPDEST POP DUP6 PUSH2 0xEA4 JUMP JUMPDEST PUSH1 0x40 MLOAD PUSH4 0x32505749 PUSH1 0xE1 SHL DUP2 MSTORE PUSH1 0x0 PUSH1 0x4 DUP3 ADD MSTORE PUSH1 0x24 SWAP1 REVERT JUMPDEST PUSH2 0x10BD DUP4 DUP4 DUP4 PUSH2 0xE72 JUMP JUMPDEST DUP2 EXTCODESIZE PUSH2 0x10CA JUMPI JUMPDEST POP POP POP POP JUMP JUMPDEST PUSH1 0x40 MLOAD PUSH4 0xA85BD01 PUSH1 0xE1 SHL DUP1 DUP3 MSTORE CALLER PUSH1 0x4 DUP4 ADD MSTORE PUSH1 0x1 PUSH1 0x1 PUSH1 0xA0 SHL SUB SWAP3 DUP4 AND PUSH1 0x24 DUP4 ADD MSTORE PUSH1 0x44 DUP3 ADD SWAP5 SWAP1 SWAP5 MSTORE PUSH1 0x80 PUSH1 0x64 DUP3 ADD MSTORE PUSH1 0x20 SWAP6 SWAP3 SWAP1 SWAP2 AND SWAP4 SWAP1 SWAP3 SWAP1 DUP4 SWAP1 PUSH2 0x1118 SWAP1 PUSH1 0x84 DUP4 ADD SWAP1 PUSH2 0xCF7 JUMP JUMPDEST SUB SWAP3 DUP6 DUP2 PUSH1 0x0 SWAP6 DUP2 DUP8 DUP10 GAS CALL DUP5 SWAP2 DUP2 PUSH2 0x11C1 JUMPI JUMPDEST POP PUSH2 0x118C JUMPI POP POP POP RETURNDATASIZE PUSH1 0x0 EQ PUSH2 0x1184 JUMPI RETURNDATASIZE PUSH2 0x1146 DUP2 PUSH2 0xDD3 JUMP JUMPDEST SWAP1 PUSH2 0x1154 PUSH1 0x40 MLOAD SWAP3 DUP4 PUSH2 0xDB1 JUMP JUMPDEST DUP2 MSTORE DUP1 SWAP2 DUP5 RETURNDATASIZE SWAP3 ADD RETURNDATACOPY JUMPDEST DUP1 MLOAD SWAP3 DUP4 PUSH2 0x117F JUMPI PUSH1 0x40 MLOAD PUSH4 0x32505749 PUSH1 0xE1 SHL DUP2 MSTORE PUSH1 0x4 DUP2 ADD DUP5 SWAP1 MSTORE PUSH1 0x24 SWAP1 REVERT JUMPDEST ADD SWAP1 POP REVERT JUMPDEST POP PUSH1 0x60 PUSH2 0x115E JUMP JUMPDEST SWAP2 SWAP5 POP SWAP2 POP PUSH4 0xFFFFFFFF PUSH1 0xE0 SHL AND SUB PUSH2 0x11A9 JUMPI POP CODESIZE DUP1 DUP1 DUP1 PUSH2 0x10C4 JUMP JUMPDEST PUSH1 0x24 SWAP1 PUSH1 0x40 MLOAD SWAP1 PUSH4 0x32505749 PUSH1 0xE1 SHL DUP3 MSTORE PUSH1 0x4 DUP3 ADD MSTORE REVERT JUMPDEST SWAP1 SWAP2 POP DUP7 DUP2 DUP2 RETURNDATASIZE DUP4 GT PUSH2 0x11FA JUMPI JUMPDEST PUSH2 0x11D9 DUP2 DUP4 PUSH2 0xDB1 JUMP JUMPDEST DUP2 ADD SUB SLT PUSH2 0x35E JUMPI MLOAD PUSH1 0x1 PUSH1 0x1 PUSH1 0xE0 SHL SUB NOT DUP2 AND DUP2 SUB PUSH2 0x35E JUMPI SWAP1 CODESIZE PUSH2 0x112C JUMP JUMPDEST POP RETURNDATASIZE PUSH2 0x11CF JUMP JUMPDEST PUSH1 0x6 SLOAD PUSH1 0x1 PUSH1 0x1 PUSH1 0xA0 SHL SUB AND CALLER SUB PUSH2 0x1215 JUMPI JUMP JUMPDEST PUSH1 0x40 MLOAD PUSH4 0x118CDAA7 PUSH1 0xE0 SHL DUP2 MSTORE CALLER PUSH1 0x4 DUP3 ADD MSTORE PUSH1 0x24 SWAP1 REVERT JUMPDEST PUSH1 0x0 DUP2 DUP2 MSTORE PUSH1 0x2 PUSH1 0x20 MSTORE PUSH1 0x40 SWAP1 KECCAK256 SLOAD PUSH1 0x1 PUSH1 0x1 PUSH1 0xA0 SHL SUB AND SWAP1 DUP2 ISZERO PUSH2 0x1250 JUMPI POP SWAP1 JUMP JUMPDEST PUSH1 0x24 SWAP1 PUSH1 0x40 MLOAD SWAP1 PUSH4 0x7E273289 PUSH1 0xE0 SHL DUP3 MSTORE PUSH1 0x4 DUP3 ADD MSTORE REVERT INVALID LOG2 PUSH5 0x6970667358 0x22 SLT KECCAK256 0xF9 CALLDATALOAD 0x21 SWAP6 0xF9 0xBD 0xF7 DUP2 KECCAK256 SWAP1 SLT 0x29 TIMESTAMP 0xD5 PUSH22 0x94264F1DEBA209893C56BA5D0F31293B2D64736F6C63 NUMBER STOP ADDMOD XOR STOP CALLER "},"methodIdentifiers":{"addReputation(address,string,uint256)":"61ef5136","approve(address,uint256)":"095ea7b3","balanceOf(address)":"70a08231","categoryReputation(uint256,string)":"e998b0c6","getApproved(uint256)":"081812fc","getCategoryReputation(address,string)":"0c0e2d9b","isApprovedForAll(address,address)":"e985e9c5","name()":"06fdde03","nextTokenId()":"75794a3c","owner()":"8da5cb5b","ownerOf(uint256)":"6352211e","predictionMarket()":"def114b6","renounceOwnership()":"715018a6","safeTransferFrom(address,address,uint256)":"42842e0e","safeTransferFrom(address,address,uint256,bytes)":"b88d4fde","setApprovalForAll(address,bool)":"a22cb465","setPredictionMarket(address)":"03b88ba2","supportsInterface(bytes4)":"01ffc9a7","symbol()":"95d89b41","tokenURI(uint256)":"c87b56dd","transferFrom(address,address,uint256)":"23b872dd","transferOwnership(address)":"f2fde38b","userToToken(address)":"28d249fe"}}}}}