{
  "_format": "hh-sol-artifact-1",
  "contractName": "PredictionMarket",
  "sourceName": "contracts/PredictionMarket.sol",
  "abi": [
    {
      "inputs": [
        {
          "internalType": "address",
          "name": "_resolver",
          "type": "address"
        }
      ],
      "stateMutability": "nonpayable",
      "type": "constructor"
    },
    {
      "anonymous": false,
      "inputs": [
        {
          "indexed": true,
          "internalType": "uint256",
          "name": "id",
          "type": "uint256"
        },
        {
          "indexed": false,
          "internalType": "string",
          "name": "question",
          "type": "string"
        },
        {
          "indexed": false,
          "internalType": "string",
          "name": "category",
          "type": "string"
        },
        {
          "indexed": false,
          "internalType": "string[]",
          "name": "options",
          "type": "string[]"
        },
        {
          "indexed": false,
          "internalType": "uint256",
          "name": "deadline",
          "type": "uint256"
        },
        {
          "indexed": false,
          "internalType": "address",
          "name": "creator",
          "type": "address"
        }
      ],
      "name": "MarketCreated",
      "type": "event"
    },
    {
      "anonymous": false,
      "inputs": [
        {
          "indexed": true,
          "internalType": "uint256",
          "name": "id",
          "type": "uint256"
        },
        {
          "indexed": false,
          "internalType": "uint256",
          "name": "outcomeIndex",
          "type": "uint256"
        },
        {
          "indexed": false,
          "internalType": "string",
          "name": "evidence",
          "type": "string"
        }
      ],
      "name": "MarketResolved",
      "type": "event"
    },
    {
      "anonymous": false,
      "inputs": [
        {
          "indexed": true,
          "internalType": "uint256",
          "name": "id",
          "type": "uint256"
        },
        {
          "indexed": true,
          "internalType": "address",
          "name": "user",
          "type": "address"
        },
        {
          "indexed": false,
          "internalType": "uint256",
          "name": "amount",
          "type": "uint256"
        }
      ],
      "name": "RewardClaimed",
      "type": "event"
    },
    {
      "anonymous": false,
      "inputs": [
        {
          "indexed": true,
          "internalType": "uint256",
          "name": "id",
          "type": "uint256"
        },
        {
          "indexed": true,
          "internalType": "address",
          "name": "user",
          "type": "address"
        },
        {
          "indexed": false,
          "internalType": "uint256",
          "name": "optionIndex",
          "type": "uint256"
        },
        {
          "indexed": false,
          "internalType": "uint256",
          "name": "amountPaid",
          "type": "uint256"
        },
        {
          "indexed": false,
          "internalType": "uint256",
          "name": "sharesReceived",
          "type": "uint256"
        }
      ],
      "name": "SharesBought",
      "type": "event"
    },
    {
      "anonymous": false,
      "inputs": [
        {
          "indexed": true,
          "internalType": "uint256",
          "name": "id",
          "type": "uint256"
        },
        {
          "indexed": true,
          "internalType": "address",
          "name": "user",
          "type": "address"
        },
        {
          "indexed": false,
          "internalType": "uint256",
          "name": "optionIndex",
          "type": "uint256"
        },
        {
          "indexed": false,
          "internalType": "uint256",
          "name": "sharesSold",
          "type": "uint256"
        },
        {
          "indexed": false,
          "internalType": "uint256",
          "name": "amountReceived",
          "type": "uint256"
        }
      ],
      "name": "SharesSold",
      "type": "event"
    },
    {
      "inputs": [],
      "name": "PRECISION",
      "outputs": [
        {
          "internalType": "uint256",
          "name": "",
          "type": "uint256"
        }
      ],
      "stateMutability": "view",
      "type": "function"
    },
    {
      "inputs": [],
      "name": "PROTOCOL_FEE",
      "outputs": [
        {
          "internalType": "uint256",
          "name": "",
          "type": "uint256"
        }
      ],
      "stateMutability": "view",
      "type": "function"
    },
    {
      "inputs": [
        {
          "internalType": "uint256",
          "name": "_id",
          "type": "uint256"
        },
        {
          "internalType": "uint256",
          "name": "_outcomeIndex",
          "type": "uint256"
        },
        {
          "internalType": "string",
          "name": "_evidence",
          "type": "string"
        },
        {
          "internalType": "uint256",
          "name": "_confidence",
          "type": "uint256"
        }
      ],
      "name": "aiResolve",
      "outputs": [],
      "stateMutability": "nonpayable",
      "type": "function"
    },
    {
      "inputs": [],
      "name": "aiResolver",
      "outputs": [
        {
          "internalType": "address",
          "name": "",
          "type": "address"
        }
      ],
      "stateMutability": "view",
      "type": "function"
    },
    {
      "inputs": [
        {
          "internalType": "uint256",
          "name": "_id",
          "type": "uint256"
        },
        {
          "internalType": "uint256",
          "name": "_optionIndex",
          "type": "uint256"
        }
      ],
      "name": "buyShares",
      "outputs": [],
      "stateMutability": "payable",
      "type": "function"
    },
    {
      "inputs": [
        {
          "internalType": "uint256",
          "name": "_id",
          "type": "uint256"
        }
      ],
      "name": "claimReward",
      "outputs": [],
      "stateMutability": "nonpayable",
      "type": "function"
    },
    {
      "inputs": [
        {
          "internalType": "string",
          "name": "_question",
          "type": "string"
        },
        {
          "internalType": "string",
          "name": "_category",
          "type": "string"
        },
        {
          "internalType": "string[]",
          "name": "_options",
          "type": "string[]"
        },
        {
          "internalType": "uint256",
          "name": "_durationHours",
          "type": "uint256"
        },
        {
          "internalType": "uint256",
          "name": "_minStake",
          "type": "uint256"
        }
      ],
      "name": "createMarket",
      "outputs": [
        {
          "internalType": "uint256",
          "name": "",
          "type": "uint256"
        }
      ],
      "stateMutability": "payable",
      "type": "function"
    },
    {
      "inputs": [],
      "name": "getAllMarkets",
      "outputs": [
        {
          "components": [
            {
              "internalType": "uint256",
              "name": "id",
              "type": "uint256"
            },
            {
              "internalType": "string",
              "name": "question",
              "type": "string"
            },
            {
              "internalType": "string",
              "name": "category",
              "type": "string"
            },
            {
              "internalType": "string[]",
              "name": "options",
              "type": "string[]"
            },
            {
              "internalType": "uint256",
              "name": "deadline",
              "type": "uint256"
            },
            {
              "internalType": "address",
              "name": "creator",
              "type": "address"
            },
            {
              "internalType": "enum PredictionMarket.Status",
              "name": "status",
              "type": "uint8"
            },
            {
              "internalType": "uint256",
              "name": "outcomeIndex",
              "type": "uint256"
            },
            {
              "internalType": "string",
              "name": "aiEvidence",
              "type": "string"
            },
            {
              "internalType": "uint256",
              "name": "totalSets",
              "type": "uint256"
            },
            {
              "internalType": "uint256[]",
              "name": "shareReserves",
              "type": "uint256[]"
            },
            {
              "internalType": "uint256",
              "name": "createdAt",
              "type": "uint256"
            },
            {
              "internalType": "uint256",
              "name": "minStake",
              "type": "uint256"
            }
          ],
          "internalType": "struct PredictionMarket.Market[]",
          "name": "",
          "type": "tuple[]"
        }
      ],
      "stateMutability": "view",
      "type": "function"
    },
    {
      "inputs": [
        {
          "internalType": "uint256",
          "name": "_id",
          "type": "uint256"
        }
      ],
      "name": "getMarket",
      "outputs": [
        {
          "components": [
            {
              "internalType": "uint256",
              "name": "id",
              "type": "uint256"
            },
            {
              "internalType": "string",
              "name": "question",
              "type": "string"
            },
            {
              "internalType": "string",
              "name": "category",
              "type": "string"
            },
            {
              "internalType": "string[]",
              "name": "options",
              "type": "string[]"
            },
            {
              "internalType": "uint256",
              "name": "deadline",
              "type": "uint256"
            },
            {
              "internalType": "address",
              "name": "creator",
              "type": "address"
            },
            {
              "internalType": "enum PredictionMarket.Status",
              "name": "status",
              "type": "uint8"
            },
            {
              "internalType": "uint256",
              "name": "outcomeIndex",
              "type": "uint256"
            },
            {
              "internalType": "string",
              "name": "aiEvidence",
              "type": "string"
            },
            {
              "internalType": "uint256",
              "name": "totalSets",
              "type": "uint256"
            },
            {
              "internalType": "uint256[]",
              "name": "shareReserves",
              "type": "uint256[]"
            },
            {
              "internalType": "uint256",
              "name": "createdAt",
              "type": "uint256"
            },
            {
              "internalType": "uint256",
              "name": "minStake",
              "type": "uint256"
            }
          ],
          "internalType": "struct PredictionMarket.Market",
          "name": "",
          "type": "tuple"
        }
      ],
      "stateMutability": "view",
      "type": "function"
    },
    {
      "inputs": [
        {
          "internalType": "uint256",
          "name": "_id",
          "type": "uint256"
        },
        {
          "internalType": "address",
          "name": "_user",
          "type": "address"
        }
      ],
      "name": "getUserShares",
      "outputs": [
        {
          "internalType": "uint256[]",
          "name": "",
          "type": "uint256[]"
        }
      ],
      "stateMutability": "view",
      "type": "function"
    },
    {
      "inputs": [],
      "name": "marketCount",
      "outputs": [
        {
          "internalType": "uint256",
          "name": "",
          "type": "uint256"
        }
      ],
      "stateMutability": "view",
      "type": "function"
    },
    {
      "inputs": [
        {
          "internalType": "uint256",
          "name": "",
          "type": "uint256"
        }
      ],
      "name": "markets",
      "outputs": [
        {
          "internalType": "uint256",
          "name": "id",
          "type": "uint256"
        },
        {
          "internalType": "string",
          "name": "question",
          "type": "string"
        },
        {
          "internalType": "string",
          "name": "category",
          "type": "string"
        },
        {
          "internalType": "uint256",
          "name": "deadline",
          "type": "uint256"
        },
        {
          "internalType": "address",
          "name": "creator",
          "type": "address"
        },
        {
          "internalType": "enum PredictionMarket.Status",
          "name": "status",
          "type": "uint8"
        },
        {
          "internalType": "uint256",
          "name": "outcomeIndex",
          "type": "uint256"
        },
        {
          "internalType": "string",
          "name": "aiEvidence",
          "type": "string"
        },
        {
          "internalType": "uint256",
          "name": "totalSets",
          "type": "uint256"
        },
        {
          "internalType": "uint256",
          "name": "createdAt",
          "type": "uint256"
        },
        {
          "internalType": "uint256",
          "name": "minStake",
          "type": "uint256"
        }
      ],
      "stateMutability": "view",
      "type": "function"
    },
    {
      "inputs": [
        {
          "internalType": "uint256",
          "name": "_id",
          "type": "uint256"
        },
        {
          "internalType": "uint256",
          "name": "_optionIndex",
          "type": "uint256"
        },
        {
          "internalType": "uint256",
          "name": "_amount",
          "type": "uint256"
        }
      ],
      "name": "sellShares",
      "outputs": [],
      "stateMutability": "nonpayable",
      "type": "function"
    },
    {
      "inputs": [
        {
          "internalType": "uint256",
          "name": "",
          "type": "uint256"
        },
        {
          "internalType": "uint256",
          "name": "",
          "type": "uint256"
        },
        {
          "internalType": "address",
          "name": "",
          "type": "address"
        }
      ],
      "name": "shares",
      "outputs": [
        {
          "internalType": "uint256",
          "name": "",
          "type": "uint256"
        }
      ],
      "stateMutability": "view",
      "type": "function"
    }
  ],
  "bytecode": "0x60803461007457601f611c6a38819003918201601f19168301916001600160401b038311848410176100795780849260209460405283398101031261007457516001600160a01b0381169081900361007457600380546001600160a01b031916919091179055604051611bda90816100908239f35b600080fd5b634e487b7160e01b600052604160045260246000fdfe608080604052600436101561001357600080fd5b60003560e01c9081630b4501fd1461157f57508063569c9e7014610df3578063835dc40b14610cfe5780638532267214610ca3578063aaf5eb6814610c80578063ae169a5014610b16578063b0772d0b146109f4578063b1283e7714610905578063beebc5da146106a8578063cf697adb14610418578063d67c687214610152578063e354ea7814610129578063eb44fdd3146100dc5763ec979082146100b957600080fd5b346100d75760003660031901126100d7576020600054604051908152f35b600080fd5b346100d75760203660031901126100d7576100f5611964565b50600435600052600160205261012561011160406000206119c5565b604051918291602083526020830190611613565b0390f35b346100d75760003660031901126100d7576003546040516001600160a01b039091168152602090f35b346100d75760603660031901126100d7576004356024359060443581600052600160209060018252604060002060ff600582015460a01c16926003936003811015610402576101a19015611b31565b85600052600281526040600020876000528152604060002033600052815284604060002054106103c857600982016101d988826118bd565b90549060031b1c946101eb87876118b0565b92600885019361021185549861020b8b6102058c8261189d565b926118b0565b90611937565b918260011b838104600214841517156103b257610232606485920482611957565b9910610375579061029d918b6000526002815260406000208d60005281526040600020903360005252604060002061026b8b8254611957565b9055610278838754611957565b86556102848c866118bd565b90919082549060031b91821b91600019901b1916179055565b600094600301865b610321575b505050505050508060008115610318575b600080809381933390f11561030c576040805194855260208501929092529083015233917f3af86dc63bd5b48eb0bc47e00838d220409d0c19a0743956381d5296335226269080606081015b0390a3005b6040513d6000823e3d90fd5b506108fc6102bb565b80548610156103705786868c82981461036b5761036461035a61034483896118bd565b905490881b1c61020b876102058c54809461189d565b61028483896118bd565b01956102a5565b610364565b6102aa565b6064906040519062461bcd60e51b825260048201526016602482015275496e73756666696369656e74206c697175696469747960501b6044820152fd5b634e487b7160e01b600052601160045260246000fd5b6064906040519062461bcd60e51b825260048201526013602482015272496e73756666696369656e742073686172657360681b6044820152fd5b634e487b7160e01b600052602160045260246000fd5b346100d75760803660031901126100d7576024356004356001600160401b036044358181116100d75761044f903690600401611599565b6003549194916001600160a01b03163303610670578360005260019260209360018552604060002060058101805460ff8160a01c16600381101561040257610638579082916104a5600360079501548910611b68565b60ff60a01b1916600160a01b1790556006810186905501918311610622576104cd825461175b565b601f81116105e7575b50600090601f84116001146105595750917f230e0c4260efa5ac59d08aaabf3711693fe4f1df54fcb28cc4981a800e58630695969161053082806105499660009161054e575b508160011b916000199060031b1c19161790565b90555b60408051958695865285015260408401916118eb565b0390a2005b90508501358b61051c565b90601f1984168360005286600020926000905b8282106105d0575050917f230e0c4260efa5ac59d08aaabf3711693fe4f1df54fcb28cc4981a800e58630697989391856105499694106105b6575b5050600182811b019055610533565b840135600019600385901b60f8161c1916905588806105a7565b8a840135855593840193928801929088019061056c565b610612908360005286600020601f860160051c810191888710610618575b601f0160051c0190611886565b876104d6565b9091508190610605565b634e487b7160e01b600052604160045260246000fd5b60405162461bcd60e51b815260048101899052601060248201526f105b1c9958591e481c995cdbdb1d995960821b6044820152606490fd5b60405162461bcd60e51b815260206004820152601060248201526f27b7363c9020a4903932b9b7b63b32b960811b6044820152606490fd5b60403660031901126100d7576004356024359080600052600160206001815260406000209160ff600584015460a01c1660039081811015610402576106ed9015611b31565b60048401544210156108d65734156108a257808493929401805491610713838910611b68565b600985019161072289846118bd565b905490831b1c9384906000905b80821061084b5750509060086107538695949361074e8b983492611957565b6118b0565b97016107603482546118b0565b90556000975b6107df575b89897fa952feb34d87c74c5dbfabeeaff86860edc93e5b051cbee07f36ce329fe4532e6103078a8a84600052600281526040600020866000528152604060002090336000525260406000206107c18282546118b0565b90556040805195865234602087015285015233939081906060820190565b80548810156108465784888b8298999a1460001461080e576108058661028483886118bd565b01979695610766565b61084161081b82876118bd565b61082a348354838a1b1c6118b0565b825460001960039390931b92831b1916911b179055565b610805565b61076b565b909598809798998c881461089c5761087661088f9161086a8a8a6118bd565b905490891b1c9061189d565b61020b6108838a8a6118bd565b349154908a1b1c6118b0565b965b01909897969861072f565b96610891565b60405162461bcd60e51b815260048101849052600c60248201526b16995c9bc81c185e5b595b9d60a21b6044820152606490fd5b60405162461bcd60e51b8152600481018490526007602482015266115e1c1a5c995960ca1b6044820152606490fd5b346100d75760203660031901126100d757600435600052600160205260406000208054610934600183016117d2565b91610941600282016117d2565b6004820154916109dd6005820154936006830154610961600785016117d2565b906109cb6008860154976109a4600b600a890154980154986109966040519d8e9d8e61016091815281602082015201906115c6565b8c810360408e0152906115c6565b60608b01959095526001600160a01b03811660808b015260a0808b0191901c60ff16611606565b60c088015286820360e08801526115c6565b926101008501526101208401526101408301520390f35b346100d75760003660031901126100d757600054610a118161190c565b90610a1f60405192836117b1565b808252610a2b8161190c565b60209190601f190160005b818110610afa57505060019060015b81811115610aae57505060405191808301818452845180915260408401918060408360051b8701019601926000905b838210610a815786880387f35b90919293948380610a9d839a603f198b82030186528951611613565b999701959493919091019101610a74565b806000959395528484526040600020906000198101918183116103b257610af292610adb610aec926119c5565b610ae58288611923565b5285611923565b50611877565b939193610a45565b8390610b07959395611964565b82828601015201939193610a36565b346100d7576020806003193601126100d7576004358060005260018252604060002060ff600582015460a01c16600381101561040257600103610c4c5760060154816000526002835260406000208160005283526040600020336000528352604060002054908115610c1357826000526002845260406000209060005283526040600020336000528352600060408120558060011b908082046002036103b2576064610bc3920490611957565b918260008115610c0a575b600080809381933390f11561030c577f24b5efa61dd1cfc659205a97fb8ed868f3cb8c81922bab2b96423e5de1de2cb7906040519384523393a3005b506108fc610bce565b60405162461bcd60e51b81526004810185905260116024820152704e6f2077696e6e696e672073686172657360781b6044820152606490fd5b60405162461bcd60e51b815260048101849052600c60248201526b139bdd081c995cdbdb1d995960a21b6044820152606490fd5b346100d75760003660031901126100d7576020604051670de0b6b3a76400008152f35b346100d75760603660031901126100d7576044356001600160a01b038116908190036100d757600435600052600260205260406000206024356000526020526040600020906000526020526020604060002054604051908152f35b346100d75760403660031901126100d7576004356024356001600160a01b038116908190036100d757816000526001602060018152600360406000200154610d458161190c565b93610d5360405195866117b1565b818552610d5f8261190c565b8584019690601f190136883760005b838110610db1575050505060405192818401908285525180915260408401949160005b828110610d9e5785870386f35b8351875295810195928101928401610d91565b94809795826000989698526002885260406000208160005288526040600020846000528852604060002054610de68288611923565b5201969496959395610d6e565b60a03660031901126100d7576004356001600160401b0381116100d757610e1e903690600401611599565b906024356001600160401b0381116100d757610e3e903690600401611599565b91906001600160401b03604435116100d7573660236044350112156100d7576001600160401b0360443560040135116100d7573660246044356004013560051b6044350101116100d757608435341061153a576002604435600401351061150057610eaa600054611877565b928360005583600052600160205260406000208481556001600160401b03861161062257610edb600182015461175b565b601f81116114cb575b50600086601f811160011461145e5780610f139260009161145357508160011b916000199060031b1c19161790565b60018201555b6001600160401b03821161062257610f34600282015461175b565b601f811161141e575b50600082601f81116001146113b15780610f6c926000916113a657508160011b916000199060031b1c19161790565b60028201555b600160401b6044356004013511610622576003810180546004604435013591829055908111611328575b506024604435016003820160005260206000206000915b60443560040135831061118c57505050610e1060643581606435020481146064351517156103b257610fe99060643502426118b0565b60048201556005810180546001600160a81b0319163360ff60a01b191617905542600a820155608435600b82015534600882015560005b60443560040135811061114257509061104e600461105c94930154946040519760a0895260a08901916118eb565b9186830360208801526118eb565b908382036040850152604435600401358252602082019160206044356004013560051b820101926024604435019160005b6044356004013581106110d957602087807fe1e1c311bce995fbe4e072f3a1bad5aa4dcb6219c91f719c507a07229400a6378b808b8b60608301523360808301520390a2604051908152f35b90919294601f1983820301845285356042196044353603018112156100d757604435016001600160401b036024820135116100d7576024810135360360448201136100d757602061113660019383604460248596013591016118eb565b9701940192910161108d565b600982015490600160401b8210156106225761118661116e8360018095016009870155600986016118bd565b349082549060031b91821b91600019901b1916179055565b01611020565b604435360360421901813512156100d7576001600160401b0360248235604435010135116100d75760448035823501602481013536039101136100d7576111d3825461175b565b601f81116112ed575b506000601f602483356044350101351160011461124f57602060019261122e84936000906024843560443501013561123d575b5060248335604435010135908160011b916000199060031b1c19161790565b85555b01920192019190610fb3565b6044915083358235010101358e61120f565b8260005260206000209060005b60443584350160240135601f191681106112ce5750600192839260209260443583350160240135601f198116106112a5575b50508260248235604435010135811b018555611231565b604460001960f860248635843501013560031b161c199184358235010101351690558c8061128e565b909160206001819260448688358235010101358155019301910161125c565b60008381526020908190206113229260443585350160240135601f810160051c8301931161061857601f0160051c0190611886565b896111dc565b600382016000526020600020906044356004013582015b818301811061134f575050610f9c565b8061135c6001925461175b565b80611369575b500161133f565b601f8111831461137f5750600081555b8a611362565b60009082825261139d601f60208420920160051c8201858301611886565b81835555611379565b90508501358961051c565b506002820160005260206000209060005b601f1985168110611406575083601f198116106113ec575b5050600182811b016002820155610f72565b840135600019600385901b60f8161c1916905586806113da565b909160206001819285890135815501930191016113c2565b61144d90600283016000526020600020601f850160051c8101916020861061061857601f0160051c0190611886565b86610f3d565b90508601358961051c565b506001820160005260206000209060005b601f19891681106114b3575087601f19811610611499575b5050600186811b016001820155610f19565b850135600019600389901b60f8161c191690558680611487565b9091602060018192858a01358155019301910161146f565b6114fa90600183016000526020600020601f890160051c81019160208a1061061857601f0160051c0190611886565b86610ee4565b60405162461bcd60e51b81526020600482015260126024820152714174206c656173742032206f7074696f6e7360701b6044820152606490fd5b60405162461bcd60e51b815260206004820152601e60248201527f4d7573742070726f7669646520696e697469616c206c697175696469747900006044820152606490fd5b346100d75760003660031901126100d75780600260209252f35b9181601f840112156100d7578235916001600160401b0383116100d757602083818601950101116100d757565b919082519283825260005b8481106115f2575050826000602080949584010152601f8019910116010190565b6020818301810151848301820152016115d1565b9060038210156104025752565b906101a09180518252611649611637602094858401519080878701528501906115c6565b604083015184820360408601526115c6565b6060820151838203606085015280518083528583019286808360051b8301019301936000915b888484106117305750505050608084810151908601525060a0808401516001600160a01b03169085015260c0808401516116ce93506116b091860190611606565b60e083015160e08501526101008084015190858303908601526115c6565b9261012080830151908401526101409384830151948482039085015281808651928381520195019160005b82811061171c575050505061016080820151908301526101808091015191015290565b8351875295810195928101926001016116f9565b8061174b60019394959697601f1986820301875289516115c6565b970193019301919493929061166f565b90600182811c9216801561178b575b602083101461177557565b634e487b7160e01b600052602260045260246000fd5b91607f169161176a565b6101a081019081106001600160401b0382111761062257604052565b90601f801991011681019081106001600160401b0382111761062257604052565b906040519182600082546117e58161175b565b908184526020946001916001811690816000146118555750600114611816575b505050611814925003836117b1565b565b600090815285812095935091905b81831061183d5750506118149350820101388080611805565b85548884018501529485019487945091830191611824565b9250505061181494925060ff191682840152151560051b820101388080611805565b60001981146103b25760010190565b818110611891575050565b60008155600101611886565b818102929181159184041417156103b257565b919082018092116103b257565b80548210156118d55760005260206000200190600090565b634e487b7160e01b600052603260045260246000fd5b908060209392818452848401376000828201840152601f01601f1916010190565b6001600160401b0381116106225760051b60200190565b80518210156118d55760209160051b010190565b8115611941570490565b634e487b7160e01b600052601260045260246000fd5b919082039182116103b257565b6040519061197182611795565b81610180600091828152606080602083015280604083015280808301528360808301528360a08301528360c08301528360e08301528061010083015283610120830152610140820152826101608201520152565b906040516119d281611795565b80928054825260016119e6600183016117d2565b90602091828501526119fa600284016117d2565b604085015260038301908154611a0f8161190c565b90611a1d60405192836117b1565b80825284820160009485528585208486925b88858510611b165750505050505060608601526004840154608086015260ff600585015460018060a01b03811660a088015260a01c166003811015611b025760c0860152600684015460e086015290611a8a600785016117d2565b610100860152600884015461012086015260098401916040518094808554928381520194845280842093905b828210611aed5750505050509181611ad5600b936101809503826117b1565b610140850152600a8101546101608501520154910152565b84548652948501949383019390830190611ab6565b634e487b7160e01b83526021600452602483fd5b8291611b21856117d2565b8152019201920191908590611a2f565b15611b3857565b60405162461bcd60e51b81526020600482015260086024820152672737ba1037b832b760c11b6044820152606490fd5b15611b6f57565b60405162461bcd60e51b815260206004820152600d60248201526c092dcecc2d8d2c840d2dcc8caf609b1b6044820152606490fdfea2646970667358221220031d9eabe0c544da964b34714b44c448864263e0ff73562e40a333e76ef7738464736f6c63430008180033",
  "linkReferences": {},
  "deployedLinkReferences": {}
}