{
  "_format": "hh-sol-artifact-1",
  "contractName": "ReputationNFT",
  "sourceName": "contracts/ReputationNFT.sol",
  "abi": [
    {
      "inputs": [],
      "stateMutability": "nonpayable",
      "type": "constructor"
    },
    {
      "inputs": [
        {
          "internalType": "address",
          "name": "sender",
          "type": "address"
        },
        {
          "internalType": "uint256",
          "name": "tokenId",
          "type": "uint256"
        },
        {
          "internalType": "address",
          "name": "owner",
          "type": "address"
        }
      ],
      "name": "ERC721IncorrectOwner",
      "type": "error"
    },
    {
      "inputs": [
        {
          "internalType": "address",
          "name": "operator",
          "type": "address"
        },
        {
          "internalType": "uint256",
          "name": "tokenId",
          "type": "uint256"
        }
      ],
      "name": "ERC721InsufficientApproval",
      "type": "error"
    },
    {
      "inputs": [
        {
          "internalType": "address",
          "name": "approver",
          "type": "address"
        }
      ],
      "name": "ERC721InvalidApprover",
      "type": "error"
    },
    {
      "inputs": [
        {
          "internalType": "address",
          "name": "operator",
          "type": "address"
        }
      ],
      "name": "ERC721InvalidOperator",
      "type": "error"
    },
    {
      "inputs": [
        {
          "internalType": "address",
          "name": "owner",
          "type": "address"
        }
      ],
      "name": "ERC721InvalidOwner",
      "type": "error"
    },
    {
      "inputs": [
        {
          "internalType": "address",
          "name": "receiver",
          "type": "address"
        }
      ],
      "name": "ERC721InvalidReceiver",
      "type": "error"
    },
    {
      "inputs": [
        {
          "internalType": "address",
          "name": "sender",
          "type": "address"
        }
      ],
      "name": "ERC721InvalidSender",
      "type": "error"
    },
    {
      "inputs": [
        {
          "internalType": "uint256",
          "name": "tokenId",
          "type": "uint256"
        }
      ],
      "name": "ERC721NonexistentToken",
      "type": "error"
    },
    {
      "inputs": [
        {
          "internalType": "address",
          "name": "owner",
          "type": "address"
        }
      ],
      "name": "OwnableInvalidOwner",
      "type": "error"
    },
    {
      "inputs": [
        {
          "internalType": "address",
          "name": "account",
          "type": "address"
        }
      ],
      "name": "OwnableUnauthorizedAccount",
      "type": "error"
    },
    {
      "anonymous": false,
      "inputs": [
        {
          "indexed": true,
          "internalType": "address",
          "name": "owner",
          "type": "address"
        },
        {
          "indexed": true,
          "internalType": "address",
          "name": "approved",
          "type": "address"
        },
        {
          "indexed": true,
          "internalType": "uint256",
          "name": "tokenId",
          "type": "uint256"
        }
      ],
      "name": "Approval",
      "type": "event"
    },
    {
      "anonymous": false,
      "inputs": [
        {
          "indexed": true,
          "internalType": "address",
          "name": "owner",
          "type": "address"
        },
        {
          "indexed": true,
          "internalType": "address",
          "name": "operator",
          "type": "address"
        },
        {
          "indexed": false,
          "internalType": "bool",
          "name": "approved",
          "type": "bool"
        }
      ],
      "name": "ApprovalForAll",
      "type": "event"
    },
    {
      "anonymous": false,
      "inputs": [
        {
          "indexed": true,
          "internalType": "address",
          "name": "previousOwner",
          "type": "address"
        },
        {
          "indexed": true,
          "internalType": "address",
          "name": "newOwner",
          "type": "address"
        }
      ],
      "name": "OwnershipTransferred",
      "type": "event"
    },
    {
      "anonymous": false,
      "inputs": [
        {
          "indexed": true,
          "internalType": "address",
          "name": "user",
          "type": "address"
        },
        {
          "indexed": false,
          "internalType": "uint256",
          "name": "tokenId",
          "type": "uint256"
        },
        {
          "indexed": false,
          "internalType": "string",
          "name": "category",
          "type": "string"
        },
        {
          "indexed": false,
          "internalType": "uint256",
          "name": "points",
          "type": "uint256"
        }
      ],
      "name": "ReputationAdded",
      "type": "event"
    },
    {
      "anonymous": false,
      "inputs": [
        {
          "indexed": true,
          "internalType": "address",
          "name": "from",
          "type": "address"
        },
        {
          "indexed": true,
          "internalType": "address",
          "name": "to",
          "type": "address"
        },
        {
          "indexed": true,
          "internalType": "uint256",
          "name": "tokenId",
          "type": "uint256"
        }
      ],
      "name": "Transfer",
      "type": "event"
    },
    {
      "inputs": [
        {
          "internalType": "address",
          "name": "user",
          "type": "address"
        },
        {
          "internalType": "string",
          "name": "category",
          "type": "string"
        },
        {
          "internalType": "uint256",
          "name": "points",
          "type": "uint256"
        }
      ],
      "name": "addReputation",
      "outputs": [],
      "stateMutability": "nonpayable",
      "type": "function"
    },
    {
      "inputs": [
        {
          "internalType": "address",
          "name": "to",
          "type": "address"
        },
        {
          "internalType": "uint256",
          "name": "tokenId",
          "type": "uint256"
        }
      ],
      "name": "approve",
      "outputs": [],
      "stateMutability": "nonpayable",
      "type": "function"
    },
    {
      "inputs": [
        {
          "internalType": "address",
          "name": "owner",
          "type": "address"
        }
      ],
      "name": "balanceOf",
      "outputs": [
        {
          "internalType": "uint256",
          "name": "",
          "type": "uint256"
        }
      ],
      "stateMutability": "view",
      "type": "function"
    },
    {
      "inputs": [
        {
          "internalType": "uint256",
          "name": "",
          "type": "uint256"
        },
        {
          "internalType": "string",
          "name": "",
          "type": "string"
        }
      ],
      "name": "categoryReputation",
      "outputs": [
        {
          "internalType": "uint256",
          "name": "",
          "type": "uint256"
        }
      ],
      "stateMutability": "view",
      "type": "function"
    },
    {
      "inputs": [
        {
          "internalType": "uint256",
          "name": "tokenId",
          "type": "uint256"
        }
      ],
      "name": "getApproved",
      "outputs": [
        {
          "internalType": "address",
          "name": "",
          "type": "address"
        }
      ],
      "stateMutability": "view",
      "type": "function"
    },
    {
      "inputs": [
        {
          "internalType": "address",
          "name": "user",
          "type": "address"
        },
        {
          "internalType": "string",
          "name": "category",
          "type": "string"
        }
      ],
      "name": "getCategoryReputation",
      "outputs": [
        {
          "internalType": "uint256",
          "name": "",
          "type": "uint256"
        }
      ],
      "stateMutability": "view",
      "type": "function"
    },
    {
      "inputs": [
        {
          "internalType": "address",
          "name": "owner",
          "type": "address"
        },
        {
          "internalType": "address",
          "name": "operator",
          "type": "address"
        }
      ],
      "name": "isApprovedForAll",
      "outputs": [
        {
          "internalType": "bool",
          "name": "",
          "type": "bool"
        }
      ],
      "stateMutability": "view",
      "type": "function"
    },
    {
      "inputs": [],
      "name": "name",
      "outputs": [
        {
          "internalType": "string",
          "name": "",
          "type": "string"
        }
      ],
      "stateMutability": "view",
      "type": "function"
    },
    {
      "inputs": [],
      "name": "nextTokenId",
      "outputs": [
        {
          "internalType": "uint256",
          "name": "",
          "type": "uint256"
        }
      ],
      "stateMutability": "view",
      "type": "function"
    },
    {
      "inputs": [],
      "name": "owner",
      "outputs": [
        {
          "internalType": "address",
          "name": "",
          "type": "address"
        }
      ],
      "stateMutability": "view",
      "type": "function"
    },
    {
      "inputs": [
        {
          "internalType": "uint256",
          "name": "tokenId",
          "type": "uint256"
        }
      ],
      "name": "ownerOf",
      "outputs": [
        {
          "internalType": "address",
          "name": "",
          "type": "address"
        }
      ],
      "stateMutability": "view",
      "type": "function"
    },
    {
      "inputs": [],
      "name": "predictionMarket",
      "outputs": [
        {
          "internalType": "address",
          "name": "",
          "type": "address"
        }
      ],
      "stateMutability": "view",
      "type": "function"
    },
    {
      "inputs": [],
      "name": "renounceOwnership",
      "outputs": [],
      "stateMutability": "nonpayable",
      "type": "function"
    },
    {
      "inputs": [
        {
          "internalType": "address",
          "name": "from",
          "type": "address"
        },
        {
          "internalType": "address",
          "name": "to",
          "type": "address"
        },
        {
          "internalType": "uint256",
          "name": "tokenId",
          "type": "uint256"
        }
      ],
      "name": "safeTransferFrom",
      "outputs": [],
      "stateMutability": "nonpayable",
      "type": "function"
    },
    {
      "inputs": [
        {
          "internalType": "address",
          "name": "from",
          "type": "address"
        },
        {
          "internalType": "address",
          "name": "to",
          "type": "address"
        },
        {
          "internalType": "uint256",
          "name": "tokenId",
          "type": "uint256"
        },
        {
          "internalType": "bytes",
          "name": "data",
          "type": "bytes"
        }
      ],
      "name": "safeTransferFrom",
      "outputs": [],
      "stateMutability": "nonpayable",
      "type": "function"
    },
    {
      "inputs": [
        {
          "internalType": "address",
          "name": "operator",
          "type": "address"
        },
        {
          "internalType": "bool",
          "name": "approved",
          "type": "bool"
        }
      ],
      "name": "setApprovalForAll",
      "outputs": [],
      "stateMutability": "nonpayable",
      "type": "function"
    },
    {
      "inputs": [
        {
          "internalType": "address",
          "name": "_market",
          "type": "address"
        }
      ],
      "name": "setPredictionMarket",
      "outputs": [],
      "stateMutability": "nonpayable",
      "type": "function"
    },
    {
      "inputs": [
        {
          "internalType": "bytes4",
          "name": "interfaceId",
          "type": "bytes4"
        }
      ],
      "name": "supportsInterface",
      "outputs": [
        {
          "internalType": "bool",
          "name": "",
          "type": "bool"
        }
      ],
      "stateMutability": "view",
      "type": "function"
    },
    {
      "inputs": [],
      "name": "symbol",
      "outputs": [
        {
          "internalType": "string",
          "name": "",
          "type": "string"
        }
      ],
      "stateMutability": "view",
      "type": "function"
    },
    {
      "inputs": [
        {
          "internalType": "uint256",
          "name": "tokenId",
          "type": "uint256"
        }
      ],
      "name": "tokenURI",
      "outputs": [
        {
          "internalType": "string",
          "name": "",
          "type": "string"
        }
      ],
      "stateMutability": "view",
      "type": "function"
    },
    {
      "inputs": [
        {
          "internalType": "address",
          "name": "from",
          "type": "address"
        },
        {
          "internalType": "address",
          "name": "to",
          "type": "address"
        },
        {
          "internalType": "uint256",
          "name": "tokenId",
          "type": "uint256"
        }
      ],
      "name": "transferFrom",
      "outputs": [],
      "stateMutability": "nonpayable",
      "type": "function"
    },
    {
      "inputs": [
        {
          "internalType": "address",
          "name": "newOwner",
          "type": "address"
        }
      ],
      "name": "transferOwnership",
      "outputs": [],
      "stateMutability": "nonpayable",
      "type": "function"
    },
    {
      "inputs": [
        {
          "internalType": "address",
          "name": "",
          "type": "address"
        }
      ],
      "name": "userToToken",
      "outputs": [
        {
          "internalType": "uint256",
          "name": "",
          "type": "uint256"
        }
      ],
      "stateMutability": "view",
      "type": "function"
    }
  ],
  "bytecode": "0x60803462000383576001600160401b0390604090808201838111828210176200036d578252601281526020917127b930b1b632ac102932b83aba30ba34b7b760711b83830152805193818501858110828211176200036d578252600385526227ac2960e91b8486015282518181116200036d576000948554916001958684811c9416801562000362575b838510146200034e578190601f94858111620002fb575b508390858311600114620002975789926200028b575b5050600019600383901b1c191690861b1786555b8651928311620002775784548581811c911680156200026c575b82821014620002585782811162000210575b5080918311600114620001a75750849582939495926200019b575b5050600019600383901b1c191690831b1782555b3315620001845760068054336001600160a01b03198216811790925591519390916001600160a01b0316907f8be0079c531659141344cd1fd0a4f28419497f9722a3daafe3b4186f6b6457e09080a360075561129e9081620003898239f35b51631e4fbdf760e01b815260048101839052602490fd5b01519050388062000111565b90601f198316968587528287209287905b898210620001f85750508386979896959610620001de575b505050811b01825562000125565b015160001960f88460031b161c19169055388080620001d0565b808885968294968601518155019501930190620001b8565b8587528187208380860160051c8201928487106200024e575b0160051c019086905b82811062000242575050620000f6565b88815501869062000232565b9250819262000229565b634e487b7160e01b87526022600452602487fd5b90607f1690620000e4565b634e487b7160e01b86526041600452602486fd5b015190503880620000b6565b898052848a208994509190601f1984168b5b87828210620002e45750508411620002ca575b505050811b018655620000ca565b015160001960f88460031b161c19169055388080620002bc565b8385015186558c97909501949384019301620002a9565b9091508880528389208580850160051c82019286861062000344575b918a91869594930160051c01915b82811062000335575050620000a0565b8b81558594508a910162000325565b9250819262000317565b634e487b7160e01b88526022600452602488fd5b93607f169362000089565b634e487b7160e01b600052604160045260246000fd5b600080fdfe6080604081815260048036101561001557600080fd5b600092833560e01c90816301ffc9a714610c375750806303b88ba214610bf257806306fdde0314610b25578063081812fc14610aea578063095ea7b314610a0e5780630c0e2d9b146109c057806323b872dd146109a857806328d249fe1461097057806342842e0e1461094757806361ef5136146106475780636352211e1461061657806370a08231146105c1578063715018a61461056457806375794a3c146105455780638da5cb5b1461051c57806395d89b41146103ff578063a22cb46514610362578063b88d4fde146102fa578063c87b56dd146102a7578063def114b61461027e578063e985e9c51461022c578063e998b0c6146101b25763f2fde38b1461012057600080fd5b346101ae5760203660031901126101ae57610139610ca3565b90610142611201565b6001600160a01b03918216928315610198575050600654826bffffffffffffffffffffffff60a01b821617600655167f8be0079c531659141344cd1fd0a4f28419497f9722a3daafe3b4186f6b6457e08380a380f35b51631e4fbdf760e01b8152908101849052602490fd5b8280fd5b50346101ae57816003193601126101ae5760243567ffffffffffffffff811161022857366023820112156102285761021791836020956101fc879436906024818701359101610def565b92358152600884522082855194838680955193849201610cd4565b820190815203019020549051908152f35b8380fd5b50503461027a578060031936011261027a5760ff8160209361024c610ca3565b610254610cbe565b6001600160a01b0391821683526005875283832091168252855220549151911615158152f35b5080fd5b50503461027a578160031936011261027a57600a5490516001600160a01b039091168152602090f35b5091903461027a57602036600319011261027a576102c86102f6933561122d565b508181516102d581610d7f565b528051916102e283610d7f565b825251918291602083526020830190610cf7565b0390f35b83823461027a57608036600319011261027a57610315610ca3565b61031d610cbe565b9060643567ffffffffffffffff811161035e573660238201121561035e5761035b9381602461035193369301359101610def565b91604435916110b2565b80f35b8480fd5b5090346101ae57806003193601126101ae5761037c610ca3565b906024359182151580930361035e576001600160a01b03169283156103ea5750338452600560205280842083855260205280842060ff1981541660ff8416179055519081527f17307eab39ab6107e8899845ad3d59bd9653f200f220920489ca2b5937696c3160203392a380f35b836024925191630b61174360e31b8352820152fd5b50913461051957806003193601126105195781519181600192600154938460011c916001861695861561050f575b60209687851081146104fc578899509688969785829a5291826000146104d5575050600114610479575b5050506102f6929161046a910385610db1565b51928284938452830190610cf7565b9190869350600183527fb10e2d527612073b26eecdfd717e6a320cf44b4afac2b0732d9fcbe2b7fa0cf65b8284106104bd575050508201018161046a6102f6610457565b8054848a0186015288955087949093019281016104a4565b60ff19168782015293151560051b8601909301935084925061046a91506102f69050610457565b634e487b7160e01b835260228a52602483fd5b92607f169261042d565b80fd5b50503461027a578160031936011261027a5760065490516001600160a01b039091168152602090f35b50503461027a578160031936011261027a576020906007549051908152f35b833461051957806003193601126105195761057d611201565b600680546001600160a01b0319811690915581906001600160a01b03167f8be0079c531659141344cd1fd0a4f28419497f9722a3daafe3b4186f6b6457e08280a380f35b509134610519576020366003190112610519576001600160a01b036105e4610ca3565b169283156106015750806020938392526003845220549051908152f35b91516322718ad960e21b815291820152602490fd5b50913461051957602036600319011261051957506106366020923561122d565b90516001600160a01b039091168152f35b5090346101ae5760603660031901126101ae57610662610ca3565b602491823567ffffffffffffffff8111610943576106839036908601610d1c565b916044359160018060a01b039485600a541633148015610936575b156109035785169687895260209660098852838a2054968715610759575b50868a5260088852838a208885518092898783378982019081520301902090815492868401809411610748575050947f55fd4f70ef4ad4ca1435a73bfdc994a40a1f83159435fcc44ac932eb7b11e8a69796949281949260809755606083519889978852870152816060870152868601378383018501899052830152601f01601f19168101030190a280f35b634e487b7160e01b8c52601190528afd5b96506007546000198082146108f1576001820160075581988b156108db5780878e60028e878352522054161580156108d4575b15610857578b8b7fddf252ad1be2c89b69c2b068fc378daa952ba7f163c4a11628f55a4df523b3ef8f600287958683528185528c83205416938415159788610825575b50858352600381528c832080546001019055868352528a812080546001600160a01b0319168517905580a461080f57898b5260098952848b2055386106bc565b5083516339e3563760e11b81529182018a905290fd5b600088815260046020526040902080546001600160a01b0319169055858452600382528d8420908154019055386107cf565b865162461bcd60e51b81528086018c9052604c818601527f536f756c626f756e643a204e46547320617265206e6f6e2d7472616e7366657260448201527f61626c6520616e64206561726e6564206f6e6c7920766961207072656469637460648201526b696f6e20616363757261637960a01b608482015260a490fd5b508c61078c565b8651633250574960e11b81528086018e90528490fd5b634e487b7160e01b8c5260118452828cfd5b825162461bcd60e51b81526020818a0152600e818901526d139bdd08185d5d1a1bdc9a5e995960921b6044820152606490fd5b508560065416331461069e565b8580fd5b50503461027a5761035b9061095b36610d4a565b9192519261096884610d7f565b8584526110b2565b50503461027a57602036600319011261027a5760209181906001600160a01b03610998610ca3565b1681526009845220549051908152f35b83346105195761035b6109ba36610d4a565b91610e72565b50346101ae57816003193601126101ae576109d9610ca3565b926024359067ffffffffffffffff8211610519575092610a01610a0792602095369101610d1c565b91610e26565b9051908152f35b5090346101ae57806003193601126101ae57610a28610ca3565b91602435610a358161122d565b33151580610ad7575b80610aae575b610a98576001600160a01b039485169482918691167f8c5be1e5ebec7d5bd14f71427d1e84f3dd0314c0f7b2291e5b200ac8c7c3b9258880a48452602052822080546001600160a01b031916909117905580f35b835163a9fbf51f60e01b81523381850152602490fd5b506001600160a01b03811686526005602090815284872033885290528386205460ff1615610a44565b506001600160a01b038116331415610a3e565b50346101ae5760203660031901126101ae57918260209335610b0b8161122d565b50825283528190205490516001600160a01b039091168152f35b5091346105195780600319360112610519578151918182549260018460011c9160018616958615610be8575b60209687851081146104fc578899509688969785829a5291826000146104d5575050600114610b8d575050506102f6929161046a910385610db1565b91908693508280527f290decd9548b62a8d60345a988386fc84ba6bc95484008f6362f93160ef3e5635b828410610bd0575050508201018161046a6102f6610457565b8054848a018601528895508794909301928101610bb7565b92607f1692610b51565b833461051957602036600319011261051957610c0c610ca3565b610c14611201565b60018060a01b03166bffffffffffffffffffffffff60a01b600a541617600a5580f35b925050346101ae5760203660031901126101ae573563ffffffff60e01b81168091036101ae57602092506380ac58cd60e01b8114908115610c92575b8115610c81575b5015158152f35b6301ffc9a760e01b14905038610c7a565b635b5e139f60e01b81149150610c73565b600435906001600160a01b0382168203610cb957565b600080fd5b602435906001600160a01b0382168203610cb957565b60005b838110610ce75750506000910152565b8181015183820152602001610cd7565b90602091610d1081518092818552858086019101610cd4565b601f01601f1916010190565b9181601f84011215610cb95782359167ffffffffffffffff8311610cb95760208381860195010111610cb957565b6060906003190112610cb9576001600160a01b03906004358281168103610cb957916024359081168103610cb9579060443590565b6020810190811067ffffffffffffffff821117610d9b57604052565b634e487b7160e01b600052604160045260246000fd5b90601f8019910116810190811067ffffffffffffffff821117610d9b57604052565b67ffffffffffffffff8111610d9b57601f01601f191660200190565b929192610dfb82610dd3565b91610e096040519384610db1565b829481845281830111610cb9578281602093846000960137010152565b6001600160a01b0316600090815260096020526040902054908115610e6a576020916000526008825260406000208360405194859384378201908152030190205490565b505050600090565b6001600160a01b0391821692909183156110995760009282845260209460028652604095838787205416158015611092575b15611014579084918287526002815284888820541696879133151580610f7e575b509060027fddf252ad1be2c89b69c2b068fc378daa952ba7f163c4a11628f55a4df523b3ef9284610f4b575b858352600381528b8320805460010190558683525289812080546001600160a01b0319168517905580a41692838303610f2a5750505050565b6064945051926364283d7b60e01b8452600484015260248301526044820152fd5b600087815260046020526040902080546001600160a01b0319169055848352600381528b83208054600019019055610ef1565b91939450915080610fd3575b15610f9a57859291879138610ec5565b878688610fb7576024915190637e27328960e01b82526004820152fd5b604491519063177e802f60e01b82523360048301526024820152fd5b503387148015610ff8575b80610f8a5750858252600481523385898420541614610f8a565b5086825260058152878220338352815260ff8883205416610fde565b60a49087519062461bcd60e51b82526004820152604c60248201527f536f756c626f756e643a204e46547320617265206e6f6e2d7472616e7366657260448201527f61626c6520616e64206561726e6564206f6e6c7920766961207072656469637460648201526b696f6e20616363757261637960a01b6084820152fd5b5085610ea4565b604051633250574960e11b815260006004820152602490fd5b6110bd838383610e72565b813b6110ca575b50505050565b604051630a85bd0160e11b8082523360048301526001600160a01b03928316602483015260448201949094526080606482015260209592909116939092908390611118906084830190610cf7565b039285816000958187895af18491816111c1575b5061118c575050503d600014611184573d61114681610dd3565b906111546040519283610db1565b81528091843d92013e5b8051928361117f57604051633250574960e11b815260048101849052602490fd5b019050fd5b50606061115e565b919450915063ffffffff60e01b16036111a95750388080806110c4565b60249060405190633250574960e11b82526004820152fd5b9091508681813d83116111fa575b6111d98183610db1565b8101031261035e57516001600160e01b03198116810361035e57903861112c565b503d6111cf565b6006546001600160a01b0316330361121557565b60405163118cdaa760e01b8152336004820152602490fd5b6000818152600260205260409020546001600160a01b0316908115611250575090565b60249060405190637e27328960e01b82526004820152fdfea2646970667358221220f9352195f9bdf7812090122942d57594264f1deba209893c56ba5d0f31293b2d64736f6c63430008180033",
  "linkReferences": {},
  "deployedLinkReferences": {}
}